{
  "transactions": [
    {
      "hash": "0x9cf3af96db771c9a457df9bb2d97faec153431ba418761fad88473acab44ebd1",
      "transactionType": "CALL",
      "contractName": null,
      "contractAddress": "0x2791bca1f2de4661ed88a30c99a7a9449aa84174",
      "function": "approve(address,uint256)",
      "arguments": [
        "0x7e204f2d874AFa344fDfA428eC9d77C07c556bAC",
        "200000000"
      ],
      "transaction": {
        "from": "0x2cd60849380319b59e180bc2137352c6df838a33",
        "to": "0x2791bca1f2de4661ed88a30c99a7a9449aa84174",
        "gas": "0x14be8",
        "value": "0x0",
        "input": "0x095ea7b30000000000000000000000007e204f2d874afa344fdfa428ec9d77c07c556bac000000000000000000000000000000000000000000000000000000000bebc200",
        "nonce": "0x1",
        "chainId": "0x89"
      },
      "additionalContracts": [],
      "isFixedGasLimit": false
    },
    {
      "hash": "0x9cc6b548c0156a4f99d6c971ecb302c5e829f6688302becfa3e13404436eec42",
      "transactionType": "CALL",
      "contractName": null,
      "contractAddress": "0x7e204f2d874afa344fdfa428ec9d77c07c556bac",
      "function": "deposit(uint256,address)",
      "arguments": [
        "200000000",
        "0x2Cd60849380319b59e180BC2137352C6dF838A33"
      ],
      "transaction": {
        "from": "0x2cd60849380319b59e180bc2137352c6df838a33",
        "to": "0x7e204f2d874afa344fdfa428ec9d77c07c556bac",
        "gas": "0x4a0c4",
        "value": "0x0",
        "input": "0x6e553f65000000000000000000000000000000000000000000000000000000000bebc2000000000000000000000000002cd60849380319b59e180bc2137352c6df838a33",
        "nonce": "0x2",
        "chainId": "0x89"
      },
      "additionalContracts": [],
      "isFixedGasLimit": false
    }
  ],
  "receipts": [
    {
      "status": "0x1",
      "cumulativeGasUsed": "0x866608",
      "logs": [
        {
          "address": "0x2791bca1f2de4661ed88a30c99a7a9449aa84174",
          "topics": [
            "0x8c5be1e5ebec7d5bd14f71427d1e84f3dd0314c0f7b2291e5b200ac8c7c3b925",
            "0x0000000000000000000000002cd60849380319b59e180bc2137352c6df838a33",
            "0x0000000000000000000000007e204f2d874afa344fdfa428ec9d77c07c556bac"
          ],
          "data": "0x000000000000000000000000000000000000000000000000000000000bebc200",
          "blockHash": "0x74dfe4c5e3dda9d783308d42546bd1e678aea6d52488a707d0e17907a12810b9",
          "blockNumber": "0x36d85be",
          "transactionHash": "0x9cf3af96db771c9a457df9bb2d97faec153431ba418761fad88473acab44ebd1",
          "transactionIndex": "0x41",
          "logIndex": "0x14e",
          "removed": false
        },
        {
          "address": "0x0000000000000000000000000000000000001010",
          "topics": [
            "0x4dfe1bbbcf077ddc3e01291eea2d5c70c2b422b415d95645b9adcfd678cb1d63",
            "0x0000000000000000000000000000000000000000000000000000000000001010",
            "0x0000000000000000000000002cd60849380319b59e180bc2137352c6df838a33",
            "0x000000000000000000000000f0245f6251bef9447a08766b9da2b07b28ad80b0"
          ],
          "data": "0x00000000000000000000000000000000000000000000000000063131d7909800000000000000000000000000000000000000000000000000b7e6ff7679c4cf020000000000000000000000000000000000000000000000ce191e1ec8358da1df000000000000000000000000000000000000000000000000b7e0ce44a23437020000000000000000000000000000000000000000000000ce19244ffa0d1e39df",
          "blockHash": "0x74dfe4c5e3dda9d783308d42546bd1e678aea6d52488a707d0e17907a12810b9",
          "blockNumber": "0x36d85be",
          "transactionHash": "0x9cf3af96db771c9a457df9bb2d97faec153431ba418761fad88473acab44ebd1",
          "transactionIndex": "0x41",
          "logIndex": "0x14f",
          "removed": false
        }
      ],
      "logsBloom": "0x00000000000000000000000000000000000000000000000000000000000000000000000000008000000000000000000000008000000000000000000000200000000080000000000000000000000000800080000000000000000100400000000000000000000000000000000000000000000000000000000180000000000000000001000000000000000000000000000000000000000000000000800000080000220000800000000000000000000000000000000000000000000000000000004000000000000000000001000000000100000000000000000000100000000000000010008000000800000000000000000000000000000000000000000000100000",
      "type": "0x2",
      "transactionHash": "0x9cf3af96db771c9a457df9bb2d97faec153431ba418761fad88473acab44ebd1",
      "transactionIndex": "0x41",
      "blockHash": "0x74dfe4c5e3dda9d783308d42546bd1e678aea6d52488a707d0e17907a12810b9",
      "blockNumber": "0x36d85be",
      "gasUsed": "0xe2f2",
      "effectiveGasPrice": "0x6fc23ac2c",
      "from": "0x2cd60849380319b59e180bc2137352c6df838a33",
      "to": "0x2791bca1f2de4661ed88a30c99a7a9449aa84174",
      "contractAddress": null
    },
    {
      "status": "0x1",
      "cumulativeGasUsed": "0xcca7b9",
      "logs": [
        {
          "address": "0x2791bca1f2de4661ed88a30c99a7a9449aa84174",
          "topics": [
            "0xddf252ad1be2c89b69c2b068fc378daa952ba7f163c4a11628f55a4df523b3ef",
            "0x0000000000000000000000002cd60849380319b59e180bc2137352c6df838a33",
            "0x0000000000000000000000007e204f2d874afa344fdfa428ec9d77c07c556bac"
          ],
          "data": "0x000000000000000000000000000000000000000000000000000000000bebc200",
          "blockHash": "0x79e200a4612f69fcddeae41a89a72d1dcd93c4d27716467c9c10f397ca40fa4d",
          "blockNumber": "0x36d85c0",
          "transactionHash": "0x9cc6b548c0156a4f99d6c971ecb302c5e829f6688302becfa3e13404436eec42",
          "transactionIndex": "0x63",
          "logIndex": "0x1b2",
          "removed": false
        },
        {
          "address": "0x2791bca1f2de4661ed88a30c99a7a9449aa84174",
          "topics": [
            "0x8c5be1e5ebec7d5bd14f71427d1e84f3dd0314c0f7b2291e5b200ac8c7c3b925",
            "0x0000000000000000000000002cd60849380319b59e180bc2137352c6df838a33",
            "0x0000000000000000000000007e204f2d874afa344fdfa428ec9d77c07c556bac"
          ],
          "data": "0x0000000000000000000000000000000000000000000000000000000000000000",
          "blockHash": "0x79e200a4612f69fcddeae41a89a72d1dcd93c4d27716467c9c10f397ca40fa4d",
          "blockNumber": "0x36d85c0",
          "transactionHash": "0x9cc6b548c0156a4f99d6c971ecb302c5e829f6688302becfa3e13404436eec42",
          "transactionIndex": "0x63",
          "logIndex": "0x1b3",
          "removed": false
        },
        {
          "address": "0x7e204f2d874afa344fdfa428ec9d77c07c556bac",
          "topics": [
            "0xddf252ad1be2c89b69c2b068fc378daa952ba7f163c4a11628f55a4df523b3ef",
            "0x0000000000000000000000000000000000000000000000000000000000000000",
            "0x0000000000000000000000002cd60849380319b59e180bc2137352c6df838a33"
          ],
          "data": "0x000000000000000000000000000000000000000000000000000000000bebc200",
          "blockHash": "0x79e200a4612f69fcddeae41a89a72d1dcd93c4d27716467c9c10f397ca40fa4d",
          "blockNumber": "0x36d85c0",
          "transactionHash": "0x9cc6b548c0156a4f99d6c971ecb302c5e829f6688302becfa3e13404436eec42",
          "transactionIndex": "0x63",
          "logIndex": "0x1b4",
          "removed": false
        },
        {
          "address": "0x7e204f2d874afa344fdfa428ec9d77c07c556bac",
          "topics": [
            "0xdcbc1c05240f31ff3ad067ef1ee35ce4997762752e3a095284754544f4c709d7",
            "0x0000000000000000000000002cd60849380319b59e180bc2137352c6df838a33",
            "0x0000000000000000000000002cd60849380319b59e180bc2137352c6df838a33"
          ],
          "data": "0x000000000000000000000000000000000000000000000000000000000bebc200000000000000000000000000000000000000000000000000000000000bebc200",
          "blockHash": "0x79e200a4612f69fcddeae41a89a72d1dcd93c4d27716467c9c10f397ca40fa4d",
          "blockNumber": "0x36d85c0",
          "transactionHash": "0x9cc6b548c0156a4f99d6c971ecb302c5e829f6688302becfa3e13404436eec42",
          "transactionIndex": "0x63",
          "logIndex": "0x1b5",
          "removed": false
        },
        {
          "address": "0x2791bca1f2de4661ed88a30c99a7a9449aa84174",
          "topics": [
            "0x8c5be1e5ebec7d5bd14f71427d1e84f3dd0314c0f7b2291e5b200ac8c7c3b925",
            "0x0000000000000000000000007e204f2d874afa344fdfa428ec9d77c07c556bac",
            "0x00000000000000000000000069017caf9655c8d54cfbf6b030e3e2f02bab7268"
          ],
          "data": "0x000000000000000000000000000000000000000000000000000000000bebc200",
          "blockHash": "0x79e200a4612f69fcddeae41a89a72d1dcd93c4d27716467c9c10f397ca40fa4d",
          "blockNumber": "0x36d85c0",
          "transactionHash": "0x9cc6b548c0156a4f99d6c971ecb302c5e829f6688302becfa3e13404436eec42",
          "transactionIndex": "0x63",
          "logIndex": "0x1b6",
          "removed": false
        },
        {
          "address": "0x2791bca1f2de4661ed88a30c99a7a9449aa84174",
          "topics": [
            "0xddf252ad1be2c89b69c2b068fc378daa952ba7f163c4a11628f55a4df523b3ef",
            "0x0000000000000000000000007e204f2d874afa344fdfa428ec9d77c07c556bac",
            "0x00000000000000000000000069017caf9655c8d54cfbf6b030e3e2f02bab7268"
          ],
          "data": "0x000000000000000000000000000000000000000000000000000000000bebc200",
          "blockHash": "0x79e200a4612f69fcddeae41a89a72d1dcd93c4d27716467c9c10f397ca40fa4d",
          "blockNumber": "0x36d85c0",
          "transactionHash": "0x9cc6b548c0156a4f99d6c971ecb302c5e829f6688302becfa3e13404436eec42",
          "transactionIndex": "0x63",
          "logIndex": "0x1b7",
          "removed": false
        },
        {
          "address": "0x2791bca1f2de4661ed88a30c99a7a9449aa84174",
          "topics": [
            "0x8c5be1e5ebec7d5bd14f71427d1e84f3dd0314c0f7b2291e5b200ac8c7c3b925",
            "0x0000000000000000000000007e204f2d874afa344fdfa428ec9d77c07c556bac",
            "0x00000000000000000000000069017caf9655c8d54cfbf6b030e3e2f02bab7268"
          ],
          "data": "0x0000000000000000000000000000000000000000000000000000000000000000",
          "blockHash": "0x79e200a4612f69fcddeae41a89a72d1dcd93c4d27716467c9c10f397ca40fa4d",
          "blockNumber": "0x36d85c0",
          "transactionHash": "0x9cc6b548c0156a4f99d6c971ecb302c5e829f6688302becfa3e13404436eec42",
          "transactionIndex": "0x63",
          "logIndex": "0x1b8",
          "removed": false
        },
        {
          "address": "0x69017caf9655c8d54cfbf6b030e3e2f02bab7268",
          "topics": [
            "0x5af417134f72a9d41143ace85b0a26dce6f550f894f2cbc1eeee8810603d91b6",
            "0x0000000000000000000000002cd60849380319b59e180bc2137352c6df838a33"
          ],
          "data": "0x000000000000000000000000000000000000000000000000000000000bebc200000000000000000000000000000000000000000000000000000000000bebc200",
          "blockHash": "0x79e200a4612f69fcddeae41a89a72d1dcd93c4d27716467c9c10f397ca40fa4d",
          "blockNumber": "0x36d85c0",
          "transactionHash": "0x9cc6b548c0156a4f99d6c971ecb302c5e829f6688302becfa3e13404436eec42",
          "transactionIndex": "0x63",
          "logIndex": "0x1b9",
          "removed": false
        },
        {
          "address": "0x0000000000000000000000000000000000001010",
          "topics": [
            "0x4dfe1bbbcf077ddc3e01291eea2d5c70c2b422b415d95645b9adcfd678cb1d63",
            "0x0000000000000000000000000000000000000000000000000000000000001010",
            "0x0000000000000000000000002cd60849380319b59e180bc2137352c6df838a33",
            "0x00000000000000000000000083d69448f88bf9c701c1b93f43e1f753d39b2632"
          ],
          "data": "0x00000000000000000000000000000000000000000000000000176750858d0000000000000000000000000000000000000000000000000000b7e0ce44a20d356a00000000000000000000000000000000000000000000043a2b9073d101d254e9000000000000000000000000000000000000000000000000b7c966f41c80356a00000000000000000000000000000000000000000000043a2ba7db21875f54e9",
          "blockHash": "0x79e200a4612f69fcddeae41a89a72d1dcd93c4d27716467c9c10f397ca40fa4d",
          "blockNumber": "0x36d85c0",
          "transactionHash": "0x9cc6b548c0156a4f99d6c971ecb302c5e829f6688302becfa3e13404436eec42",
          "transactionIndex": "0x63",
          "logIndex": "0x1ba",
          "removed": false
        }
      ],
      "logsBloom": "0x00000000000000000000000000000000010000000000000010000000000000000000000000000000000000000000000000008000000000008000000020200000000000400000008000000008000000800080000000000000000100400000000000000000020000000000000000000800000000000804100180000010000000000001000000000000000000000000000000000000000000000000800000000000220000800000000000200000000000000000000000000000000000000000004002000002000000000001000000000100000000120008000000100000000020000010008000000800000100000000000100000000000400000000000000100000",
      "type": "0x2",
      "transactionHash": "0x9cc6b548c0156a4f99d6c971ecb302c5e829f6688302becfa3e13404436eec42",
      "transactionIndex": "0x63",
      "blockHash": "0x79e200a4612f69fcddeae41a89a72d1dcd93c4d27716467c9c10f397ca40fa4d",
      "blockNumber": "0x36d85c0",
      "gasUsed": "0x359c0",
      "effectiveGasPrice": "0x6fc23ac2b",
      "from": "0x2cd60849380319b59e180bc2137352c6df838a33",
      "to": "0x7e204f2d874afa344fdfa428ec9d77c07c556bac",
      "contractAddress": null
    }
  ],
  "libraries": [],
  "pending": [],
  "returns": {},
  "timestamp": 1716944350,
  "chain": 137,
  "commit": "c298ffb"
}