{
  "transactions": [
    {
      "hash": "0xdc19722b48dc0e48ed5f958f2097cbd721da181da37dd118e1aa85827cd9612b",
      "transactionType": "CALL",
      "contractName": null,
      "contractAddress": "0xbd1b1e1f33f89d4becd0e5c6d3e88bd447992134",
      "function": "addOrchestrator(address)",
      "arguments": [
        "0xB4Ea547b917763A12e640eA52a77eaba81F2068a"
      ],
      "transaction": {
        "from": "0x5cc11ef1de86c5e00259a463ac3f3ae1a0fa2909",
        "to": "0xbd1b1e1f33f89d4becd0e5c6d3e88bd447992134",
        "gas": "0x11253",
        "value": "0x0",
        "input": "0xea535e80000000000000000000000000b4ea547b917763a12e640ea52a77eaba81f2068a",
        "nonce": "0x1f",
        "chainId": "0xfa"
      },
      "additionalContracts": [],
      "isFixedGasLimit": false
    }
  ],
  "receipts": [
    {
      "status": "0x1",
      "cumulativeGasUsed": "0xc43f",
      "logs": [
        {
          "address": "0xbd1b1e1f33f89d4becd0e5c6d3e88bd447992134",
          "topics": [
            "0xe8634ee4705b838130ef5f5704acc336c6fd18a8bfe0430e9102ff6bcf9184d3",
            "0x000000000000000000000000b4ea547b917763a12e640ea52a77eaba81f2068a"
          ],
          "data": "0x",
          "blockHash": "0x00045a7100001670208d8d70b79de2aa691c06da8fcdf06ab5553410371ac8a4",
          "blockNumber": "0x4e30f5b",
          "transactionHash": "0xdc19722b48dc0e48ed5f958f2097cbd721da181da37dd118e1aa85827cd9612b",
          "transactionIndex": "0x0",
          "logIndex": "0x0",
          "removed": false
        }
      ],
      "logsBloom": "0x00000000000000000000000000000000000000000000000000000000000000000000000020200000000000000000000000000000000000000000000000000000000000200000000000000000000000000000000000000000001000000000000000000000000000000000000000000000000000000000000000000080000000000000000000000000000001000010000000000000000000000000000000000000000000000000000000000000000000000000000000000400000000000000000000000000000000000000000000000000000000000000000000000000000000000000000000000000000000000000000000000000000000000000000400000000",
      "type": "0x0",
      "transactionHash": "0xdc19722b48dc0e48ed5f958f2097cbd721da181da37dd118e1aa85827cd9612b",
      "transactionIndex": "0x0",
      "blockHash": "0x00045a7100001670208d8d70b79de2aa691c06da8fcdf06ab5553410371ac8a4",
      "blockNumber": "0x4e30f5b",
      "gasUsed": "0xc43f",
      "effectiveGasPrice": "0x23277711e",
      "from": "0x5cc11ef1de86c5e00259a463ac3f3ae1a0fa2909",
      "to": "0xbd1b1e1f33f89d4becd0e5c6d3e88bd447992134",
      "contractAddress": null
    }
  ],
  "libraries": [],
  "pending": [],
  "returns": {},
  "timestamp": 1717192023,
  "chain": 250,
  "commit": "c298ffb"
}