{
  "transactions": [
    {
      "hash": "0x5e656fa752b1f87a1547e90ce339e5b2c431282dcea29b36e508872cbc25673d",
      "transactionType": "CALL",
      "contractName": null,
      "contractAddress": "0xbd1b1e1f33f89d4becd0e5c6d3e88bd447992134",
      "function": "addOrchestrator(address)",
      "arguments": [
        "0x571b7A5EC0C203cBb125210AE702D51ef378c2a8"
      ],
      "transaction": {
        "from": "0x5cc11ef1de86c5e00259a463ac3f3ae1a0fa2909",
        "to": "0xbd1b1e1f33f89d4becd0e5c6d3e88bd447992134",
        "gas": "0x11253",
        "value": "0x0",
        "input": "0xea535e80000000000000000000000000571b7a5ec0c203cbb125210ae702d51ef378c2a8",
        "nonce": "0x20",
        "chainId": "0xfa"
      },
      "additionalContracts": [],
      "isFixedGasLimit": false
    }
  ],
  "receipts": [
    {
      "status": "0x1",
      "cumulativeGasUsed": "0x174d9",
      "logs": [
        {
          "address": "0xbd1b1e1f33f89d4becd0e5c6d3e88bd447992134",
          "topics": [
            "0xe8634ee4705b838130ef5f5704acc336c6fd18a8bfe0430e9102ff6bcf9184d3",
            "0x000000000000000000000000571b7a5ec0c203cbb125210ae702d51ef378c2a8"
          ],
          "data": "0x",
          "blockHash": "0x00047e9a000020d777839b5f5e44bbeb90c7c32761c795bc5e0a898301e455d2",
          "blockNumber": "0x5223e32",
          "transactionHash": "0x5e656fa752b1f87a1547e90ce339e5b2c431282dcea29b36e508872cbc25673d",
          "transactionIndex": "0x1",
          "logIndex": "0x1",
          "removed": false
        }
      ],
      "logsBloom": "0x00000000000000000000000000000000000000000000000000000000000000000040000020200000000000000000000000000000000000000000000000000000000000000000000000000000000000000000000000000000001000000000000000001000000000000000000000000000000000000000000000000080000000000000000000000000000000000000000000000000000000000000000000000000000000000000000000000080000000000000000000000400000000000000000000000000000000000000000000000000000000000000000000000000000000000000000000000000000000000000000000000000000000000000000400000000",
      "type": "0x0",
      "transactionHash": "0x5e656fa752b1f87a1547e90ce339e5b2c431282dcea29b36e508872cbc25673d",
      "transactionIndex": "0x1",
      "blockHash": "0x00047e9a000020d777839b5f5e44bbeb90c7c32761c795bc5e0a898301e455d2",
      "blockNumber": "0x5223e32",
      "gasUsed": "0xc43f",
      "effectiveGasPrice": "0x4c132c05c",
      "from": "0x5cc11ef1de86c5e00259a463ac3f3ae1a0fa2909",
      "to": "0xbd1b1e1f33f89d4becd0e5c6d3e88bd447992134",
      "contractAddress": null
    }
  ],
  "libraries": [],
  "pending": [],
  "returns": {},
  "timestamp": 1721405345,
  "chain": 250,
  "commit": "b45c618"
}