{
  "transactions": [
    {
      "hash": "0x9916fff16d8009d6e27a9181637a5bfcc10fe76902f5103c1d773088ed67e8b2",
      "transactionType": "CALL",
      "contractName": null,
      "contractAddress": "0xbd1b1e1f33f89d4becd0e5c6d3e88bd447992134",
      "function": "addOrchestrator(address)",
      "arguments": [
        "0x8123268745B06abd40EC28afB346D8992345DF87"
      ],
      "transaction": {
        "from": "0x5cc11ef1de86c5e00259a463ac3f3ae1a0fa2909",
        "to": "0xbd1b1e1f33f89d4becd0e5c6d3e88bd447992134",
        "gas": "0x11253",
        "value": "0x0",
        "input": "0xea535e800000000000000000000000008123268745b06abd40ec28afb346d8992345df87",
        "nonce": "0x21",
        "chainId": "0xfa"
      },
      "additionalContracts": [],
      "isFixedGasLimit": false
    }
  ],
  "receipts": [
    {
      "status": "0x1",
      "cumulativeGasUsed": "0x44b9e",
      "logs": [
        {
          "address": "0xbd1b1e1f33f89d4becd0e5c6d3e88bd447992134",
          "topics": [
            "0xe8634ee4705b838130ef5f5704acc336c6fd18a8bfe0430e9102ff6bcf9184d3",
            "0x0000000000000000000000008123268745b06abd40ec28afb346d8992345df87"
          ],
          "data": "0x",
          "blockHash": "0x000481ca000012641049a98cf4743bab6576dd7c315fd024d2c0591b5d8b7598",
          "blockNumber": "0x5295285",
          "transactionHash": "0x9916fff16d8009d6e27a9181637a5bfcc10fe76902f5103c1d773088ed67e8b2",
          "transactionIndex": "0x1",
          "logIndex": "0x12",
          "removed": false
        }
      ],
      "logsBloom": "0x00000000000000000000001000000000000000000000000000002000000000000000000060200000000000000000000000000000000000000000000000000000000000000000000000000000000000000000000000000000001000000000000000000000000000000000000000000000000000000000000000000080000000000000000000000000000000000000000000000000000000000000000000000000000000000000000000000000000000000000000000000400000000000000000000000000000000000000000000000000000000000000000000000000000000000000000000000000000000000000000000000000000000000000000400000000",
      "type": "0x0",
      "transactionHash": "0x9916fff16d8009d6e27a9181637a5bfcc10fe76902f5103c1d773088ed67e8b2",
      "transactionIndex": "0x1",
      "blockHash": "0x000481ca000012641049a98cf4743bab6576dd7c315fd024d2c0591b5d8b7598",
      "blockNumber": "0x5295285",
      "gasUsed": "0xc43f",
      "effectiveGasPrice": "0x412d28712",
      "from": "0x5cc11ef1de86c5e00259a463ac3f3ae1a0fa2909",
      "to": "0xbd1b1e1f33f89d4becd0e5c6d3e88bd447992134",
      "contractAddress": null
    }
  ],
  "libraries": [],
  "pending": [],
  "returns": {},
  "timestamp": 1721773223,
  "chain": 250,
  "commit": "b45c618"
}