{
  "transactions": [
    {
      "hash": "0xbaa742c84b99944cf20eeb0841e863c8549702232b79f27cb9c61b7bd7cc4967",
      "transactionType": "CALL",
      "contractName": null,
      "contractAddress": "0x28a92dde19d9989f39a49905d7c9c2fac7799bdf",
      "function": "approve(address,uint256)",
      "arguments": [
        "0xDCF998011dcAab9B8C1Ea5B34f1b6c7bAF59d4C0",
        "200000000"
      ],
      "transaction": {
        "from": "0x2cd60849380319b59e180bc2137352c6df838a33",
        "to": "0x28a92dde19d9989f39a49905d7c9c2fac7799bdf",
        "gas": "0x10897",
        "value": "0x0",
        "input": "0x095ea7b3000000000000000000000000dcf998011dcaab9b8c1ea5b34f1b6c7baf59d4c0000000000000000000000000000000000000000000000000000000000bebc200",
        "nonce": "0x1",
        "chainId": "0xfa"
      },
      "additionalContracts": [],
      "isFixedGasLimit": false
    },
    {
      "hash": "0xca6a61203bb030eab26c3f171376de62f13ebd5fd339831dea708ad9f4343edb",
      "transactionType": "CALL",
      "contractName": null,
      "contractAddress": "0xdcf998011dcaab9b8c1ea5b34f1b6c7baf59d4c0",
      "function": "deposit(uint256,address)",
      "arguments": [
        "200000000",
        "0x2Cd60849380319b59e180BC2137352C6dF838A33"
      ],
      "transaction": {
        "from": "0x2cd60849380319b59e180bc2137352c6df838a33",
        "to": "0xdcf998011dcaab9b8c1ea5b34f1b6c7baf59d4c0",
        "gas": "0x47d38",
        "value": "0x0",
        "input": "0x6e553f65000000000000000000000000000000000000000000000000000000000bebc2000000000000000000000000002cd60849380319b59e180bc2137352c6df838a33",
        "nonce": "0x2",
        "chainId": "0xfa"
      },
      "additionalContracts": [],
      "isFixedGasLimit": false
    }
  ],
  "receipts": [
    {
      "status": "0x1",
      "cumulativeGasUsed": "0xaeb1a",
      "logs": [
        {
          "address": "0x28a92dde19d9989f39a49905d7c9c2fac7799bdf",
          "topics": [
            "0x8c5be1e5ebec7d5bd14f71427d1e84f3dd0314c0f7b2291e5b200ac8c7c3b925",
            "0x0000000000000000000000002cd60849380319b59e180bc2137352c6df838a33",
            "0x000000000000000000000000dcf998011dcaab9b8c1ea5b34f1b6c7baf59d4c0"
          ],
          "data": "0x000000000000000000000000000000000000000000000000000000000bebc200",
          "blockHash": "0x0004584e000014fa8a68ad4494f8d19ecde21653ad462dd9b055041fc60296ee",
          "blockNumber": "0x4dff84c",
          "transactionHash": "0xbaa742c84b99944cf20eeb0841e863c8549702232b79f27cb9c61b7bd7cc4967",
          "transactionIndex": "0x2",
          "logIndex": "0x1a",
          "removed": false
        }
      ],
      "logsBloom": "0x00000000000000000000000000000000000000000000000000000000000000000000000000000000000400004000000000000010000000000000000000200000000000000000000000000000000000000000000000000000000000000000000000000000000000000000000000000000000000000000000000000000000000000000000000000000000000000000000000000000000000000000800000000000020000400000000000000000000000000000000000000000000000000000000000000000000000000000000200000100000000000000000000000000000000000010000000000800000000000000000000000000000000000000000000000080",
      "type": "0x0",
      "transactionHash": "0xbaa742c84b99944cf20eeb0841e863c8549702232b79f27cb9c61b7bd7cc4967",
      "transactionIndex": "0x2",
      "blockHash": "0x0004584e000014fa8a68ad4494f8d19ecde21653ad462dd9b055041fc60296ee",
      "blockNumber": "0x4dff84c",
      "gasUsed": "0xbd49",
      "effectiveGasPrice": "0x2967b745f",
      "from": "0x2cd60849380319b59e180bc2137352c6df838a33",
      "to": "0x28a92dde19d9989f39a49905d7c9c2fac7799bdf",
      "contractAddress": null
    },
    {
      "status": "0x1",
      "cumulativeGasUsed": "0x324b6",
      "logs": [
        {
          "address": "0x28a92dde19d9989f39a49905d7c9c2fac7799bdf",
          "topics": [
            "0x8c5be1e5ebec7d5bd14f71427d1e84f3dd0314c0f7b2291e5b200ac8c7c3b925",
            "0x0000000000000000000000002cd60849380319b59e180bc2137352c6df838a33",
            "0x000000000000000000000000dcf998011dcaab9b8c1ea5b34f1b6c7baf59d4c0"
          ],
          "data": "0x0000000000000000000000000000000000000000000000000000000000000000",
          "blockHash": "0x0004584e000015210db365d359e2eb27cc5fe752d9bacbd16888261fecf3b79c",
          "blockNumber": "0x4dff84e",
          "transactionHash": "0xca6a61203bb030eab26c3f171376de62f13ebd5fd339831dea708ad9f4343edb",
          "transactionIndex": "0x0",
          "logIndex": "0x0",
          "removed": false
        },
        {
          "address": "0x28a92dde19d9989f39a49905d7c9c2fac7799bdf",
          "topics": [
            "0xddf252ad1be2c89b69c2b068fc378daa952ba7f163c4a11628f55a4df523b3ef",
            "0x0000000000000000000000002cd60849380319b59e180bc2137352c6df838a33",
            "0x000000000000000000000000dcf998011dcaab9b8c1ea5b34f1b6c7baf59d4c0"
          ],
          "data": "0x000000000000000000000000000000000000000000000000000000000bebc200",
          "blockHash": "0x0004584e000015210db365d359e2eb27cc5fe752d9bacbd16888261fecf3b79c",
          "blockNumber": "0x4dff84e",
          "transactionHash": "0xca6a61203bb030eab26c3f171376de62f13ebd5fd339831dea708ad9f4343edb",
          "transactionIndex": "0x0",
          "logIndex": "0x1",
          "removed": false
        },
        {
          "address": "0xdcf998011dcaab9b8c1ea5b34f1b6c7baf59d4c0",
          "topics": [
            "0xddf252ad1be2c89b69c2b068fc378daa952ba7f163c4a11628f55a4df523b3ef",
            "0x0000000000000000000000000000000000000000000000000000000000000000",
            "0x0000000000000000000000002cd60849380319b59e180bc2137352c6df838a33"
          ],
          "data": "0x000000000000000000000000000000000000000000000000000000000bebc200",
          "blockHash": "0x0004584e000015210db365d359e2eb27cc5fe752d9bacbd16888261fecf3b79c",
          "blockNumber": "0x4dff84e",
          "transactionHash": "0xca6a61203bb030eab26c3f171376de62f13ebd5fd339831dea708ad9f4343edb",
          "transactionIndex": "0x0",
          "logIndex": "0x2",
          "removed": false
        },
        {
          "address": "0xdcf998011dcaab9b8c1ea5b34f1b6c7baf59d4c0",
          "topics": [
            "0xdcbc1c05240f31ff3ad067ef1ee35ce4997762752e3a095284754544f4c709d7",
            "0x0000000000000000000000002cd60849380319b59e180bc2137352c6df838a33",
            "0x0000000000000000000000002cd60849380319b59e180bc2137352c6df838a33"
          ],
          "data": "0x000000000000000000000000000000000000000000000000000000000bebc200000000000000000000000000000000000000000000000000000000000bebc200",
          "blockHash": "0x0004584e000015210db365d359e2eb27cc5fe752d9bacbd16888261fecf3b79c",
          "blockNumber": "0x4dff84e",
          "transactionHash": "0xca6a61203bb030eab26c3f171376de62f13ebd5fd339831dea708ad9f4343edb",
          "transactionIndex": "0x0",
          "logIndex": "0x3",
          "removed": false
        },
        {
          "address": "0x28a92dde19d9989f39a49905d7c9c2fac7799bdf",
          "topics": [
            "0x8c5be1e5ebec7d5bd14f71427d1e84f3dd0314c0f7b2291e5b200ac8c7c3b925",
            "0x000000000000000000000000dcf998011dcaab9b8c1ea5b34f1b6c7baf59d4c0",
            "0x000000000000000000000000bd1b1e1f33f89d4becd0e5c6d3e88bd447992134"
          ],
          "data": "0x000000000000000000000000000000000000000000000000000000000bebc200",
          "blockHash": "0x0004584e000015210db365d359e2eb27cc5fe752d9bacbd16888261fecf3b79c",
          "blockNumber": "0x4dff84e",
          "transactionHash": "0xca6a61203bb030eab26c3f171376de62f13ebd5fd339831dea708ad9f4343edb",
          "transactionIndex": "0x0",
          "logIndex": "0x4",
          "removed": false
        },
        {
          "address": "0x28a92dde19d9989f39a49905d7c9c2fac7799bdf",
          "topics": [
            "0x8c5be1e5ebec7d5bd14f71427d1e84f3dd0314c0f7b2291e5b200ac8c7c3b925",
            "0x000000000000000000000000dcf998011dcaab9b8c1ea5b34f1b6c7baf59d4c0",
            "0x000000000000000000000000bd1b1e1f33f89d4becd0e5c6d3e88bd447992134"
          ],
          "data": "0x0000000000000000000000000000000000000000000000000000000000000000",
          "blockHash": "0x0004584e000015210db365d359e2eb27cc5fe752d9bacbd16888261fecf3b79c",
          "blockNumber": "0x4dff84e",
          "transactionHash": "0xca6a61203bb030eab26c3f171376de62f13ebd5fd339831dea708ad9f4343edb",
          "transactionIndex": "0x0",
          "logIndex": "0x5",
          "removed": false
        },
        {
          "address": "0x28a92dde19d9989f39a49905d7c9c2fac7799bdf",
          "topics": [
            "0xddf252ad1be2c89b69c2b068fc378daa952ba7f163c4a11628f55a4df523b3ef",
            "0x000000000000000000000000dcf998011dcaab9b8c1ea5b34f1b6c7baf59d4c0",
            "0x000000000000000000000000bd1b1e1f33f89d4becd0e5c6d3e88bd447992134"
          ],
          "data": "0x000000000000000000000000000000000000000000000000000000000bebc200",
          "blockHash": "0x0004584e000015210db365d359e2eb27cc5fe752d9bacbd16888261fecf3b79c",
          "blockNumber": "0x4dff84e",
          "transactionHash": "0xca6a61203bb030eab26c3f171376de62f13ebd5fd339831dea708ad9f4343edb",
          "transactionIndex": "0x0",
          "logIndex": "0x6",
          "removed": false
        },
        {
          "address": "0xbd1b1e1f33f89d4becd0e5c6d3e88bd447992134",
          "topics": [
            "0x5af417134f72a9d41143ace85b0a26dce6f550f894f2cbc1eeee8810603d91b6",
            "0x0000000000000000000000002cd60849380319b59e180bc2137352c6df838a33"
          ],
          "data": "0x000000000000000000000000000000000000000000000000000000000bebc200000000000000000000000000000000000000000000000000000000000bebc200",
          "blockHash": "0x0004584e000015210db365d359e2eb27cc5fe752d9bacbd16888261fecf3b79c",
          "blockNumber": "0x4dff84e",
          "transactionHash": "0xca6a61203bb030eab26c3f171376de62f13ebd5fd339831dea708ad9f4343edb",
          "transactionIndex": "0x0",
          "logIndex": "0x7",
          "removed": false
        }
      ],
      "logsBloom": "0x00000000000000000000000000000000000000000000000000100000000000000000000000200000000400004000080000000010000000008000000000200000000000400000000000000008000000000000000000000000001000000000000000000000020000000000000000000800000000000004000000000090000000000000000000000000000040000000000000000000400000000000800000000000020000400000000000000000000000000000000000000000000000000000000002000002000000000000000200000100000000000008000000100000000020000810000000000800000000000000000100000000000000000000000000000080",
      "type": "0x0",
      "transactionHash": "0xca6a61203bb030eab26c3f171376de62f13ebd5fd339831dea708ad9f4343edb",
      "transactionIndex": "0x0",
      "blockHash": "0x0004584e000015210db365d359e2eb27cc5fe752d9bacbd16888261fecf3b79c",
      "blockNumber": "0x4dff84e",
      "gasUsed": "0x324b6",
      "effectiveGasPrice": "0x2967b745f",
      "from": "0x2cd60849380319b59e180bc2137352c6df838a33",
      "to": "0xdcf998011dcaab9b8c1ea5b34f1b6c7baf59d4c0",
      "contractAddress": null
    }
  ],
  "libraries": [],
  "pending": [],
  "returns": {},
  "timestamp": 1716944531,
  "chain": 250,
  "commit": "c298ffb"
}