{
  "transactions": [
    {
      "hash": "0xa9ab0c0d87c6fee50b14ef29a5e3b3fc86a24522a1f37070d2a1db2cc7ae1a07",
      "transactionType": "CALL",
      "contractName": null,
      "contractAddress": "0x3a12188cb2e96b41dfb1d48cf3fde6ceca7dcfc1",
      "function": "addOrchestrator(address)",
      "arguments": [
        "0x8123268745B06abd40EC28afB346D8992345DF87"
      ],
      "transaction": {
        "from": "0x5cc11ef1de86c5e00259a463ac3f3ae1a0fa2909",
        "to": "0x3a12188cb2e96b41dfb1d48cf3fde6ceca7dcfc1",
        "gas": "0x102f6",
        "value": "0x0",
        "input": "0xea535e800000000000000000000000008123268745b06abd40ec28afb346d8992345df87",
        "nonce": "0x32",
        "chainId": "0xa"
      },
      "additionalContracts": [],
      "isFixedGasLimit": false
    }
  ],
  "receipts": [
    {
      "status": "0x1",
      "cumulativeGasUsed": "0x294a66",
      "logs": [
        {
          "address": "0x3a12188cb2e96b41dfb1d48cf3fde6ceca7dcfc1",
          "topics": [
            "0xe8634ee4705b838130ef5f5704acc336c6fd18a8bfe0430e9102ff6bcf9184d3",
            "0x0000000000000000000000008123268745b06abd40ec28afb346d8992345df87"
          ],
          "data": "0x",
          "blockHash": "0x8ef575d365bb36c469e86f17422ef80f84f3ab4bbae9607eea7a159e1d3caf0d",
          "blockNumber": "0x75629ad",
          "transactionHash": "0xa9ab0c0d87c6fee50b14ef29a5e3b3fc86a24522a1f37070d2a1db2cc7ae1a07",
          "transactionIndex": "0x14",
          "logIndex": "0x72",
          "removed": false
        }
      ],
      "logsBloom": "0x00000000000000000000001100000000000000000000000000002000000000000008000060000000000000000000000000000000000000000000000000000000000000000000000000000000000000000000000000000000000000000000000000000000000000000000000000000000000000000000000000000000000000000000000000000000000000000000000000000000000000000000000000000000000000000000000000000000000000000000000000000400000000000000000000000000000000000000000000000000000000000000000000000000000000000000000000002000000000000000000000000000000000000000000400000000",
      "type": "0x2",
      "transactionHash": "0xa9ab0c0d87c6fee50b14ef29a5e3b3fc86a24522a1f37070d2a1db2cc7ae1a07",
      "transactionIndex": "0x14",
      "blockHash": "0x8ef575d365bb36c469e86f17422ef80f84f3ab4bbae9607eea7a159e1d3caf0d",
      "blockNumber": "0x75629ad",
      "gasUsed": "0xbb7d",
      "effectiveGasPrice": "0x3a6d598",
      "from": "0x5cc11ef1de86c5e00259a463ac3f3ae1a0fa2909",
      "to": "0x3a12188cb2e96b41dfb1d48cf3fde6ceca7dcfc1",
      "contractAddress": null,
      "l1BaseFeeScalar": "0x146b",
      "l1BlobBaseFee": "0x1",
      "l1BlobBaseFeeScalar": "0xf79c5",
      "l1Fee": "0x91695939b",
      "l1GasPrice": "0x116316cfe",
      "l1GasUsed": "0x640"
    }
  ],
  "libraries": [],
  "pending": [],
  "returns": {},
  "timestamp": 1721773337,
  "chain": 10,
  "commit": "b45c618"
}