{
  "transactions": [
    {
      "hash": "0xeb5798ff0a86547d61347b56ba3a5ad9cc15cc393f4472df12152909410c65c8",
      "transactionType": "CALL",
      "contractName": null,
      "contractAddress": "0x3a12188cb2e96b41dfb1d48cf3fde6ceca7dcfc1",
      "function": "addOrchestrator(address)",
      "arguments": [
        "0x571b7A5EC0C203cBb125210AE702D51ef378c2a8"
      ],
      "transaction": {
        "from": "0x5cc11ef1de86c5e00259a463ac3f3ae1a0fa2909",
        "to": "0x3a12188cb2e96b41dfb1d48cf3fde6ceca7dcfc1",
        "gas": "0x102f6",
        "value": "0x0",
        "input": "0xea535e80000000000000000000000000571b7a5ec0c203cbb125210ae702d51ef378c2a8",
        "nonce": "0x30",
        "chainId": "0xa"
      },
      "additionalContracts": [],
      "isFixedGasLimit": false
    }
  ],
  "receipts": [
    {
      "status": "0x1",
      "cumulativeGasUsed": "0xfcf8e",
      "logs": [
        {
          "address": "0x3a12188cb2e96b41dfb1d48cf3fde6ceca7dcfc1",
          "topics": [
            "0xe8634ee4705b838130ef5f5704acc336c6fd18a8bfe0430e9102ff6bcf9184d3",
            "0x000000000000000000000000571b7a5ec0c203cbb125210ae702d51ef378c2a8"
          ],
          "data": "0x",
          "blockHash": "0x6152805312318ce61effc3eda7e1051330e6bd767dd603151c637c852e5c8bc5",
          "blockNumber": "0x7535b14",
          "transactionHash": "0xeb5798ff0a86547d61347b56ba3a5ad9cc15cc393f4472df12152909410c65c8",
          "transactionIndex": "0x6",
          "logIndex": "0x1b",
          "removed": false
        }
      ],
      "logsBloom": "0x00000000000000000000000100000000000000000000000000000000000000000048000020000000000000000000000000000000000000000000000000000000000000000000000000000000000000000000000000000000000000000000000000001000000000000000000000000000000000000000000000000000000000000000000000000000000000000000000000000000000000000000000000000000000000000000000000000080000000000000000000000400000000000000000000000000000000000000000000000000000000000000000000000000000000000000000000002000000000000000000000000000000000000000000400000000",
      "type": "0x2",
      "transactionHash": "0xeb5798ff0a86547d61347b56ba3a5ad9cc15cc393f4472df12152909410c65c8",
      "transactionIndex": "0x6",
      "blockHash": "0x6152805312318ce61effc3eda7e1051330e6bd767dd603151c637c852e5c8bc5",
      "blockNumber": "0x7535b14",
      "gasUsed": "0xbb7d",
      "effectiveGasPrice": "0x3b2636a",
      "from": "0x5cc11ef1de86c5e00259a463ac3f3ae1a0fa2909",
      "to": "0x3a12188cb2e96b41dfb1d48cf3fde6ceca7dcfc1",
      "contractAddress": null,
      "l1BaseFeeScalar": "0x146b",
      "l1BlobBaseFee": "0x1",
      "l1BlobBaseFeeScalar": "0xf79c5",
      "l1Fee": "0x148111f777",
      "l1GasPrice": "0x273a39316",
      "l1GasUsed": "0x640"
    }
  ],
  "libraries": [],
  "pending": [],
  "returns": {},
  "timestamp": 1721405415,
  "chain": 10,
  "commit": "b45c618"
}