{
  "transactions": [
    {
      "hash": "0x494662e475f713a25877e9892eb45e5f7db5b5dd8271c57a32ccee1d2ea8d9a1",
      "transactionType": "CALL",
      "contractName": null,
      "contractAddress": "0xe9e7cea3dedca5984780bafc599bd69add087d56",
      "function": "approve(address,uint256)",
      "arguments": [
        "0x3c774709b8D7395c1cf0A19850859eae8041Ee12",
        "200000000000000000000"
      ],
      "transaction": {
        "from": "0x2cd60849380319b59e180bc2137352c6df838a33",
        "to": "0xe9e7cea3dedca5984780bafc599bd69add087d56",
        "gas": "0xf94c",
        "value": "0x0",
        "input": "0x095ea7b30000000000000000000000003c774709b8d7395c1cf0a19850859eae8041ee1200000000000000000000000000000000000000000000000ad78ebc5ac6200000",
        "nonce": "0x3",
        "chainId": "0x38"
      },
      "additionalContracts": [],
      "isFixedGasLimit": false
    },
    {
      "hash": "0xad18797717df422630622defa61c8ff3fb842428a291b26745597d08775d1ce3",
      "transactionType": "CALL",
      "contractName": null,
      "contractAddress": "0x3c774709b8d7395c1cf0a19850859eae8041ee12",
      "function": "deposit(uint256,address)",
      "arguments": [
        "200000000000000000000",
        "0x2Cd60849380319b59e180BC2137352C6dF838A33"
      ],
      "transaction": {
        "from": "0x2cd60849380319b59e180bc2137352c6df838a33",
        "to": "0x3c774709b8d7395c1cf0a19850859eae8041ee12",
        "gas": "0x47edd",
        "value": "0x0",
        "input": "0x6e553f6500000000000000000000000000000000000000000000000ad78ebc5ac62000000000000000000000000000002cd60849380319b59e180bc2137352c6df838a33",
        "nonce": "0x4",
        "chainId": "0x38"
      },
      "additionalContracts": [],
      "isFixedGasLimit": false
    }
  ],
  "receipts": [
    {
      "status": "0x1",
      "cumulativeGasUsed": "0x13561ac",
      "logs": [
        {
          "address": "0xe9e7cea3dedca5984780bafc599bd69add087d56",
          "topics": [
            "0x8c5be1e5ebec7d5bd14f71427d1e84f3dd0314c0f7b2291e5b200ac8c7c3b925",
            "0x0000000000000000000000002cd60849380319b59e180bc2137352c6df838a33",
            "0x0000000000000000000000003c774709b8d7395c1cf0a19850859eae8041ee12"
          ],
          "data": "0x00000000000000000000000000000000000000000000000ad78ebc5ac6200000",
          "blockHash": "0xbb5400ad2bd8eb07af939611bfdfe812326851ded8bbe3305ac00bf9317a702b",
          "blockNumber": "0x2551b6d",
          "transactionHash": "0x494662e475f713a25877e9892eb45e5f7db5b5dd8271c57a32ccee1d2ea8d9a1",
          "transactionIndex": "0x63",
          "logIndex": "0x1d3",
          "removed": false
        }
      ],
      "logsBloom": "0x00000000000000100000000000000000000000000000000000000000000000000000000000000000000000000000000000000000000000000000000000200000000000000000020000000000000000000000000000000000000000000000000000000000000000000000000000000000000000000000000000000000000000000000000000000000000000000000000000000000000000000000800000000000020000000000000000000000000000000000000000000000000000000000000000000000000000020000000000001100000000000000000000000000000000000010001000000800000000000000000000000000000000000000000010000000",
      "type": "0x0",
      "transactionHash": "0x494662e475f713a25877e9892eb45e5f7db5b5dd8271c57a32ccee1d2ea8d9a1",
      "transactionIndex": "0x63",
      "blockHash": "0xbb5400ad2bd8eb07af939611bfdfe812326851ded8bbe3305ac00bf9317a702b",
      "blockNumber": "0x2551b6d",
      "gasUsed": "0xb47e",
      "effectiveGasPrice": "0x3b9aca00",
      "from": "0x2cd60849380319b59e180bc2137352c6df838a33",
      "to": "0xe9e7cea3dedca5984780bafc599bd69add087d56",
      "contractAddress": null
    },
    {
      "status": "0x1",
      "cumulativeGasUsed": "0x1b16fb6",
      "logs": [
        {
          "address": "0xe9e7cea3dedca5984780bafc599bd69add087d56",
          "topics": [
            "0xddf252ad1be2c89b69c2b068fc378daa952ba7f163c4a11628f55a4df523b3ef",
            "0x0000000000000000000000002cd60849380319b59e180bc2137352c6df838a33",
            "0x0000000000000000000000003c774709b8d7395c1cf0a19850859eae8041ee12"
          ],
          "data": "0x00000000000000000000000000000000000000000000000ad78ebc5ac6200000",
          "blockHash": "0x4e80dadca62fbb44a95eeb1a50853f451f4456c8474f71498c1055cc581d26f6",
          "blockNumber": "0x2551b6f",
          "transactionHash": "0xad18797717df422630622defa61c8ff3fb842428a291b26745597d08775d1ce3",
          "transactionIndex": "0xa0",
          "logIndex": "0x2e3",
          "removed": false
        },
        {
          "address": "0xe9e7cea3dedca5984780bafc599bd69add087d56",
          "topics": [
            "0x8c5be1e5ebec7d5bd14f71427d1e84f3dd0314c0f7b2291e5b200ac8c7c3b925",
            "0x0000000000000000000000002cd60849380319b59e180bc2137352c6df838a33",
            "0x0000000000000000000000003c774709b8d7395c1cf0a19850859eae8041ee12"
          ],
          "data": "0x0000000000000000000000000000000000000000000000000000000000000000",
          "blockHash": "0x4e80dadca62fbb44a95eeb1a50853f451f4456c8474f71498c1055cc581d26f6",
          "blockNumber": "0x2551b6f",
          "transactionHash": "0xad18797717df422630622defa61c8ff3fb842428a291b26745597d08775d1ce3",
          "transactionIndex": "0xa0",
          "logIndex": "0x2e4",
          "removed": false
        },
        {
          "address": "0x3c774709b8d7395c1cf0a19850859eae8041ee12",
          "topics": [
            "0xddf252ad1be2c89b69c2b068fc378daa952ba7f163c4a11628f55a4df523b3ef",
            "0x0000000000000000000000000000000000000000000000000000000000000000",
            "0x0000000000000000000000002cd60849380319b59e180bc2137352c6df838a33"
          ],
          "data": "0x00000000000000000000000000000000000000000000000ad78ebc5ac6200000",
          "blockHash": "0x4e80dadca62fbb44a95eeb1a50853f451f4456c8474f71498c1055cc581d26f6",
          "blockNumber": "0x2551b6f",
          "transactionHash": "0xad18797717df422630622defa61c8ff3fb842428a291b26745597d08775d1ce3",
          "transactionIndex": "0xa0",
          "logIndex": "0x2e5",
          "removed": false
        },
        {
          "address": "0x3c774709b8d7395c1cf0a19850859eae8041ee12",
          "topics": [
            "0xdcbc1c05240f31ff3ad067ef1ee35ce4997762752e3a095284754544f4c709d7",
            "0x0000000000000000000000002cd60849380319b59e180bc2137352c6df838a33",
            "0x0000000000000000000000002cd60849380319b59e180bc2137352c6df838a33"
          ],
          "data": "0x00000000000000000000000000000000000000000000000ad78ebc5ac620000000000000000000000000000000000000000000000000000ad78ebc5ac6200000",
          "blockHash": "0x4e80dadca62fbb44a95eeb1a50853f451f4456c8474f71498c1055cc581d26f6",
          "blockNumber": "0x2551b6f",
          "transactionHash": "0xad18797717df422630622defa61c8ff3fb842428a291b26745597d08775d1ce3",
          "transactionIndex": "0xa0",
          "logIndex": "0x2e6",
          "removed": false
        },
        {
          "address": "0xe9e7cea3dedca5984780bafc599bd69add087d56",
          "topics": [
            "0x8c5be1e5ebec7d5bd14f71427d1e84f3dd0314c0f7b2291e5b200ac8c7c3b925",
            "0x0000000000000000000000003c774709b8d7395c1cf0a19850859eae8041ee12",
            "0x000000000000000000000000f79c2054dcd781b19da5f58bb2f901db9c2bfabc"
          ],
          "data": "0x00000000000000000000000000000000000000000000000ad78ebc5ac6200000",
          "blockHash": "0x4e80dadca62fbb44a95eeb1a50853f451f4456c8474f71498c1055cc581d26f6",
          "blockNumber": "0x2551b6f",
          "transactionHash": "0xad18797717df422630622defa61c8ff3fb842428a291b26745597d08775d1ce3",
          "transactionIndex": "0xa0",
          "logIndex": "0x2e7",
          "removed": false
        },
        {
          "address": "0xe9e7cea3dedca5984780bafc599bd69add087d56",
          "topics": [
            "0xddf252ad1be2c89b69c2b068fc378daa952ba7f163c4a11628f55a4df523b3ef",
            "0x0000000000000000000000003c774709b8d7395c1cf0a19850859eae8041ee12",
            "0x000000000000000000000000f79c2054dcd781b19da5f58bb2f901db9c2bfabc"
          ],
          "data": "0x00000000000000000000000000000000000000000000000ad78ebc5ac6200000",
          "blockHash": "0x4e80dadca62fbb44a95eeb1a50853f451f4456c8474f71498c1055cc581d26f6",
          "blockNumber": "0x2551b6f",
          "transactionHash": "0xad18797717df422630622defa61c8ff3fb842428a291b26745597d08775d1ce3",
          "transactionIndex": "0xa0",
          "logIndex": "0x2e8",
          "removed": false
        },
        {
          "address": "0xe9e7cea3dedca5984780bafc599bd69add087d56",
          "topics": [
            "0x8c5be1e5ebec7d5bd14f71427d1e84f3dd0314c0f7b2291e5b200ac8c7c3b925",
            "0x0000000000000000000000003c774709b8d7395c1cf0a19850859eae8041ee12",
            "0x000000000000000000000000f79c2054dcd781b19da5f58bb2f901db9c2bfabc"
          ],
          "data": "0x0000000000000000000000000000000000000000000000000000000000000000",
          "blockHash": "0x4e80dadca62fbb44a95eeb1a50853f451f4456c8474f71498c1055cc581d26f6",
          "blockNumber": "0x2551b6f",
          "transactionHash": "0xad18797717df422630622defa61c8ff3fb842428a291b26745597d08775d1ce3",
          "transactionIndex": "0xa0",
          "logIndex": "0x2e9",
          "removed": false
        },
        {
          "address": "0xf79c2054dcd781b19da5f58bb2f901db9c2bfabc",
          "topics": [
            "0x5af417134f72a9d41143ace85b0a26dce6f550f894f2cbc1eeee8810603d91b6",
            "0x0000000000000000000000002cd60849380319b59e180bc2137352c6df838a33"
          ],
          "data": "0x00000000000000000000000000000000000000000000000ad78ebc5ac620000000000000000000000000000000000000000000000000000ad78ebc5ac6200000",
          "blockHash": "0x4e80dadca62fbb44a95eeb1a50853f451f4456c8474f71498c1055cc581d26f6",
          "blockNumber": "0x2551b6f",
          "transactionHash": "0xad18797717df422630622defa61c8ff3fb842428a291b26745597d08775d1ce3",
          "transactionIndex": "0xa0",
          "logIndex": "0x2ea",
          "removed": false
        }
      ],
      "logsBloom": "0x00000000000000100000000000000000000000000000000000000000000000000000880000000000000000000000000000000000000000008000000000300000000000400000020000000008000000000000000000000000000000000000000000000000020000000000000000000800000000000004000000000010000000000000000000000000000000000000000000000000000000040000800000000000020000000008000000004000002000000000000000000000000000001000000002000002000000020000000000001100000000000008000000000020000020000010001000000800000000000000000100000000000000000000000010000000",
      "type": "0x0",
      "transactionHash": "0xad18797717df422630622defa61c8ff3fb842428a291b26745597d08775d1ce3",
      "transactionIndex": "0xa0",
      "blockHash": "0x4e80dadca62fbb44a95eeb1a50853f451f4456c8474f71498c1055cc581d26f6",
      "blockNumber": "0x2551b6f",
      "gasUsed": "0x312eb",
      "effectiveGasPrice": "0x3b9aca00",
      "from": "0x2cd60849380319b59e180bc2137352c6df838a33",
      "to": "0x3c774709b8d7395c1cf0a19850859eae8041ee12",
      "contractAddress": null
    }
  ],
  "libraries": [],
  "pending": [],
  "returns": {},
  "timestamp": 1716944082,
  "chain": 56,
  "commit": "c298ffb"
}