{
  "transactions": [
    {
      "hash": "0xa3c2cdd694f08e9f30c7da32cdd9f487e698f84f966fd4dd83c81f93d2ebc276",
      "transactionType": "CALL",
      "contractName": null,
      "contractAddress": "0x92ca25e45a0dcb2c5df1ec17b687a0a009cb3e04",
      "function": "addOrchestrator(address)",
      "arguments": [
        "0xB4Ea547b917763A12e640eA52a77eaba81F2068a"
      ],
      "transaction": {
        "from": "0x5cc11ef1de86c5e00259a463ac3f3ae1a0fa2909",
        "to": "0x92ca25e45a0dcb2c5df1ec17b687a0a009cb3e04",
        "gas": "0x14136",
        "value": "0x0",
        "input": "0xea535e80000000000000000000000000b4ea547b917763a12e640ea52a77eaba81f2068a",
        "nonce": "0x27",
        "chainId": "0xa4b1"
      },
      "additionalContracts": [],
      "isFixedGasLimit": false
    }
  ],
  "receipts": [
    {
      "status": "0x1",
      "cumulativeGasUsed": "0x9e4074",
      "logs": [
        {
          "address": "0x92ca25e45a0dcb2c5df1ec17b687a0a009cb3e04",
          "topics": [
            "0xe8634ee4705b838130ef5f5704acc336c6fd18a8bfe0430e9102ff6bcf9184d3",
            "0x000000000000000000000000b4ea547b917763a12e640ea52a77eaba81f2068a"
          ],
          "data": "0x",
          "blockHash": "0x3f40ab31b8e082cfeb0d69649b2def480355cf40142ff69d5975929fa1c25505",
          "blockNumber": "0xcd014fd",
          "transactionHash": "0xa3c2cdd694f08e9f30c7da32cdd9f487e698f84f966fd4dd83c81f93d2ebc276",
          "transactionIndex": "0x31",
          "logIndex": "0xda",
          "removed": false
        }
      ],
      "logsBloom": "0x00000000000000000000000000400000000000000000000000000000000000000000000020000000000000000000000000000000000000000000000000000000000000200000000000000000000000000000000000000000000000000000000000020000000000000000000000000000000000000000000000000000000000000000000000040000000001000010000000000000000000000000000000000000000000000000000000000000000000000000000000000400000000000000000000000000000000000000000000000000000000000000000000000000000000000000000000000000000000000000000000000000000000000000000400000000",
      "type": "0x2",
      "transactionHash": "0xa3c2cdd694f08e9f30c7da32cdd9f487e698f84f966fd4dd83c81f93d2ebc276",
      "transactionIndex": "0x31",
      "blockHash": "0x3f40ab31b8e082cfeb0d69649b2def480355cf40142ff69d5975929fa1c25505",
      "blockNumber": "0xcd014fd",
      "gasUsed": "0xe819",
      "effectiveGasPrice": "0x989680",
      "from": "0x5cc11ef1de86c5e00259a463ac3f3ae1a0fa2909",
      "to": "0x92ca25e45a0dcb2c5df1ec17b687a0a009cb3e04",
      "contractAddress": null,
      "gasUsedForL1": "0x2c9c",
      "l1BlockNumber": "0x1306429"
    }
  ],
  "libraries": [],
  "pending": [],
  "returns": {},
  "timestamp": 1716660588,
  "chain": 42161,
  "commit": "c298ffb"
}