{
  "transactions": [
    {
      "hash": "0x377aff06d246a70e31a3639045904967c923c4fd0bab17ce90d004054992b637",
      "transactionType": "CALL",
      "contractName": null,
      "contractAddress": "0x92ca25e45a0dcb2c5df1ec17b687a0a009cb3e04",
      "function": "addOrchestrator(address)",
      "arguments": [
        "0x571b7A5EC0C203cBb125210AE702D51ef378c2a8"
      ],
      "transaction": {
        "from": "0x5cc11ef1de86c5e00259a463ac3f3ae1a0fa2909",
        "to": "0x92ca25e45a0dcb2c5df1ec17b687a0a009cb3e04",
        "gas": "0x133cc",
        "value": "0x0",
        "input": "0xea535e80000000000000000000000000571b7a5ec0c203cbb125210ae702d51ef378c2a8",
        "nonce": "0x2d",
        "chainId": "0xa4b1"
      },
      "additionalContracts": [],
      "isFixedGasLimit": false
    }
  ],
  "receipts": [
    {
      "status": "0x1",
      "cumulativeGasUsed": "0x77c06",
      "logs": [
        {
          "address": "0x92ca25e45a0dcb2c5df1ec17b687a0a009cb3e04",
          "topics": [
            "0xe8634ee4705b838130ef5f5704acc336c6fd18a8bfe0430e9102ff6bcf9184d3",
            "0x000000000000000000000000571b7a5ec0c203cbb125210ae702d51ef378c2a8"
          ],
          "data": "0x",
          "blockHash": "0x7dddd30d0be6a09d2d3c7095e6407e6e98d63f574b2ce7db4cc41cfd22b81f5a",
          "blockNumber": "0xdf0d959",
          "transactionHash": "0x377aff06d246a70e31a3639045904967c923c4fd0bab17ce90d004054992b637",
          "transactionIndex": "0x4",
          "logIndex": "0x4",
          "removed": false
        }
      ],
      "logsBloom": "0x00000000000000000000000000400000000000000000000000000000000000000040000020000000000000000000000000000000000000000000000000000000000000000000000000000000000000000000000000000000000000000000000000021000000000000000000000000000000000000000000000000000000000000000000000040000000000000000000000000000000000000000000000000000000000000000000000000080000000000000000000000400000000000000000000000000000000000000000000000000000000000000000000000000000000000000000000000000000000000000000000000000000000000000000400000000",
      "type": "0x2",
      "transactionHash": "0x377aff06d246a70e31a3639045904967c923c4fd0bab17ce90d004054992b637",
      "transactionIndex": "0x4",
      "blockHash": "0x7dddd30d0be6a09d2d3c7095e6407e6e98d63f574b2ce7db4cc41cfd22b81f5a",
      "blockNumber": "0xdf0d959",
      "gasUsed": "0xd9cc",
      "effectiveGasPrice": "0x3bf6190",
      "from": "0x5cc11ef1de86c5e00259a463ac3f3ae1a0fa2909",
      "to": "0x92ca25e45a0dcb2c5df1ec17b687a0a009cb3e04",
      "contractAddress": null,
      "gasUsedForL1": "0x1e4f",
      "l1BlockNumber": "0x13663b0"
    }
  ],
  "libraries": [],
  "pending": [],
  "returns": {},
  "timestamp": 1721405388,
  "chain": 42161,
  "commit": "b45c618"
}