{
  "transactions": [
    {
      "hash": "0x641afe7116924f5296e3c64c00e92a40cb49548d6d6229d0275bca465025d1b6",
      "transactionType": "CALL",
      "contractName": null,
      "contractAddress": "0x92ca25e45a0dcb2c5df1ec17b687a0a009cb3e04",
      "function": "addOrchestrator(address)",
      "arguments": [
        "0x8123268745B06abd40EC28afB346D8992345DF87"
      ],
      "transaction": {
        "from": "0x5cc11ef1de86c5e00259a463ac3f3ae1a0fa2909",
        "to": "0x92ca25e45a0dcb2c5df1ec17b687a0a009cb3e04",
        "gas": "0x17ecf",
        "value": "0x0",
        "input": "0xea535e800000000000000000000000008123268745b06abd40ec28afb346d8992345df87",
        "nonce": "0x2e",
        "chainId": "0xa4b1"
      },
      "additionalContracts": [],
      "isFixedGasLimit": false
    }
  ],
  "receipts": [
    {
      "status": "0x1",
      "cumulativeGasUsed": "0x1b7b9e",
      "logs": [
        {
          "address": "0x92ca25e45a0dcb2c5df1ec17b687a0a009cb3e04",
          "topics": [
            "0xe8634ee4705b838130ef5f5704acc336c6fd18a8bfe0430e9102ff6bcf9184d3",
            "0x0000000000000000000000008123268745b06abd40ec28afb346d8992345df87"
          ],
          "data": "0x",
          "blockHash": "0x62e7f00a2c43ce5c73eacebf36055d1dd9aeaa9499db1dd7fd4fcb1ac84b3ef3",
          "blockNumber": "0xe0738aa",
          "transactionHash": "0x641afe7116924f5296e3c64c00e92a40cb49548d6d6229d0275bca465025d1b6",
          "transactionIndex": "0x7",
          "logIndex": "0x13",
          "removed": false
        }
      ],
      "logsBloom": "0x00000000000000000000001000400000000000000000000000002000000000000000000060000000000000000000000000000000000000000000000000000000000000000000000000000000000000000000000000000000000000000000000000020000000000000000000000000000000000000000000000000000000000000000000000040000000000000000000000000000000000000000000000000000000000000000000000000000000000000000000000000400000000000000000000000000000000000000000000000000000000000000000000000000000000000000000000000000000000000000000000000000000000000000000400000000",
      "type": "0x2",
      "transactionHash": "0x641afe7116924f5296e3c64c00e92a40cb49548d6d6229d0275bca465025d1b6",
      "transactionIndex": "0x7",
      "blockHash": "0x62e7f00a2c43ce5c73eacebf36055d1dd9aeaa9499db1dd7fd4fcb1ac84b3ef3",
      "blockNumber": "0xe0738aa",
      "gasUsed": "0x108ff",
      "effectiveGasPrice": "0x989680",
      "from": "0x5cc11ef1de86c5e00259a463ac3f3ae1a0fa2909",
      "to": "0x92ca25e45a0dcb2c5df1ec17b687a0a009cb3e04",
      "contractAddress": null,
      "gasUsedForL1": "0x4d82",
      "l1BlockNumber": "0x136dad5"
    }
  ],
  "libraries": [],
  "pending": [],
  "returns": {},
  "timestamp": 1721773276,
  "chain": 42161,
  "commit": "b45c618"
}