{
  "transactions": [
    {
      "hash": "0x64a099236151a986ddcea64ac6d0d51b8ebee0f0da51a30f0005df8d85640df5",
      "transactionType": "CALL",
      "contractName": null,
      "contractAddress": "0xf79c2054dcd781b19da5f58bb2f901db9c2bfabc",
      "function": "addOrchestrator(address)",
      "arguments": [
        "0x8123268745B06abd40EC28afB346D8992345DF87"
      ],
      "transaction": {
        "from": "0x5cc11ef1de86c5e00259a463ac3f3ae1a0fa2909",
        "to": "0xf79c2054dcd781b19da5f58bb2f901db9c2bfabc",
        "gas": "0x11253",
        "value": "0x0",
        "input": "0xea535e800000000000000000000000008123268745b06abd40ec28afb346d8992345df87",
        "nonce": "0xd",
        "chainId": "0x38"
      },
      "additionalContracts": [],
      "isFixedGasLimit": false
    }
  ],
  "receipts": [
    {
      "status": "0x1",
      "cumulativeGasUsed": "0x1de591",
      "logs": [
        {
          "address": "0xf79c2054dcd781b19da5f58bb2f901db9c2bfabc",
          "topics": [
            "0xe8634ee4705b838130ef5f5704acc336c6fd18a8bfe0430e9102ff6bcf9184d3",
            "0x0000000000000000000000008123268745b06abd40ec28afb346d8992345df87"
          ],
          "data": "0x",
          "blockHash": "0x6fa42c5d6d8c2333516c98c2c7edf404d3b0cca3bbbac9f80c8d2cc948085b9c",
          "blockNumber": "0x26d945e",
          "transactionHash": "0x64a099236151a986ddcea64ac6d0d51b8ebee0f0da51a30f0005df8d85640df5",
          "transactionIndex": "0xe",
          "logIndex": "0x31",
          "removed": false
        }
      ],
      "logsBloom": "0x00000000000000000000001000000000000000000000000000002000000000000000800060000000000000000000000000000000000000000000000000000000000000000000000000000000000000000000000000000000000000000000000000000000000000000000000000000000000000000000000000000000000000000000000000000000000000000000000000000000000000040000000000000000000000000000000000000000002000000000000000000400000000000000000000000000000000000000000000000000000000000000000000000000000000000000000000000000000000000000000000000000000000000000000400000000",
      "type": "0x0",
      "transactionHash": "0x64a099236151a986ddcea64ac6d0d51b8ebee0f0da51a30f0005df8d85640df5",
      "transactionIndex": "0xe",
      "blockHash": "0x6fa42c5d6d8c2333516c98c2c7edf404d3b0cca3bbbac9f80c8d2cc948085b9c",
      "blockNumber": "0x26d945e",
      "gasUsed": "0xbb93",
      "effectiveGasPrice": "0x3b9aca00",
      "from": "0x5cc11ef1de86c5e00259a463ac3f3ae1a0fa2909",
      "to": "0xf79c2054dcd781b19da5f58bb2f901db9c2bfabc",
      "contractAddress": null
    }
  ],
  "libraries": [],
  "pending": [],
  "returns": {},
  "timestamp": 1721773153,
  "chain": 56,
  "commit": "b45c618"
}