{
  "transactions": [
    {
      "hash": "0xd5f7da727718722bbe9908a1d303e60d1431b1524d14d4a5a774930e9a960322",
      "transactionType": "CALL",
      "contractName": null,
      "contractAddress": "0xf79c2054dcd781b19da5f58bb2f901db9c2bfabc",
      "function": "addOrchestrator(address)",
      "arguments": [
        "0xB4Ea547b917763A12e640eA52a77eaba81F2068a"
      ],
      "transaction": {
        "from": "0x5cc11ef1de86c5e00259a463ac3f3ae1a0fa2909",
        "to": "0xf79c2054dcd781b19da5f58bb2f901db9c2bfabc",
        "gas": "0x11253",
        "value": "0x0",
        "input": "0xea535e80000000000000000000000000b4ea547b917763a12e640ea52a77eaba81f2068a",
        "nonce": "0xb",
        "chainId": "0x38"
      },
      "additionalContracts": [],
      "isFixedGasLimit": false
    }
  ],
  "receipts": [
    {
      "status": "0x1",
      "cumulativeGasUsed": "0x617655",
      "logs": [
        {
          "address": "0xf79c2054dcd781b19da5f58bb2f901db9c2bfabc",
          "topics": [
            "0xe8634ee4705b838130ef5f5704acc336c6fd18a8bfe0430e9102ff6bcf9184d3",
            "0x000000000000000000000000b4ea547b917763a12e640ea52a77eaba81f2068a"
          ],
          "data": "0x",
          "blockHash": "0x5c6777ae9ceaa2b1745b587a3145c126a418bef203eb43ca81e7731c05537340",
          "blockNumber": "0x2565d5a",
          "transactionHash": "0xd5f7da727718722bbe9908a1d303e60d1431b1524d14d4a5a774930e9a960322",
          "transactionIndex": "0x47",
          "logIndex": "0x94",
          "removed": false
        }
      ],
      "logsBloom": "0x00000000000000000000000000000000000000000000000000000000000000000000800020000000000000000000000000000000000000000000000000000000000000200000000000000000000000000000000000000000000000000000000000000000000000000000000000000000000000000000000000000000000000000000000000000000000001000010000000000000000000040000000000000000000000000000000000000000002000000000000000000400000000000000000000000000000000000000000000000000000000000000000000000000000000000000000000000000000000000000000000000000000000000000000400000000",
      "type": "0x0",
      "transactionHash": "0xd5f7da727718722bbe9908a1d303e60d1431b1524d14d4a5a774930e9a960322",
      "transactionIndex": "0x47",
      "blockHash": "0x5c6777ae9ceaa2b1745b587a3145c126a418bef203eb43ca81e7731c05537340",
      "blockNumber": "0x2565d5a",
      "gasUsed": "0xbb93",
      "effectiveGasPrice": "0x3b9aca00",
      "from": "0x5cc11ef1de86c5e00259a463ac3f3ae1a0fa2909",
      "to": "0xf79c2054dcd781b19da5f58bb2f901db9c2bfabc",
      "contractAddress": null
    }
  ],
  "libraries": [],
  "pending": [],
  "returns": {},
  "timestamp": 1717191983,
  "chain": 56,
  "commit": "c298ffb"
}