{
  "transactions": [
    {
      "hash": "0x7f89e812ddd755f039978a748d63ca2d8bb2ae1be25a4090d3dfe8bb829b8f71",
      "transactionType": "CALL",
      "contractName": null,
      "contractAddress": "0xb0a85008f742ecd73161c712e36d033452a72856",
      "function": "addOrchestrator(address)",
      "arguments": [
        "0xa50b4307ee0bc9b6586e3A52A75A22F199d12E57"
      ],
      "transaction": {
        "from": "0x5cc11ef1de86c5e00259a463ac3f3ae1a0fa2909",
        "to": "0xb0a85008f742ecd73161c712e36d033452a72856",
        "gas": "0x102f6",
        "value": "0x0",
        "input": "0xea535e80000000000000000000000000a50b4307ee0bc9b6586e3a52a75a22f199d12e57",
        "nonce": "0x2a8",
        "chainId": "0xa86a"
      },
      "additionalContracts": [],
      "isFixedGasLimit": false
    }
  ],
  "receipts": [
    {
      "status": "0x1",
      "cumulativeGasUsed": "0x15f8d",
      "logs": [
        {
          "address": "0xb0a85008f742ecd73161c712e36d033452a72856",
          "topics": [
            "0xe8634ee4705b838130ef5f5704acc336c6fd18a8bfe0430e9102ff6bcf9184d3",
            "0x000000000000000000000000a50b4307ee0bc9b6586e3a52a75a22f199d12e57"
          ],
          "data": "0x",
          "blockHash": "0x5a3a6f0b4322fa57d97e792143616095e6b64b7e855b42b819421d2fdec6e45b",
          "blockNumber": "0x2e58729",
          "transactionHash": "0x7f89e812ddd755f039978a748d63ca2d8bb2ae1be25a4090d3dfe8bb829b8f71",
          "transactionIndex": "0x2",
          "logIndex": "0x0",
          "removed": false
        }
      ],
      "logsBloom": "0x00000000000000000000000000000000000000000000000000000000000000000000000020000000000000000000000000000000000000000000000000000004000000000000000000000000000000000000000000000000000000000000000080000000000000000000000000000000000000000000000000000000000000000000000000000000000000000000000000000000000000000000000000000000000000000000000000010000000001000000000000000400000000000000000000000000000000000000000000000000000000000000000000000000000000000080800000000000000000000000000000000000000000000000000400000000",
      "type": "0x2",
      "transactionHash": "0x7f89e812ddd755f039978a748d63ca2d8bb2ae1be25a4090d3dfe8bb829b8f71",
      "transactionIndex": "0x2",
      "blockHash": "0x5a3a6f0b4322fa57d97e792143616095e6b64b7e855b42b819421d2fdec6e45b",
      "blockNumber": "0x2e58729",
      "gasUsed": "0xbb7d",
      "effectiveGasPrice": "0x62b85e900",
      "from": "0x5cc11ef1de86c5e00259a463ac3f3ae1a0fa2909",
      "to": "0xb0a85008f742ecd73161c712e36d033452a72856",
      "contractAddress": null
    }
  ],
  "libraries": [],
  "pending": [],
  "returns": {},
  "timestamp": 1722281118,
  "chain": 43114,
  "commit": "b45c618"
}