{
  "transactions": [
    {
      "hash": "0x9de9e33c6ed9dbecd8accc9dc92f0e79b23ecf4ffde94957f6a28d280876d690",
      "transactionType": "CALL",
      "contractName": null,
      "contractAddress": "0xb0a85008f742ecd73161c712e36d033452a72856",
      "function": "addOrchestrator(address)",
      "arguments": [
        "0xB4Ea547b917763A12e640eA52a77eaba81F2068a"
      ],
      "transaction": {
        "from": "0x5cc11ef1de86c5e00259a463ac3f3ae1a0fa2909",
        "to": "0xb0a85008f742ecd73161c712e36d033452a72856",
        "gas": "0x102f6",
        "value": "0x0",
        "input": "0xea535e80000000000000000000000000b4ea547b917763a12e640ea52a77eaba81f2068a",
        "nonce": "0x295",
        "chainId": "0xa86a"
      },
      "additionalContracts": [],
      "isFixedGasLimit": false
    }
  ],
  "receipts": [
    {
      "status": "0x1",
      "cumulativeGasUsed": "0x10d85",
      "logs": [
        {
          "address": "0xb0a85008f742ecd73161c712e36d033452a72856",
          "topics": [
            "0xe8634ee4705b838130ef5f5704acc336c6fd18a8bfe0430e9102ff6bcf9184d3",
            "0x000000000000000000000000b4ea547b917763a12e640ea52a77eaba81f2068a"
          ],
          "data": "0x",
          "blockHash": "0x39ee9abd2fd8c218acf0acc7fcd4452091b441649d98d13d582977ea1c906225",
          "blockNumber": "0x2bc3eff",
          "transactionHash": "0x9de9e33c6ed9dbecd8accc9dc92f0e79b23ecf4ffde94957f6a28d280876d690",
          "transactionIndex": "0x1",
          "logIndex": "0x0",
          "removed": false
        }
      ],
      "logsBloom": "0x00000000000000000000000000000000000000000000000000000000000000000000000020000000000000000000000000000000000000000000000000000000000000200000000000000000000000000000000000000000000000000000000080000000000000000000000000000000000000000000000000000000000000000000000000000000000001000010000000000000000000000000000000000000000000000000000000000000000001000000000000000400000000000000000000000000000000000000000000000000000000000000000000000000000000000080000000000000000000000000000000000000000000000000000400000000",
      "type": "0x2",
      "transactionHash": "0x9de9e33c6ed9dbecd8accc9dc92f0e79b23ecf4ffde94957f6a28d280876d690",
      "transactionIndex": "0x1",
      "blockHash": "0x39ee9abd2fd8c218acf0acc7fcd4452091b441649d98d13d582977ea1c906225",
      "blockNumber": "0x2bc3eff",
      "gasUsed": "0xbb7d",
      "effectiveGasPrice": "0x6ed3c283c",
      "from": "0x5cc11ef1de86c5e00259a463ac3f3ae1a0fa2909",
      "to": "0xb0a85008f742ecd73161c712e36d033452a72856",
      "contractAddress": null
    }
  ],
  "libraries": [],
  "pending": [],
  "returns": {},
  "timestamp": 1716660329,
  "chain": 43114,
  "commit": "c298ffb"
}