{
  "transactions": [
    {
      "hash": "0xaf25d534615ca9e5cdc917e8d7486d18685a538c52151263325c91d130316750",
      "transactionType": "CALL",
      "contractName": null,
      "contractAddress": "0xbd1b1e1f33f89d4becd0e5c6d3e88bd447992134",
      "function": "setRebalanceThreshold(uint256)",
      "arguments": [
        "75"
      ],
      "transaction": {
        "from": "0x5cc11ef1de86c5e00259a463ac3f3ae1a0fa2909",
        "to": "0xbd1b1e1f33f89d4becd0e5c6d3e88bd447992134",
        "gas": "0xd035",
        "value": "0x0",
        "input": "0x8f8b6515000000000000000000000000000000000000000000000000000000000000004b",
        "nonce": "0x1c",
        "chainId": "0xfa"
      },
      "additionalContracts": [],
      "isFixedGasLimit": false
    }
  ],
  "receipts": [
    {
      "status": "0x1",
      "cumulativeGasUsed": "0x9c7d",
      "logs": [],
      "logsBloom": "0x00000000000000000000000000000000000000000000000000000000000000000000000000000000000000000000000000000000000000000000000000000000000000000000000000000000000000000000000000000000000000000000000000000000000000000000000000000000000000000000000000000000000000000000000000000000000000000000000000000000000000000000000000000000000000000000000000000000000000000000000000000000000000000000000000000000000000000000000000000000000000000000000000000000000000000000000000000000000000000000000000000000000000000000000000000000",
      "type": "0x0",
      "transactionHash": "0xaf25d534615ca9e5cdc917e8d7486d18685a538c52151263325c91d130316750",
      "transactionIndex": "0x0",
      "blockHash": "0x00045850000008c4664ff2c5115d23461aeeba1b7ec2d7e03fd8167c64ea18a4",
      "blockNumber": "0x4dffa35",
      "gasUsed": "0x9c7d",
      "effectiveGasPrice": "0x293b50989",
      "from": "0x5cc11ef1de86c5e00259a463ac3f3ae1a0fa2909",
      "to": "0xbd1b1e1f33f89d4becd0e5c6d3e88bd447992134",
      "contractAddress": null
    }
  ],
  "libraries": [],
  "pending": [],
  "returns": {},
  "timestamp": 1716945197,
  "chain": 250,
  "commit": "c298ffb"
}