{
  "transactions": [
    {
      "hash": "0xdbec25a7b1d8b2752e0a4d7414ddf98fca0bb72d2cb68eb8030aec016ca3d804",
      "transactionType": "CALL",
      "contractName": null,
      "contractAddress": "0x69017caf9655c8d54cfbf6b030e3e2f02bab7268",
      "function": "setRebalanceThreshold(uint256)",
      "arguments": [
        "75"
      ],
      "transaction": {
        "from": "0x5cc11ef1de86c5e00259a463ac3f3ae1a0fa2909",
        "to": "0x69017caf9655c8d54cfbf6b030e3e2f02bab7268",
        "gas": "0xd035",
        "value": "0x0",
        "input": "0x8f8b6515000000000000000000000000000000000000000000000000000000000000004b",
        "nonce": "0x14",
        "chainId": "0x89"
      },
      "additionalContracts": [],
      "isFixedGasLimit": false
    }
  ],
  "receipts": [
    {
      "status": "0x1",
      "cumulativeGasUsed": "0xa4cde0",
      "logs": [
        {
          "address": "0x0000000000000000000000000000000000001010",
          "topics": [
            "0x4dfe1bbbcf077ddc3e01291eea2d5c70c2b422b415d95645b9adcfd678cb1d63",
            "0x0000000000000000000000000000000000000000000000000000000000001010",
            "0x0000000000000000000000005cc11ef1de86c5e00259a463ac3f3ae1a0fa2909",
            "0x000000000000000000000000ef46d5fe753c988606e6f703260d816af53b03eb"
          ],
          "data": "0x00000000000000000000000000000000000000000000000000041cec0941a800000000000000000000000000000000000000000000000000b07ca5cb280dc2d5000000000000000000000000000000000000000000000326147546c9088965da000000000000000000000000000000000000000000000000b07888df1ecc1ad5000000000000000000000000000000000000000000000326147963b511cb0dda",
          "blockHash": "0x198e480e34c36d43ce8a24299e39b63b8dfb8378a695d3aa34e2fcf1987da424",
          "blockNumber": "0x36d870d",
          "transactionHash": "0xdbec25a7b1d8b2752e0a4d7414ddf98fca0bb72d2cb68eb8030aec016ca3d804",
          "transactionIndex": "0x62",
          "logIndex": "0x163",
          "removed": false
        }
      ],
      "logsBloom": "0x00000000000000000000000000000000000000000000000000000000040000000000000000000000000000000000000000008000000000000000000000000000000000000000000000000000000000800000000000000000000100000000000000000000000000000000000000000000002000000000000080000000000000000000000000000000000000000000000000000000000000000000000000000000200000000000000000000000100000000000000000000000000000200000004000000000000000000001000000000000000000000000000000100000000000000000000000000000000000200000000002000000000000000000000000100000",
      "type": "0x2",
      "transactionHash": "0xdbec25a7b1d8b2752e0a4d7414ddf98fca0bb72d2cb68eb8030aec016ca3d804",
      "transactionIndex": "0x62",
      "blockHash": "0x198e480e34c36d43ce8a24299e39b63b8dfb8378a695d3aa34e2fcf1987da424",
      "blockNumber": "0x36d870d",
      "gasUsed": "0x96be",
      "effectiveGasPrice": "0x6fc23ac2e",
      "from": "0x5cc11ef1de86c5e00259a463ac3f3ae1a0fa2909",
      "to": "0x69017caf9655c8d54cfbf6b030e3e2f02bab7268",
      "contractAddress": null
    }
  ],
  "libraries": [],
  "pending": [],
  "returns": {},
  "timestamp": 1716945165,
  "chain": 137,
  "commit": "c298ffb"
}