{
  "transactions": [
    {
      "hash": "0xf1363828d483a07e9aec9388dd2640c5bdb989312fabf2b35b6f4168db6c0e12",
      "transactionType": "CALL",
      "contractName": null,
      "contractAddress": "0xdc1a992a5200f28b06e56cfe79a6ca12f3a02bde",
      "function": "addOrchestrator(address)",
      "arguments": [
        "0x5975fBa1186116168C479bb21Bb335f02D504CFB"
      ],
      "transaction": {
        "from": "0x5cc11ef1de86c5e00259a463ac3f3ae1a0fa2909",
        "to": "0xdc1a992a5200f28b06e56cfe79a6ca12f3a02bde",
        "gas": "0x27245",
        "value": "0x0",
        "input": "0xea535e800000000000000000000000005975fba1186116168c479bb21bb335f02d504cfb",
        "nonce": "0x1a",
        "chainId": "0xa4b1",
        "accessList": null,
        "type": null
      },
      "additionalContracts": [],
      "isFixedGasLimit": false
    }
  ],
  "receipts": [],
  "libraries": [],
  "pending": [
    "0xf1363828d483a07e9aec9388dd2640c5bdb989312fabf2b35b6f4168db6c0e12"
  ],
  "returns": {},
  "timestamp": 1715618501,
  "chain": 42161,
  "commit": "d4822f1"
}