{
  "transactions": [
    {
      "hash": "0x705acb2aae97f86da1e2d4cc5d75136d6464a110055c42f841dc76833cfaa572",
      "transactionType": "CALL",
      "contractName": null,
      "contractAddress": "0xf79c2054dcd781b19da5f58bb2f901db9c2bfabc",
      "function": "addOrchestrator(address)",
      "arguments": [
        "0x90B29aF53D2bBb878cAe1952B773A307330393ef"
      ],
      "transaction": {
        "from": "0x5cc11ef1de86c5e00259a463ac3f3ae1a0fa2909",
        "to": "0xf79c2054dcd781b19da5f58bb2f901db9c2bfabc",
        "gas": "0x132e8",
        "value": "0x0",
        "input": "0xea535e8000000000000000000000000090b29af53d2bbb878cae1952b773a307330393ef",
        "nonce": "0x8",
        "chainId": "0xa4b1",
        "accessList": null,
        "type": null
      },
      "additionalContracts": [],
      "isFixedGasLimit": false
    },
    {
      "hash": "0x2de8c9e1a5c045729068b795b0a7d0b0bf41c089e520d8d2d262e481c3355f4f",
      "transactionType": "CALL",
      "contractName": null,
      "contractAddress": "0xf79c2054dcd781b19da5f58bb2f901db9c2bfabc",
      "function": "addOrchestrator(address)",
      "arguments": [
        "0x7e5E0712c627746a918ae2015e5bfAB51c86dA26"
      ],
      "transaction": {
        "from": "0x5cc11ef1de86c5e00259a463ac3f3ae1a0fa2909",
        "to": "0xf79c2054dcd781b19da5f58bb2f901db9c2bfabc",
        "gas": "0x132e8",
        "value": "0x0",
        "input": "0xea535e800000000000000000000000007e5e0712c627746a918ae2015e5bfab51c86da26",
        "nonce": "0x9",
        "chainId": "0xa4b1",
        "accessList": null,
        "type": null
      },
      "additionalContracts": [],
      "isFixedGasLimit": false
    },
    {
      "hash": "0xcd34ebf8de5e339ac26ad370b7c7481f808fb9bfad4fba90d4abeff7b4133e5a",
      "transactionType": "CALL",
      "contractName": null,
      "contractAddress": "0xf79c2054dcd781b19da5f58bb2f901db9c2bfabc",
      "function": "addOrchestrator(address)",
      "arguments": [
        "0x5975fBa1186116168C479bb21Bb335f02D504CFB"
      ],
      "transaction": {
        "from": "0x5cc11ef1de86c5e00259a463ac3f3ae1a0fa2909",
        "to": "0xf79c2054dcd781b19da5f58bb2f901db9c2bfabc",
        "gas": "0x132e8",
        "value": "0x0",
        "input": "0xea535e800000000000000000000000005975fba1186116168c479bb21bb335f02d504cfb",
        "nonce": "0xa",
        "chainId": "0xa4b1",
        "accessList": null,
        "type": null
      },
      "additionalContracts": [],
      "isFixedGasLimit": false
    }
  ],
  "receipts": [
    {
      "status": "0x1",
      "cumulativeGasUsed": "0x7ac1d",
      "logs": [
        {
          "address": "0xf79c2054dcd781b19da5f58bb2f901db9c2bfabc",
          "topics": [
            "0xe8634ee4705b838130ef5f5704acc336c6fd18a8bfe0430e9102ff6bcf9184d3",
            "0x00000000000000000000000090b29af53d2bbb878cae1952b773a307330393ef"
          ],
          "data": "0x",
          "blockHash": "0xc313308f5420871b22ff12880f600298bde1b106f6ec4f77f5932b0d1338f05b",
          "blockNumber": "0xc7e5c7e",
          "transactionHash": "0x705acb2aae97f86da1e2d4cc5d75136d6464a110055c42f841dc76833cfaa572",
          "transactionIndex": "0x3",
          "logIndex": "0xd",
          "removed": false
        }
      ],
      "logsBloom": "0x00000000000000000000000000000000000000000000000000000000000000000000800020000000000000000000000000000000000000000000000000000000000000000000000000000000000000000000000000000000000000000000000000000000000000000000000000000000000000002080000000000000000000000000000000000000000000000000000000000000000000040000000000000000000000000000000000000000002000000000000000000400000000000000000000000000000000000000000000000000000000000000000000000000000000000000000008000000000000000000000000000000000000000000000400000000",
      "type": "0x2",
      "transactionHash": "0x705acb2aae97f86da1e2d4cc5d75136d6464a110055c42f841dc76833cfaa572",
      "transactionIndex": "0x3",
      "blockHash": "0xc313308f5420871b22ff12880f600298bde1b106f6ec4f77f5932b0d1338f05b",
      "blockNumber": "0xc7e5c7e",
      "gasUsed": "0xdfde",
      "effectiveGasPrice": "0x989680",
      "from": "0x5cc11ef1de86c5e00259a463ac3f3ae1a0fa2909",
      "to": "0xf79c2054dcd781b19da5f58bb2f901db9c2bfabc",
      "contractAddress": null,
      "gasUsedForL1": "0x245b",
      "l1BlockNumber": "0x12eaa69"
    },
    {
      "status": "0x1",
      "cumulativeGasUsed": "0xdfde",
      "logs": [
        {
          "address": "0xf79c2054dcd781b19da5f58bb2f901db9c2bfabc",
          "topics": [
            "0xe8634ee4705b838130ef5f5704acc336c6fd18a8bfe0430e9102ff6bcf9184d3",
            "0x0000000000000000000000007e5e0712c627746a918ae2015e5bfab51c86da26"
          ],
          "data": "0x",
          "blockHash": "0xaebae133e9b8e00b2f18c968b837c8ea4df513225cab1489a2287bf1920c5810",
          "blockNumber": "0xc7e5c80",
          "transactionHash": "0x2de8c9e1a5c045729068b795b0a7d0b0bf41c089e520d8d2d262e481c3355f4f",
          "transactionIndex": "0x1",
          "logIndex": "0x0",
          "removed": false
        }
      ],
      "logsBloom": "0x00000000000000000000000000000000000000000000000000000000000000000000800020000000000000000000000000000000000000000000000000000000000000000000000000000000000000000000000000000000000000000000000000000000000000000000000000000000000000000000000010000000001000000000000000000000000000000000000000000000000000040000000000000000000000000000000000000000002000000000000000000400100000000000000000000000000000000000000000000000000000000000000000000000000000000000000000000000000000000000000000000000000000000000000400000000",
      "type": "0x2",
      "transactionHash": "0x2de8c9e1a5c045729068b795b0a7d0b0bf41c089e520d8d2d262e481c3355f4f",
      "transactionIndex": "0x1",
      "blockHash": "0xaebae133e9b8e00b2f18c968b837c8ea4df513225cab1489a2287bf1920c5810",
      "blockNumber": "0xc7e5c80",
      "gasUsed": "0xdfde",
      "effectiveGasPrice": "0x989680",
      "from": "0x5cc11ef1de86c5e00259a463ac3f3ae1a0fa2909",
      "to": "0xf79c2054dcd781b19da5f58bb2f901db9c2bfabc",
      "contractAddress": null,
      "gasUsedForL1": "0x245b",
      "l1BlockNumber": "0x12eaa69"
    }
  ],
  "libraries": [],
  "pending": [
    "0xcd34ebf8de5e339ac26ad370b7c7481f808fb9bfad4fba90d4abeff7b4133e5a"
  ],
  "returns": {},
  "timestamp": 1715294081,
  "chain": 42161,
  "commit": "57d33b7"
}