{
  "transactions": [
    {
      "hash": "0xafb127501d494f4eb8c82795cfc1a64cc3fd62a202039dde83e815642602948e",
      "transactionType": "CALL",
      "contractName": null,
      "contractAddress": "0x92ca25e45a0dcb2c5df1ec17b687a0a009cb3e04",
      "function": "addOrchestrator(address)",
      "arguments": [
        "0x5975fBa1186116168C479bb21Bb335f02D504CFB"
      ],
      "transaction": {
        "from": "0x5cc11ef1de86c5e00259a463ac3f3ae1a0fa2909",
        "to": "0x92ca25e45a0dcb2c5df1ec17b687a0a009cb3e04",
        "gas": "0x2154e",
        "value": "0x0",
        "input": "0xea535e800000000000000000000000005975fba1186116168c479bb21bb335f02d504cfb",
        "nonce": "0x25",
        "chainId": "0xa4b1",
        "accessList": null,
        "type": null
      },
      "additionalContracts": [],
      "isFixedGasLimit": false
    }
  ],
  "receipts": [],
  "libraries": [],
  "pending": [
    "0xafb127501d494f4eb8c82795cfc1a64cc3fd62a202039dde83e815642602948e"
  ],
  "returns": {},
  "timestamp": 1716228767,
  "chain": 42161,
  "commit": "52ce322"
}