{
  "transactions": [
    {
      "hash": "0xdceea85b01a8f9a3992dabbcd08c2301eaaacb7423975f88569befc3368d2f37",
      "transactionType": "CALL",
      "contractName": null,
      "contractAddress": "0x69017caf9655c8d54cfbf6b030e3e2f02bab7268",
      "function": "addOrchestrator(address)",
      "arguments": [
        "0x8123268745B06abd40EC28afB346D8992345DF87"
      ],
      "transaction": {
        "from": "0x5cc11ef1de86c5e00259a463ac3f3ae1a0fa2909",
        "to": "0x69017caf9655c8d54cfbf6b030e3e2f02bab7268",
        "gas": "0x11253",
        "value": "0x0",
        "input": "0xea535e800000000000000000000000008123268745b06abd40ec28afb346d8992345df87",
        "nonce": "0x17",
        "chainId": "0x89"
      },
      "additionalContracts": [],
      "isFixedGasLimit": false
    }
  ],
  "receipts": [
    {
      "status": "0x1",
      "cumulativeGasUsed": "0x6732e1",
      "logs": [
        {
          "address": "0x69017caf9655c8d54cfbf6b030e3e2f02bab7268",
          "topics": [
            "0xe8634ee4705b838130ef5f5704acc336c6fd18a8bfe0430e9102ff6bcf9184d3",
            "0x0000000000000000000000008123268745b06abd40ec28afb346d8992345df87"
          ],
          "data": "0x",
          "blockHash": "0xb605c44058bd16b4d6971b0ee13f61f39aab030ae38eeac956690e893b58b8e3",
          "blockNumber": "0x38f5dda",
          "transactionHash": "0xdceea85b01a8f9a3992dabbcd08c2301eaaacb7423975f88569befc3368d2f37",
          "transactionIndex": "0x2e",
          "logIndex": "0xd8",
          "removed": false
        },
        {
          "address": "0x0000000000000000000000000000000000001010",
          "topics": [
            "0x4dfe1bbbcf077ddc3e01291eea2d5c70c2b422b415d95645b9adcfd678cb1d63",
            "0x0000000000000000000000000000000000000000000000000000000000001010",
            "0x0000000000000000000000005cc11ef1de86c5e00259a463ac3f3ae1a0fa2909",
            "0x000000000000000000000000144aeae662aeb1f871ac217bb310d241c0f50590"
          ],
          "data": "0x000000000000000000000000000000000000000000000000000524bde2737ecc000000000000000000000000000000000000000000000000b06c14046a4b8e30000000000000000000000000000000000000000000000005738e252072c910c0000000000000000000000000000000000000000000000000b066ef4687d80f64000000000000000000000000000000000000000000000005739349de553c8f8c",
          "blockHash": "0xb605c44058bd16b4d6971b0ee13f61f39aab030ae38eeac956690e893b58b8e3",
          "blockNumber": "0x38f5dda",
          "transactionHash": "0xdceea85b01a8f9a3992dabbcd08c2301eaaacb7423975f88569befc3368d2f37",
          "transactionIndex": "0x2e",
          "logIndex": "0xd9",
          "removed": false
        }
      ],
      "logsBloom": "0x00000000000000000000001000000000000000000000020000002000000000000000000060000000000000000000000000008000000000000000000000000000000000000000000008000000000000800000000000000000000100000000000000000000000000000000000000000000002000000000000080000000000000000000000000008000000000000000000000000000000000000000000000000000200000000000000000200000100000000000000000000400000000000000004000000000000000000001000000000000000000020000000000100000000000000000000000000000000000200000000000000000000400000000000400100000",
      "type": "0x2",
      "transactionHash": "0xdceea85b01a8f9a3992dabbcd08c2301eaaacb7423975f88569befc3368d2f37",
      "transactionIndex": "0x2e",
      "blockHash": "0xb605c44058bd16b4d6971b0ee13f61f39aab030ae38eeac956690e893b58b8e3",
      "blockNumber": "0x38f5dda",
      "gasUsed": "0xbb93",
      "effectiveGasPrice": "0x705147da1",
      "from": "0x5cc11ef1de86c5e00259a463ac3f3ae1a0fa2909",
      "to": "0x69017caf9655c8d54cfbf6b030e3e2f02bab7268",
      "contractAddress": null
    }
  ],
  "libraries": [],
  "pending": [],
  "returns": {},
  "timestamp": 1721773184,
  "chain": 137,
  "commit": "b45c618"
}