{
  "transactions": [
    {
      "hash": "0xd07b451bae294c9f234a65031eb7a6d2d99905891dd72dd007463427ff573f0b",
      "transactionType": "CALL",
      "contractName": null,
      "contractAddress": "0x69017caf9655c8d54cfbf6b030e3e2f02bab7268",
      "function": "addOrchestrator(address)",
      "arguments": [
        "0xB4Ea547b917763A12e640eA52a77eaba81F2068a"
      ],
      "transaction": {
        "from": "0x5cc11ef1de86c5e00259a463ac3f3ae1a0fa2909",
        "to": "0x69017caf9655c8d54cfbf6b030e3e2f02bab7268",
        "gas": "0x11253",
        "value": "0x0",
        "input": "0xea535e80000000000000000000000000b4ea547b917763a12e640ea52a77eaba81f2068a",
        "nonce": "0x15",
        "chainId": "0x89"
      },
      "additionalContracts": [],
      "isFixedGasLimit": false
    }
  ],
  "receipts": [
    {
      "status": "0x1",
      "cumulativeGasUsed": "0x5a11ec",
      "logs": [
        {
          "address": "0x69017caf9655c8d54cfbf6b030e3e2f02bab7268",
          "topics": [
            "0xe8634ee4705b838130ef5f5704acc336c6fd18a8bfe0430e9102ff6bcf9184d3",
            "0x000000000000000000000000b4ea547b917763a12e640ea52a77eaba81f2068a"
          ],
          "data": "0x",
          "blockHash": "0x605dfd8a2633b4e394e8561f04f4b0386ebd97e20f1ff0a83f599e96a5d99902",
          "blockNumber": "0x36f3425",
          "transactionHash": "0xd07b451bae294c9f234a65031eb7a6d2d99905891dd72dd007463427ff573f0b",
          "transactionIndex": "0x32",
          "logIndex": "0xf8",
          "removed": false
        },
        {
          "address": "0x0000000000000000000000000000000000001010",
          "topics": [
            "0x4dfe1bbbcf077ddc3e01291eea2d5c70c2b422b415d95645b9adcfd678cb1d63",
            "0x0000000000000000000000000000000000000000000000000000000000001010",
            "0x0000000000000000000000005cc11ef1de86c5e00259a463ac3f3ae1a0fa2909",
            "0x0000000000000000000000001efecb61a2f80aa34d3b9218b564a64d05946290"
          ],
          "data": "0x00000000000000000000000000000000000000000000000000051e30d71fc400000000000000000000000000000000000000000000000000b07888df1eb104b1000000000000000000000000000000000000000000001c9b034837c0077be6aa000000000000000000000000000000000000000000000000b0736aae479140b1000000000000000000000000000000000000000000001c9b034d55f0de9baaaa",
          "blockHash": "0x605dfd8a2633b4e394e8561f04f4b0386ebd97e20f1ff0a83f599e96a5d99902",
          "blockNumber": "0x36f3425",
          "transactionHash": "0xd07b451bae294c9f234a65031eb7a6d2d99905891dd72dd007463427ff573f0b",
          "transactionIndex": "0x32",
          "logIndex": "0xf9",
          "removed": false
        }
      ],
      "logsBloom": "0x00000000000000000000000000000000000000000000000000000000000000000000000020000000000000000000000000008000000000000000000000000000200000200000000000000000000000800000000000000000000100000000000000000000000000000000000000000000002000000000000080000000000000000000000000000000000001000010000000000000000000000000000000000000200000000000000000200000100000000000000000000400000000000000004000000100000000000001000000000000000000020000000000100000000000002000000000000000000000200000000000000000000400000000000400100000",
      "type": "0x2",
      "transactionHash": "0xd07b451bae294c9f234a65031eb7a6d2d99905891dd72dd007463427ff573f0b",
      "transactionIndex": "0x32",
      "blockHash": "0x605dfd8a2633b4e394e8561f04f4b0386ebd97e20f1ff0a83f599e96a5d99902",
      "blockNumber": "0x36f3425",
      "gasUsed": "0xbb93",
      "effectiveGasPrice": "0x6fc23ac1b",
      "from": "0x5cc11ef1de86c5e00259a463ac3f3ae1a0fa2909",
      "to": "0x69017caf9655c8d54cfbf6b030e3e2f02bab7268",
      "contractAddress": null
    }
  ],
  "libraries": [],
  "pending": [],
  "returns": {},
  "timestamp": 1717192001,
  "chain": 137,
  "commit": "c298ffb"
}