{
  "transactions": [
    {
      "hash": "0xb3fa648dad3e4a47d3d770439cba31c30b0a2e972c65b6ca2d62a58de77e8b28",
      "transactionType": "CALL",
      "contractName": null,
      "contractAddress": "0x69017caf9655c8d54cfbf6b030e3e2f02bab7268",
      "function": "addOrchestrator(address)",
      "arguments": [
        "0x571b7A5EC0C203cBb125210AE702D51ef378c2a8"
      ],
      "transaction": {
        "from": "0x5cc11ef1de86c5e00259a463ac3f3ae1a0fa2909",
        "to": "0x69017caf9655c8d54cfbf6b030e3e2f02bab7268",
        "gas": "0x11253",
        "value": "0x0",
        "input": "0xea535e80000000000000000000000000571b7a5ec0c203cbb125210ae702d51ef378c2a8",
        "nonce": "0x16",
        "chainId": "0x89"
      },
      "additionalContracts": [],
      "isFixedGasLimit": false
    }
  ],
  "receipts": [
    {
      "status": "0x1",
      "cumulativeGasUsed": "0x7444c5",
      "logs": [
        {
          "address": "0x69017caf9655c8d54cfbf6b030e3e2f02bab7268",
          "topics": [
            "0xe8634ee4705b838130ef5f5704acc336c6fd18a8bfe0430e9102ff6bcf9184d3",
            "0x000000000000000000000000571b7a5ec0c203cbb125210ae702d51ef378c2a8"
          ],
          "data": "0x",
          "blockHash": "0x6c3cd6be6b76167f99c0a8d17f918bb86453b4042aaf266da6855b7690ad58ac",
          "blockNumber": "0x38cc230",
          "transactionHash": "0xb3fa648dad3e4a47d3d770439cba31c30b0a2e972c65b6ca2d62a58de77e8b28",
          "transactionIndex": "0x31",
          "logIndex": "0xfb",
          "removed": false
        },
        {
          "address": "0x0000000000000000000000000000000000001010",
          "topics": [
            "0x4dfe1bbbcf077ddc3e01291eea2d5c70c2b422b415d95645b9adcfd678cb1d63",
            "0x0000000000000000000000000000000000000000000000000000000000001010",
            "0x0000000000000000000000005cc11ef1de86c5e00259a463ac3f3ae1a0fa2909",
            "0x0000000000000000000000001b0840519a581f3779d0a10b77593d6d3894a76a"
          ],
          "data": "0x00000000000000000000000000000000000000000000000000051e30d71fc400000000000000000000000000000000000000000000000000b0736aae477d783000000000000000000000000000000000000000000000307384a35b2e7c23d234000000000000000000000000000000000000000000000000b06e4c7d705db43000000000000000000000000000000000000000000000307384a8795f53439634",
          "blockHash": "0x6c3cd6be6b76167f99c0a8d17f918bb86453b4042aaf266da6855b7690ad58ac",
          "blockNumber": "0x38cc230",
          "transactionHash": "0xb3fa648dad3e4a47d3d770439cba31c30b0a2e972c65b6ca2d62a58de77e8b28",
          "transactionIndex": "0x31",
          "logIndex": "0xfc",
          "removed": false
        }
      ],
      "logsBloom": "0x00000000000000000000000000020000000000000000000000000000000000000040000020000000000000000000000000008000000000000000000000000000000000000000000000000000000000800000000000000000000100000000000000001000000000000000000000000000002000000000000080000000000000000000000000008000000000000000000000000000000000000000000000000000200000000000000000200080100000000000000000000400000000000000004000000000000000000001000000000000000000020000000000100000000000000000000000000000000000300000000000000000000400000000000400100000",
      "type": "0x2",
      "transactionHash": "0xb3fa648dad3e4a47d3d770439cba31c30b0a2e972c65b6ca2d62a58de77e8b28",
      "transactionIndex": "0x31",
      "blockHash": "0x6c3cd6be6b76167f99c0a8d17f918bb86453b4042aaf266da6855b7690ad58ac",
      "blockNumber": "0x38cc230",
      "gasUsed": "0xbb93",
      "effectiveGasPrice": "0xa03fcae00",
      "from": "0x5cc11ef1de86c5e00259a463ac3f3ae1a0fa2909",
      "to": "0x69017caf9655c8d54cfbf6b030e3e2f02bab7268",
      "contractAddress": null
    }
  ],
  "libraries": [],
  "pending": [],
  "returns": {},
  "timestamp": 1721405240,
  "chain": 137,
  "commit": "b45c618"
}