{
  "transactions": [
    {
      "hash": "0xc5ce9f3c064eb98130eb6ae0c61847c46023fad638181b49d96e8b8b9abe0f57",
      "transactionType": "CALL",
      "contractName": null,
      "contractAddress": "0x2789e39123d8ac259d7d5b5f84384b3a17b9145a",
      "function": "addOrchestrator(address)",
      "arguments": [
        "0xB4Ea547b917763A12e640eA52a77eaba81F2068a"
      ],
      "transaction": {
        "from": "0x5cc11ef1de86c5e00259a463ac3f3ae1a0fa2909",
        "to": "0x2789e39123d8ac259d7d5b5f84384b3a17b9145a",
        "gas": "0x102f6",
        "value": "0x0",
        "input": "0xea535e80000000000000000000000000b4ea547b917763a12e640ea52a77eaba81f2068a",
        "nonce": "0x47",
        "chainId": "0x2105"
      },
      "additionalContracts": [],
      "isFixedGasLimit": false
    }
  ],
  "receipts": [
    {
      "status": "0x1",
      "cumulativeGasUsed": "0x12f1467",
      "logs": [
        {
          "address": "0x2789e39123d8ac259d7d5b5f84384b3a17b9145a",
          "topics": [
            "0xe8634ee4705b838130ef5f5704acc336c6fd18a8bfe0430e9102ff6bcf9184d3",
            "0x000000000000000000000000b4ea547b917763a12e640ea52a77eaba81f2068a"
          ],
          "data": "0x",
          "blockHash": "0xb8b4b17c48418027e84aebd29137249bbd71159233a966c4d68a7f746dd38008",
          "blockNumber": "0xe3e5a7",
          "transactionHash": "0xc5ce9f3c064eb98130eb6ae0c61847c46023fad638181b49d96e8b8b9abe0f57",
          "transactionIndex": "0x28",
          "logIndex": "0x20f",
          "removed": false
        }
      ],
      "logsBloom": "0x00000000000000000000000000000000000000000000000000000000000000000000000020000000000000000000000000000000000000000000000000000000000000200000000000080000000000000000000000000000000000000000000000000000000000000000000000000000000000000000000000000000000000000000000000000000000001100010000000000000000000000000000000000000000000000000000000000000000000000000000000000400000000000000000000000000000000000000000000000000000000000000000000000000000000000000800000000000000000000000000000000000000000000000000400000000",
      "type": "0x2",
      "transactionHash": "0xc5ce9f3c064eb98130eb6ae0c61847c46023fad638181b49d96e8b8b9abe0f57",
      "transactionIndex": "0x28",
      "blockHash": "0xb8b4b17c48418027e84aebd29137249bbd71159233a966c4d68a7f746dd38008",
      "blockNumber": "0xe3e5a7",
      "gasUsed": "0xbb7d",
      "effectiveGasPrice": "0x2ecb96e",
      "from": "0x5cc11ef1de86c5e00259a463ac3f3ae1a0fa2909",
      "to": "0x2789e39123d8ac259d7d5b5f84384b3a17b9145a",
      "contractAddress": null,
      "l1Fee": "0x29ef69e8e",
      "l1GasPrice": "0x11582a499",
      "l1GasUsed": "0x894"
    }
  ],
  "libraries": [],
  "pending": [],
  "returns": {},
  "timestamp": 1716660278,
  "chain": 8453,
  "commit": "c298ffb"
}