{
  "transactions": [
    {
      "hash": "0x4f98c38b00e0c64ba34692c7c7c277555d7d54fd1ab6c9cda17c3538cdc20c03",
      "transactionType": "CALL",
      "contractName": null,
      "contractAddress": "0x2789e39123d8ac259d7d5b5f84384b3a17b9145a",
      "function": "addOrchestrator(address)",
      "arguments": [
        "0x571b7A5EC0C203cBb125210AE702D51ef378c2a8"
      ],
      "transaction": {
        "from": "0x5cc11ef1de86c5e00259a463ac3f3ae1a0fa2909",
        "to": "0x2789e39123d8ac259d7d5b5f84384b3a17b9145a",
        "gas": "0x102f6",
        "value": "0x0",
        "input": "0xea535e80000000000000000000000000571b7a5ec0c203cbb125210ae702d51ef378c2a8",
        "nonce": "0x4a",
        "chainId": "0x2105"
      },
      "additionalContracts": [],
      "isFixedGasLimit": false
    }
  ],
  "receipts": [
    {
      "status": "0x1",
      "cumulativeGasUsed": "0xca7195",
      "logs": [
        {
          "address": "0x2789e39123d8ac259d7d5b5f84384b3a17b9145a",
          "topics": [
            "0xe8634ee4705b838130ef5f5704acc336c6fd18a8bfe0430e9102ff6bcf9184d3",
            "0x000000000000000000000000571b7a5ec0c203cbb125210ae702d51ef378c2a8"
          ],
          "data": "0x",
          "blockHash": "0xd157b3de27e9f042b46ed98c393790e7f8a54252d84b00f562a66b969fa9054d",
          "blockNumber": "0x108198e",
          "transactionHash": "0x4f98c38b00e0c64ba34692c7c7c277555d7d54fd1ab6c9cda17c3538cdc20c03",
          "transactionIndex": "0x59",
          "logIndex": "0x162",
          "removed": false
        }
      ],
      "logsBloom": "0x00000000000000000000000000000000000000000000000000000000000000000040000020000000000000000000000000000000000000000000000000000000000000000000000000080000000000000000000000000000000000000000000000001000000000000000000000000000000000000000000000000000000000000000000000000000000000100000000000000000000000000000000000000000000000000000000000000080000000000000000000000400000000000000000000000000000000000000000000000000000000000000000000000000000000000000800000000000000000000000000000000000000000000000000400000000",
      "type": "0x2",
      "transactionHash": "0x4f98c38b00e0c64ba34692c7c7c277555d7d54fd1ab6c9cda17c3538cdc20c03",
      "transactionIndex": "0x59",
      "blockHash": "0xd157b3de27e9f042b46ed98c393790e7f8a54252d84b00f562a66b969fa9054d",
      "blockNumber": "0x108198e",
      "gasUsed": "0xbb7d",
      "effectiveGasPrice": "0x157dff5",
      "from": "0x5cc11ef1de86c5e00259a463ac3f3ae1a0fa2909",
      "to": "0x2789e39123d8ac259d7d5b5f84384b3a17b9145a",
      "contractAddress": null,
      "l1BaseFeeScalar": "0x8dd",
      "l1BlobBaseFee": "0x1",
      "l1BlobBaseFeeScalar": "0x101c12",
      "l1Fee": "0x815888a86",
      "l1GasPrice": "0x23a0e7b1d",
      "l1GasUsed": "0x640"
    }
  ],
  "libraries": [],
  "pending": [],
  "returns": {},
  "timestamp": 1721405444,
  "chain": 8453,
  "commit": "b45c618"
}