{
  "transactions": [
    {
      "hash": "0x46890ff75d738bf2b31a30af36395eb5a453505d30608a7d22a1755f1ec0cc81",
      "transactionType": "CALL",
      "contractName": null,
      "contractAddress": "0x2789e39123d8ac259d7d5b5f84384b3a17b9145a",
      "function": "addOrchestrator(address)",
      "arguments": [
        "0x8123268745B06abd40EC28afB346D8992345DF87"
      ],
      "transaction": {
        "from": "0x5cc11ef1de86c5e00259a463ac3f3ae1a0fa2909",
        "to": "0x2789e39123d8ac259d7d5b5f84384b3a17b9145a",
        "gas": "0x102f6",
        "value": "0x0",
        "input": "0xea535e800000000000000000000000008123268745b06abd40ec28afb346d8992345df87",
        "nonce": "0x4b",
        "chainId": "0x2105"
      },
      "additionalContracts": [],
      "isFixedGasLimit": false
    }
  ],
  "receipts": [
    {
      "status": "0x1",
      "cumulativeGasUsed": "0x34084a",
      "logs": [
        {
          "address": "0x2789e39123d8ac259d7d5b5f84384b3a17b9145a",
          "topics": [
            "0xe8634ee4705b838130ef5f5704acc336c6fd18a8bfe0430e9102ff6bcf9184d3",
            "0x0000000000000000000000008123268745b06abd40ec28afb346d8992345df87"
          ],
          "data": "0x",
          "blockHash": "0xb80ea59ab307b7ee80f424e19d473942afcbb6b048625d5e7dc62403d3d7c760",
          "blockNumber": "0x10ae827",
          "transactionHash": "0x46890ff75d738bf2b31a30af36395eb5a453505d30608a7d22a1755f1ec0cc81",
          "transactionIndex": "0x18",
          "logIndex": "0x36",
          "removed": false
        }
      ],
      "logsBloom": "0x00000000000000000000001000000000000000000000000000002000000000000000000060000000000000000000000000000000000000000000000000000000000000000000000000080000000000000000000000000000000000000000000000000000000000000000000000000000000000000000000000000000000000000000000000000000000000100000000000000000000000000000000000000000000000000000000000000000000000000000000000000400000000000000000000000000000000000000000000000000000000000000000000000000000000000000800000000000000000000000000000000000000000000000000400000000",
      "type": "0x2",
      "transactionHash": "0x46890ff75d738bf2b31a30af36395eb5a453505d30608a7d22a1755f1ec0cc81",
      "transactionIndex": "0x18",
      "blockHash": "0xb80ea59ab307b7ee80f424e19d473942afcbb6b048625d5e7dc62403d3d7c760",
      "blockNumber": "0x10ae827",
      "gasUsed": "0xbb7d",
      "effectiveGasPrice": "0x137003a",
      "from": "0x5cc11ef1de86c5e00259a463ac3f3ae1a0fa2909",
      "to": "0x2789e39123d8ac259d7d5b5f84384b3a17b9145a",
      "contractAddress": null,
      "l1BaseFeeScalar": "0x8dd",
      "l1BlobBaseFee": "0x1",
      "l1BlobBaseFeeScalar": "0x101c12",
      "l1Fee": "0x39fe405f4",
      "l1GasPrice": "0xff96cfff",
      "l1GasUsed": "0x640"
    }
  ],
  "libraries": [],
  "pending": [],
  "returns": {},
  "timestamp": 1721773366,
  "chain": 8453,
  "commit": "b45c618"
}