{
  "transactions": [
    {
      "hash": "0xb076d737780bb9724f10183727546267b023eba366e55681def7fa03b43ae50c",
      "transactionType": "CALL",
      "contractName": null,
      "contractAddress": "0x92ca25e45a0dcb2c5df1ec17b687a0a009cb3e04",
      "function": "withdraw(uint256,address,address)",
      "arguments": [
        "200000000",
        "0x17cC1e3AF40C88B235d9837990B8ad4D7C06F5cc",
        "0x2Cd60849380319b59e180BC2137352C6dF838A33"
      ],
      "transaction": {
        "from": "0x2cd60849380319b59e180bc2137352c6df838a33",
        "to": "0x92ca25e45a0dcb2c5df1ec17b687a0a009cb3e04",
        "gas": "0x25884",
        "value": "0x0",
        "input": "0xb460af94000000000000000000000000000000000000000000000000000000000bebc20000000000000000000000000017cc1e3af40c88b235d9837990b8ad4d7c06f5cc0000000000000000000000002cd60849380319b59e180bc2137352c6df838a33",
        "nonce": "0x1e",
        "chainId": "0xa"
      },
      "additionalContracts": [],
      "isFixedGasLimit": false
    },
    {
      "hash": "0x164e35669afda23275960ce110be140d2e9be6a5892023a90a28fa26db4b6c49",
      "transactionType": "CALL",
      "contractName": null,
      "contractAddress": "0x3a12188cb2e96b41dfb1d48cf3fde6ceca7dcfc1",
      "function": "removeLiquiditySwap(address,uint256)",
      "arguments": [
        "0x5CC11Ef1DE86c5E00259a463Ac3F3AE1A0fA2909",
        "81768937"
      ],
      "transaction": {
        "from": "0x17cc1e3af40c88b235d9837990b8ad4d7c06f5cc",
        "to": "0x3a12188cb2e96b41dfb1d48cf3fde6ceca7dcfc1",
        "gas": "0x124d3",
        "value": "0x0",
        "input": "0xefc9e51f0000000000000000000000005cc11ef1de86c5e00259a463ac3f3ae1a0fa29090000000000000000000000000000000000000000000000000000000004dfb1e9",
        "nonce": "0x0",
        "chainId": "0xa"
      },
      "additionalContracts": [],
      "isFixedGasLimit": false
    },
    {
      "hash": "0xa97d8e148161fc574839d3410b52a7b165eb2484399e7f4f63328e68a846c9b6",
      "transactionType": "CREATE",
      "contractName": "GeniusVault",
      "contractAddress": "0x663264f051919b0eff44f50dd247ad911b055630",
      "function": null,
      "arguments": [
        "0x7F5c764cBc14f9669B88837ca1490cCa17c31607",
        "0x5CC11Ef1DE86c5E00259a463Ac3F3AE1A0fA2909"
      ],
      "transaction": {
        "from": "0x5cc11ef1de86c5e00259a463ac3f3ae1a0fa2909",
        "gas": "0x1c9ddd",
        "value": "0x0",
        "input": "0x610100604090808252346200055c57818162001d4d80380380916200002582856200057d565b8339810103126200055c576200003b81620005a1565b6200004a6020809301620005a1565b83516001600160a01b0392909190831690620000668362000561565b600a83526911d95b9a5d5cc81554d160b21b858401528551620000898162000561565b600481526319d554d160e21b86820152865163313ce56760e01b81528681600481875afa90811562000551576000916200050c575b5084516001600160401b039590868111620002fc5780620000e1600054620005b6565b92601f93848111620004b8575b508a908483116001146200044d5760009262000441575b50508160011b916000199060031b1c1916176000555b825190868211620002fc578190600194620001378654620005b6565b828111620003e9575b508a918311600114620003815760009262000375575b5050600019600383901b1c191690831b1782555b6080524660a0528651600091818354936200018585620005b6565b928383528a8301958b82821691826000146200035557505060011462000312575b50620001b5925003826200057d565b519020918651958601927f8b73c3c69bb8fe3d512ecc4cf759cc79239f7b179b0ffacaa9a75d522b39400f8452878701527fc89efdaa54c0f20c7adf612882df0950f5a951637e0307cdcb4c672f298b8bc660608701524660808701523060a087015260a0865260c086019386851090851117620002fc5784928488528651902060c05260e05216928315620002e5575050600680546001600160a01b031981168417909155925192167f8be0079c531659141344cd1fd0a4f28419497f9722a3daafe3b4186f6b6457e0600080a36007805460ff60a01b191690556117599081620005f4823960805181610c41015260a05181611047015260c0518161106e015260e05181818161063e015281816107660152818161097601528181610ae001528181610bdb01526114f00152f35b631e4fbdf760e01b8252600060c490910152602490fd5b634e487b7160e01b600052604160045260246000fd5b8a91506000805281600020906000915b8583106200033c575050620001b5935082010138620001a6565b80548388018501528694508c9390920191810162000322565b60ff19168852620001b595151560051b8501019250389150620001a69050565b01519050388062000156565b90859350601f19831691846000528b6000209260005b8d828210620003d25750508411620003b8575b505050811b0182556200016a565b015160001960f88460031b161c19169055388080620003aa565b838501518655899790950194938401930162000397565b90919250856000528a6000208380860160051c8201928d871062000437575b91869589929594930160051c01915b8281106200042757505062000140565b6000815586955088910162000417565b9250819262000408565b01519050388062000105565b60008080528c81209350601f198516905b8d828210620004a157505090846001959493921062000487575b505050811b016000556200011b565b015160001960f88460031b161c1916905538808062000478565b60018596829396860151815501950193016200045e565b909150600080528a6000208480850160051c8201928d861062000502575b9085949392910160051c01905b818110620004f25750620000ee565b60008155849350600101620004e3565b92508192620004d6565b8781813d831162000549575b6200052481836200057d565b810103126200054557519060ff8216820362000542575038620000be565b80fd5b5080fd5b503d62000518565b88513d6000823e3d90fd5b600080fd5b604081019081106001600160401b03821117620002fc57604052565b601f909101601f19168101906001600160401b03821190821017620002fc57604052565b51906001600160a01b03821682036200055c57565b90600182811c92168015620005e8575b6020831014620005d257565b634e487b7160e01b600052602260045260246000fd5b91607f1691620005c656fe6040608081526004908136101561001557600080fd5b600091823560e01c806301e1d11414610e7b57806306fdde0314610dd357806307a2d13a14610ba6578063095ea7b314610d655780630a28a47714610d4557806318160ddd14610d2657806323b872dd14610c65578063313ce56714610c275780633644e51514610c0a57806338d52e0f14610bc6578063402d267d146105465780634cdad50614610ba65780634fcc928a14610b7d5780636e553f6514610aa157806370a0823114610290578063715018a614610a445780637ecebe0014610a0c5780638da5cb5b146109e357806394bf804d1461094157806395d89b4114610862578063a9059cbb146107f0578063b3d7f6b9146107d0578063b460af94146106e6578063ba087652146105af578063c4d66de81461054b578063c63d75b614610546578063c6e6f5921461021e578063ce96cb771461050c578063d505accf146102cc578063d905777e14610290578063dd62ed3e14610248578063ef8b30f71461021e5763f2fde38b1461018c57600080fd5b3461021a57602036600319011261021a576101a5610f67565b906101ae610ff3565b6001600160a01b03918216928315610204575050600654826bffffffffffffffffffffffff60a01b821617600655167f8be0079c531659141344cd1fd0a4f28419497f9722a3daafe3b4186f6b6457e08380a380f35b51631e4fbdf760e01b8152908101849052602490fd5b8280fd5b509134610245576020366003190112610245575061023e60209235611278565b9051908152f35b80fd5b503461021a578160031936011261021a576020928291610266610f67565b61026e610f82565b6001600160a01b03918216845291865283832091168252845220549051908152f35b5050346102c85760203660031901126102c85760209181906001600160a01b036102b8610f67565b1681526003845220549051908152f35b5080fd5b509190346102c85760e03660031901126102c8576102e8610f67565b906102f1610f82565b91604435606435926084359260ff8416809403610508574285106104c557610317611042565b9560018060a01b038092169586895260209560058752848a209889549960018b01905585519285898501957f6e71edae12b1b97f4d1f60370fef10105fa2faae0126114a169c64845d6126c987528b89870152169a8b606086015288608086015260a085015260c084015260c0835260e0830167ffffffffffffffff94848210868311176104b1578188528451902061010085019261190160f01b8452610102860152610122850152604281526101608401948186109086111761049e57848752519020835261018082015260a4356101a082015260c4356101c0909101528780528490889060809060015afa1561049457865116968715158061048b575b156104595786977f8c5be1e5ebec7d5bd14f71427d1e84f3dd0314c0f7b2291e5b200ac8c7c3b9259596975283528087208688528352818188205551908152a380f35b83606492519162461bcd60e51b8352820152600e60248201526d24a72b20a624a22fa9a4a3a722a960911b6044820152fd5b50848814610416565b81513d88823e3d90fd5b634e487b7160e01b8c5260418d5260248cfd5b50634e487b7160e01b8c5260418d5260248cfd5b815162461bcd60e51b81526020818a0152601760248201527f5045524d49545f444541444c494e455f455850495245440000000000000000006044820152606490fd5b8680fd5b5050346102c85760203660031901126102c85760209161023e9082906001600160a01b03610538610f67565b16815260038552205461129a565b610f98565b50903461021a57602036600319011261021a57610566610f67565b9161056f610ff3565b6007549160ff8360a01c166105a25750506001600160a81b0319166001600160a01b0390911617600160a01b1760075580f35b516302ed543d60e51b8152fd5b508234610245576105bf36610fbe565b90926001600160a01b038281169392909133859003610699575b506105e38361129a565b95861561066857509282602097959261060a82610662976106058b98896115f9565b611231565b865191858352898301528316907ffbde797d201c681b91056529119e0b02407c7bb96a4a2c75c01fc9667232c8db873392a47f00000000000000000000000000000000000000000000000000000000000000006113b0565b51908152f35b606490602089519162461bcd60e51b8352820152600b60248201526a5a45524f5f41535345545360a81b6044820152fd5b8481528660205287812033825260205287808220548560001982036106c1575b5050506105d9565b6106ca9161101f565b91868152886020528181203382526020522055878781856106b9565b509190346102c8576106626020936106fd36610fbe565b9590919261073161070d856112d6565b809860018060a01b0393898583169687330361078a575b50505061060582886115f9565b85519084825287898301528316907ffbde797d201c681b91056529119e0b02407c7bb96a4a2c75c01fc9667232c8db873392a47f00000000000000000000000000000000000000000000000000000000000000006113b0565b878152828e528181203382528e528181205485600182016107ad575b5050610724565b6107b69161101f565b928882528e528181203382528e52205538898180856107a6565b509134610245576020366003190112610245575061023e602092356112b8565b5050346102c857806003193601126102c85760209161080d610f67565b82602435913384526003865281842061082784825461101f565b90556001600160a01b031680845260038652922080548201905582519081523390600080516020611704833981519152908590a35160018152f35b5050346102c857816003193601126102c85780519082600180549161088683610e98565b8086529282811690811561091957506001146108bd575b5050506108af826108b9940383610efc565b5191829182610f1e565b0390f35b94508085527fb10e2d527612073b26eecdfd717e6a320cf44b4afac2b0732d9fcbe2b7fa0cf65b828610610901575050506108af8260206108b9958201019461089d565b805460208787018101919091529095019481016108e4565b6108b99750869350602092506108af94915060ff191682840152151560051b8201019461089d565b503461021a578160031936011261021a57602092503590610662610963610f82565b9261096d816112b8565b9361099a8530337f0000000000000000000000000000000000000000000000000000000000000000611329565b6109a482826111e8565b835190858252828783015260018060a01b0316907fdcbc1c05240f31ff3ad067ef1ee35ce4997762752e3a095284754544f4c709d7853392a3836114a1565b5050346102c857816003193601126102c85760065490516001600160a01b039091168152602090f35b5050346102c85760203660031901126102c85760209181906001600160a01b03610a34610f67565b1681526005845220549051908152f35b8334610245578060031936011261024557610a5d610ff3565b600680546001600160a01b0319811690915581906001600160a01b03167f8be0079c531659141344cd1fd0a4f28419497f9722a3daafe3b4186f6b6457e08280a380f35b508234610245578260031936011261024557508035610abe610f82565b610ac782611278565b928315610b4c5750828261066292610b046020979530337f0000000000000000000000000000000000000000000000000000000000000000611329565b610b0e83826111e8565b845190828252838883015260018060a01b0316907fdcbc1c05240f31ff3ad067ef1ee35ce4997762752e3a095284754544f4c709d7863392a36114a1565b606490602086519162461bcd60e51b8352820152600b60248201526a5a45524f5f53484152455360a81b6044820152fd5b5050346102c857816003193601126102c85760075490516001600160a01b039091168152602090f35b509134610245576020366003190112610245575061023e6020923561129a565b5050346102c857816003193601126102c857517f00000000000000000000000000000000000000000000000000000000000000006001600160a01b03168152602090f35b5050346102c857816003193601126102c85760209061023e611042565b5050346102c857816003193601126102c8576020905160ff7f0000000000000000000000000000000000000000000000000000000000000000168152f35b50913461024557606036600319011261024557610c80610f67565b600080516020611704833981519152610c97610f82565b6001600160a01b0392831680855260208781528686203387528152868620549097919488936044359389938560018201610d03575b50505086885260038552828820610ce485825461101f565b9055169586815260038452208181540190558551908152a35160018152f35b610d0c9161101f565b90888a528652838920338a52865283892055388085610ccc565b5050346102c857816003193601126102c8576020906002549051908152f35b509134610245576020366003190112610245575061023e602092356112d6565b503461021a578160031936011261021a57602092610d81610f67565b918360243592839233825287528181209460018060a01b0316948582528752205582519081527f8c5be1e5ebec7d5bd14f71427d1e84f3dd0314c0f7b2291e5b200ac8c7c3b925843392a35160018152f35b5050346102c857816003193601126102c857805190828054610df481610e98565b808552916001918083169081156109195750600114610e1f575050506108af826108b9940383610efc565b80809650527f290decd9548b62a8d60345a988386fc84ba6bc95484008f6362f93160ef3e5635b828610610e63575050506108af8260206108b9958201019461089d565b80546020878701810191909152909501948101610e46565b5050346102c857816003193601126102c85760209061023e61142f565b90600182811c92168015610ec8575b6020831014610eb257565b634e487b7160e01b600052602260045260246000fd5b91607f1691610ea7565b67ffffffffffffffff8111610ee657604052565b634e487b7160e01b600052604160045260246000fd5b90601f8019910116810190811067ffffffffffffffff821117610ee657604052565b6020808252825181830181905290939260005b828110610f5357505060409293506000838284010152601f8019910116010190565b818101860151848201604001528501610f31565b600435906001600160a01b0382168203610f7d57565b600080fd5b602435906001600160a01b0382168203610f7d57565b34610f7d576020366003190112610f7d57610fb1610f67565b5060206040516000198152f35b6060906003190112610f7d57600435906001600160a01b03906024358281168103610f7d57916044359081168103610f7d5790565b6006546001600160a01b0316330361100757565b60405163118cdaa760e01b8152336004820152602490fd5b9190820391821161102c57565b634e487b7160e01b600052601160045260246000fd5b6000467f00000000000000000000000000000000000000000000000000000000000000000361109057507f000000000000000000000000000000000000000000000000000000000000000090565b604051815482916110a082610e98565b80825281602094858201946001908782821691826000146111ca575050600114611171575b506110d292500382610efc565b51902091604051918201927f8b73c3c69bb8fe3d512ecc4cf759cc79239f7b179b0ffacaa9a75d522b39400f845260408301527fc89efdaa54c0f20c7adf612882df0950f5a951637e0307cdcb4c672f298b8bc660608301524660808301523060a083015260a0825260c082019082821067ffffffffffffffff83111761115d575060405251902090565b634e487b7160e01b81526041600452602490fd5b87805286915087907f290decd9548b62a8d60345a988386fc84ba6bc95484008f6362f93160ef3e5635b8583106111b25750506110d29350820101386110c5565b8054838801850152869450889390920191810161119b565b60ff191688526110d295151560051b85010192503891506110c59050565b6002549082820180921161102c5760206000805160206117048339815191529160009360025560018060a01b0316938484526003825260408420818154019055604051908152a3565b90600080516020611704833981519152602060009360018060a01b031692838552600382526040852061126582825461101f565b90558060025403600255604051908152a3565b60025480611284575090565b906112979161129161142f565b916112f5565b90565b600254806112a6575090565b611297916112b261142f565b906112f5565b600254806112c4575090565b611297916112d061142f565b9061130b565b600254806112e2575090565b90611297916112ef61142f565b9161130b565b81600019048111820215830215610f7d57020490565b81600019048111820215830215610f7d570290808204910615150190565b9160008093602095606494604051946323b872dd60e01b865260018060a01b03809216600487015216602485015260448401525af13d15601f3d116001600051141617161561137457565b60405162461bcd60e51b81526020600482015260146024820152731514905394d1915497d19493d357d1905253115160621b6044820152606490fd5b60405163a9059cbb60e01b81526001600160a01b039092166004830152602482019290925260209160009160449183905af13d15601f3d11600160005114161716156113f857565b60405162461bcd60e51b815260206004820152600f60248201526e1514905394d1915497d19052531151608a1b6044820152606490fd5b60075460405163147e408f60e31b815290602090829060049082906001600160a01b03165afa90811561149557600091611467575090565b906020823d821161148d575b8161148060209383610efc565b8101031261024557505190565b3d9150611473565b6040513d6000823e3d90fd5b6007549160ff8360a01c16156115e757811580156115df575b6115c1575060405163095ea7b360e01b81526001600160a01b0392831660048201526024810182905260009290602081604481877f000000000000000000000000000000000000000000000000000000000000000087165af180156115b65761157b575b506007541690813b1561021a5760405163106b344d60e11b81523360048201526024810191909152919081908390604490829084905af190811561156f57506115645750565b61156d90610ed2565b565b604051903d90823e3d90fd5b6020813d82116115ae575b8161159360209383610efc565b810103126115aa57518015150361021a573861151e565b8380fd5b3d9150611586565b6040513d86823e3d90fd5b60449250604051916332b35d7960e01b835260048301526024820152fd5b5080156114ba565b6040516321c4e35760e21b8152600490fd5b9060075460ff8160a01c16156115e757821580156116fb575b6116dd5760405163147e408f60e31b81526001600160a01b03919091169190602081600481865afa908115611495576000916116ac575b50831161168e5750803b15610f7d5760405163f122865160e01b815233600482015260248101929092526000908290604490829084905af18015611495576115645750565b82604491604051916332b35d7960e01b835260048301526024820152fd5b906020823d82116116d5575b816116c560209383610efc565b8101031261024557505138611649565b3d91506116b8565b60448383604051916332b35d7960e01b835260048301526024820152fd5b50811561161256feddf252ad1be2c89b69c2b068fc378daa952ba7f163c4a11628f55a4df523b3efa2646970667358221220d08ab83ed2ca204cb51597c85642daf9a9497eca84c57f57cfcbbc71952f8eb764736f6c634300081400330000000000000000000000007f5c764cbc14f9669b88837ca1490cca17c316070000000000000000000000005cc11ef1de86c5e00259a463ac3f3ae1a0fa2909",
        "nonce": "0x6f",
        "chainId": "0xa"
      },
      "additionalContracts": [],
      "isFixedGasLimit": false
    },
    {
      "hash": "0xc2ab2f646e8b63caf8cf8ce149da8e64461d1efebff564842dd5f65ccc1ea804",
      "transactionType": "CREATE",
      "contractName": "GeniusPool",
      "contractAddress": "0xbfd68d694fac3aeeeee8131a7229367172cee326",
      "function": null,
      "arguments": [
        "0x7F5c764cBc14f9669B88837ca1490cCa17c31607",
        "0x5CC11Ef1DE86c5E00259a463Ac3F3AE1A0fA2909"
      ],
      "transaction": {
        "from": "0x5cc11ef1de86c5e00259a463ac3f3ae1a0fa2909",
        "gas": "0x18cbf2",
        "value": "0x0",
        "input": "0x60a03461019957601f61161238819003918201601f19168301916001600160401b0383118484101761019e578084926040948552833981010312610199576020610048826101b4565b916001600160a01b0391829161005e91016101b4565b1691821561018057600080546001600160a01b03198116851782556040519491908416907f8be0079c531659141344cd1fd0a4f28419497f9722a3daafe3b4186f6b6457e09080a3604b6009551690811561011857506080526000600355600160045560405161144990816101c98239608051818181610283015281816102e4015281816103f0015281816106320152818161072901528181610c7701528181610d9501528181610f820152818161115601526111e40152f35b62461bcd60e51b815260206004820152603360248201527f47656e6975735661756c743a20535441424c45434f494e20616464726573732060448201527f697320746865207a65726f2061646472657373000000000000000000000000006064820152608490fd5b604051631e4fbdf760e01b815260006004820152602490fd5b600080fd5b634e487b7160e01b600052604160045260246000fd5b51906001600160a01b03821682036101995756fe6080604081815260048036101561001557600080fd5b600092833560e01c90816301e1d11414610fc6575080631438b22814610f37578063158ef93e14610f1857806319c28b2014610e5e5780631c7cd5f014610d4457806320124bce14610d2557806320d6689a14610c2b5780633359888b14610c0c5780633dfe9f6a14610bed57806340a2feef14610b91578063411557d114610b6857806358287dbb14610820578063715018a6146107c357806371a97305146107935780637f36aaf6146106c35780638da5cb5b1461069b5780638f8b65151461066157806393a397761461061d578063a3f20478146105fe578063b187bd26146105e1578063c4d66de814610576578063d9c693cb14610555578063ea535e8014610464578063efc9e51f1461035c578063f1228651146101f857838163f2c39992146101d7575063f2fde38b1461014e57600080fd5b346101d35760203660031901126101d357610167610fe2565b9061017061107a565b6001600160a01b039182169283156101bd57505082546001600160a01b0319811683178455167f8be0079c531659141344cd1fd0a4f28419497f9722a3daafe3b4186f6b6457e08380a380f35b51631e4fbdf760e01b8152908101849052602490fd5b8280fd5b8083346101f557816003193601126101f5576101f161107a565b5580f35b50fd5b5090346101d357806003193601126101d357610212610fe2565b6024359061021e6110c9565b6002546001600160a01b0391908216330361034c57811693841561033e578215610330576005548311610330576008548084116102d6575050906102a8817ff960dbf9e5d0682f7a298ed974e33a28b4464914b7a2bfac12ae419a9afeb280949333907f0000000000000000000000000000000000000000000000000000000000000000166112df565b6102b06111c9565b6102bc816008546110a6565b6008556102c7611260565b8151908082526020820152a280f35b845163db42144d60e01b81527f0000000000000000000000000000000000000000000000000000000000000000939093166001600160a01b0316918301918252602082019390935260408101929092529081900360600190fd5b835163162908e360e11b8152fd5b8351637dbacad160e11b8152fd5b5050505163d083ef2d60e01b8152fd5b5090346101d357806003193601126101d357610376610fe2565b90602435916103836113c1565b61038b6110c9565b61039483611101565b6001600160a01b03908116938415610456576005546103bb6103b686836110a6565b6111b2565b1561042d57505091602091610415827f4edc5bc81b65d619ba4824f99ea3b13fa11b0c28adaf5344af0e9ce1d4aab4bd9533907f0000000000000000000000000000000000000000000000000000000000000000166112df565b61041d6111c9565b610425611260565b51908152a280f35b908360449261043f87600654926110a6565b91516360d3cb7360e11b8152928301526024820152fd5b8251637dbacad160e11b8152fd5b5090346101d35760203660031901126101d35761047f610fe2565b9161048861107a565b6001600160a01b0392831680855260016020528285205490939060ff1660028110156105425760011461052c578315610516578454168314610501575081835260016020528220600160ff198254161790557fe8634ee4705b838130ef5f5704acc336c6fd18a8bfe0430e9102ff6bcf9184d38280a280f35b82602492519163545fca8760e01b8352820152fd5b5082602492519163545fca8760e01b8352820152fd5b50826024925191630537eec560e41b8352820152fd5b634e487b7160e01b865260218352602486fd5b8382346105725781600319360112610572576001906101f161107a565b5080fd5b5091903461057257602036600319011261057257610592610fe2565b9061059b61107a565b6001600354146105d2575091819260018060a01b03166bffffffffffffffffffffffff60a01b600254161760025560016003555580f35b516302ed543d60e51b81528390fd5b50346101d357826003193601126101d35760209250549051908152f35b5050346105725781600319360112610572576020906008549051908152f35b505034610572578160031936011261057257517f00000000000000000000000000000000000000000000000000000000000000006001600160a01b03168152602090f35b8382346105725760203660031901126105725761067c61107a565b6106846110c9565b356009556106906111c9565b610698611260565b80f35b505034610572578160031936011261057257905490516001600160a01b039091168152602090f35b5082903461057257826003193601126105725780356106e0610ffd565b916106e96113c1565b6106f16110c9565b8115610785575091927f261ecd4cf67046c5e55a47455c465fa0168efdb56b839ef3dba0632c7d8dee40929061077f906107568330327f00000000000000000000000000000000000000000000000000000000000000006001600160a01b031661134b565b61075e6111c9565b610766611260565b5191825261ffff90921660208201529081906040820190565b0390a180f35b845163162908e360e11b8152fd5b50503461057257816003193601126105725760609060055490600754906008549181519384526020840152820152f35b833461081d578060031936011261081d576107dc61107a565b80546001600160a01b03198116825581906001600160a01b03167f8be0079c531659141344cd1fd0a4f28419497f9722a3daafe3b4186f6b6457e08280a380f35b80fd5b50829060a036600319011261057257610837610ffd565b6044359067ffffffffffffffff94858311610b415736602384011215610b4157828401359461086586611046565b966108728351988961100e565b868852602093848901956024968760059a8b1b83010191368311610b29578801905b828210610b4557505050606498893591838311610b415736602384011215610b415782890135926108c484611046565b936108d18851958661100e565b80855289898601918d1b83010191368311610b3d578a8a9101915b838310610b2d5750505050608435848111610b295736602382011215610b29578a818b0135958a61091c88611046565b976109298b51998a61100e565b8089528b8901931b84010192368411610b25578b8101925b848410610abd5750505050506109556113c1565b61095d6110c9565b883561096881611101565b8a546109776103b683836110a6565b15610a955750855b8351811015610a2e5786806001600160a01b0361099c8488611397565b51166109a88489611397565b51906109b4858b611397565b51918d83519301915af13d15610a29573d6109ce8161105e565b906109db8b51928361100e565b8152888b3d92013e5b156109f15760010161097f565b875162461bcd60e51b8152808c018a90526014818c015273115e1d195c9b985b0818d85b1b0819985a5b195960621b60448201528d90fd5b6109e4565b5092509250508681610a548a805490610a456111c9565b610a4d611260565b54906110a6565b036107855750925192835261ffff166020830152907fdeaf1140f5acc14c6f5b98663f3691b94d9fc8350180cd3feada1c02f47a6a0e90806040810161077f565b878a8c92610aa8604495600654926110a6565b92516360d3cb7360e11b815293840152820152fd5b8335838111610b2157820136604382011215610b2157808e8d92013590610aef610ae68361105e565b9351938461100e565b8183523660448383010111610b1d57918c8f8381969460448397018386013783010152815201930192610941565b8c80fd5b8a80fd5b8880fd5b8580fd5b82358152918101918a91016108ec565b8780fd5b8480fd5b81356001600160a01b0381168103610b64578152908701908701610894565b8680fd5b50503461057257816003193601126105725760025490516001600160a01b039091168152602090f35b50823461081d57602036600319011261081d576001600160a01b03610bb4610fe2565b168152600160205260ff8382205416916002831015610bda576020836001865191148152f35b634e487b7160e01b825260219052602490fd5b5050346105725781600319360112610572576020906009549051908152f35b5050346105725781600319360112610572576020906006549051908152f35b50919034610572578060031936011261057257610c46610fe2565b9060243591610c536110c9565b6002546001600160a01b03919082163303610d15578315610d0557610c9c843033857f00000000000000000000000000000000000000000000000000000000000000001661134b565b610ca46111c9565b600854848101809111610cf2577f5af417134f72a9d41143ace85b0a26dce6f550f894f2cbc1eeee8810603d91b694959650600855610ce1611260565b82519480865260208601521692a280f35b634e487b7160e01b865260118752602486fd5b825163162908e360e11b81528690fd5b825163d083ef2d60e01b81528690fd5b5050346105725781600319360112610572576020906007549051908152f35b5082903461057257606036600319011261057257610d60610fe2565b6001600160a01b03916024359083821690818303610b29578460443594610d856110c9565b16948515610e4f578415610e40577f00000000000000000000000000000000000000000000000000000000000000001691828103610e2a5750507f2eb220dd1845c208359466327811890cd9b7d73b101431c49fdc6f6dde480593939495610df484610e24933090339061134b565b610dfc6111c9565b610e04611260565b516001600160a01b03909216825260208201929092529081906040820190565b0390a280f35b875163961c9a4f60e01b81529182015260249150fd5b50865163162908e360e11b8152fd5b508651637dbacad160e11b8152fd5b50346101d35760203660031901126101d357610e78610fe2565b90610e8161107a565b328452600160205260ff83852054166002811015610f055715610ee257506001600160a01b03168083526001602052908220805460ff191690557ff43b5a4338c3885b9a0472860e7018779fb25c5852ad2fa47e6665a5cc0568088280a280f35b915163b9057a2960e01b81526001600160a01b0390911691810191909152602490fd5b634e487b7160e01b855260218252602485fd5b5050346105725781600319360112610572576020906003549051908152f35b50346101d35760203660031901126101d357803591610f546113c1565b610f5c6110c9565b610f6583611101565b600554610f756103b685836110a6565b15610fb75784610faf85337f00000000000000000000000000000000000000000000000000000000000000006001600160a01b03166112df565b6106906111c9565b61043f604494600654926110a6565b8490346105725781600319360112610572576020906005548152f35b600435906001600160a01b0382168203610ff857565b600080fd5b6024359061ffff82168203610ff857565b90601f8019910116810190811067ffffffffffffffff82111761103057604052565b634e487b7160e01b600052604160045260246000fd5b67ffffffffffffffff81116110305760051b60200190565b67ffffffffffffffff811161103057601f01601f191660200190565b6000546001600160a01b0316330361108e57565b60405163118cdaa760e01b8152336004820152602490fd5b919082039182116110b357565b634e487b7160e01b600052601160045260246000fd5b6001600454146110ef57600354156110dd57565b6040516321c4e35760e21b8152600490fd5b6040516313d0ff5960e31b8152600490fd5b801561118d5760055480821161113f575060075490818111611121575050565b604492506040519163a17e11d560e01b835260048301526024820152fd5b60405163db42144d60e01b81526001600160a01b037f000000000000000000000000000000000000000000000000000000000000000016600482015260248101929092526044820152606490fd5b60405163162908e360e11b8152600490fd5b818102929181159184041417156110b357565b60646111c36008546009549061119f565b04111590565b6040516370a0823160e01b81523060048201526020816024817f00000000000000000000000000000000000000000000000000000000000000006001600160a01b03165afa90811561125457600091611223575b50600555565b906020823d821161124c575b8161123c6020938361100e565b8101031261081d5750513861121d565b3d915061122f565b6040513d6000823e3d90fd5b600854600081156112c25750606461127a6009548361119f565b045b600091818111156112bb5761129192506110a6565b80600554116000146112b1576112a9816005546110a6565b600755600655565b6000600755600655565b5050611291565b61127c565b90816020910312610ff857518015158103610ff85790565b60405163a9059cbb60e01b81526001600160a01b039283166004820152602481019390935260209183916044918391600091165af18015611254576113215750565b6113419060203d8111611344575b611339818361100e565b8101906112c7565b50565b503d61132f565b6040516323b872dd60e01b81526001600160a01b03928316600482015292821660248401526044830193909352909160209183916064918391600091165af18015611254576113215750565b80518210156113ab5760209160051b010190565b634e487b7160e01b600052603260045260246000fd5b32600052600160205260ff6040600020541660028110156113fd576001036113e557565b60405163b9057a2960e01b8152326004820152602490fd5b634e487b7160e01b600052602160045260246000fdfea26469706673582212203bc6e77393aa962ff3cb486ea7d34c94b01da361cf80cd578635c0f06788ee3364736f6c634300081400330000000000000000000000007f5c764cbc14f9669b88837ca1490cca17c316070000000000000000000000005cc11ef1de86c5e00259a463ac3f3ae1a0fa2909",
        "nonce": "0x70",
        "chainId": "0xa"
      },
      "additionalContracts": [],
      "isFixedGasLimit": false
    },
    {
      "hash": "0x384c38ee13163750f0042a225d51fd4af643de99afabd3b0f589ca6bdb78698e",
      "transactionType": "CREATE",
      "contractName": "GeniusExecutor",
      "contractAddress": "0x6bc29542be0647646dc6cfb96850150f4ce2d45e",
      "function": null,
      "arguments": [
        "0x000000000022D473030F116dDEE9F6B43aC78BA3",
        "0xBFD68d694FaC3aEeEeE8131A7229367172cee326",
        "0x663264f051919B0eFF44F50Dd247Ad911b055630"
      ],
      "transaction": {
        "from": "0x5cc11ef1de86c5e00259a463ac3f3ae1a0fa2909",
        "gas": "0x1d93a3",
        "value": "0x0",
        "input": "0x6101008060405260608162001be280380380916200001e8285620001a9565b833981010312620001a457600460206200003883620001e3565b6200005360406200004b848701620001e3565b9501620001e3565b6001600160a01b03918216608052811660e05292831660c08190526040516349d1cbbb60e11b815292839182905afa908115620001985760009162000150575b5060a0526040516119e99081620001f98239608051818181610b65015281816114330152818161153c0152818161163d01526116ac015260a05181818161019f015281816103740152818161040801528181610471015281816104f401528181610705015281816108ac01528181610cc901528181610efc0152611944015260c0518181816103c40152818161074a015281816109550152610d5e015260e051818181610f82015281816110ab0152818161113101526119150152f35b6020813d82116200018f575b816200016b60209383620001a9565b810103126200018b57519182168203620001885750803862000093565b80fd5b5080fd5b3d91506200015c565b6040513d6000823e3d90fd5b600080fd5b601f909101601f19168101906001600160401b03821190821017620001cd57604052565b634e487b7160e01b600052604160045260246000fd5b51906001600160a01b0382168203620001a45756fe6080604052600436101561001257600080fd5b6000803560e01c8063283d7547146110da578063411557d1146110955780634438853b14610ecf578063512bc48b14610c4a57806363ceffd914610b945780636afdd85014610b4f57806373dd9d67146107795780637535d2461461073457806393a39776146106ef578063b7402f641461067a5763cf4bd6201461009657600080fd5b60031960e036820112610676576001600160401b0391600435838111610676576100c4903690600401611243565b602493919335858111610672576100df903690600401611243565b9060443587811161066e576100f8903690600401611243565b92909160643589811161066657610113903690600401611243565b999096816084351161066a57606090608435360301126106665760a43590811161066657610145903690600401611189565b959060c4356001600160a01b038116900361057b5783821480159061065c575b8015610642575b6106305788895b8781106105f457504781116105d657506040516370a0823160e01b8152306004820152966020886024817f00000000000000000000000000000000000000000000000000000000000000006001600160a01b03165afa9788156105cb578a98610593575b50906101ec9160c4359160843560040161140f565b875b6101fd60046084350180611273565b905081101561034b578a6102a960208a8461023761023261022360046084350180611273565b6001600160a01b0394916112a8565b6112ce565b168d610275610232888061026c8861026661025760046084350180611273565b6001600160a01b0395916112a8565b016112ce565b169889966113c1565b60405163095ea7b360e01b81526001600160a01b039091166004820152602481019390935291938492839182906044820190565b03925af1908115610340578b91610311575b50156102ca57506001016101ee565b6102e6610232836102e060046084350180611273565b906112a8565b604051631fc7681560e11b81526001600160a01b039190911660048201526024810191909152604490fd5b610333915060203d602011610339575b61032b8183611326565b810190611347565b386102bb565b503d610321565b6040513d8d823e3d90fd5b5061035895965088611820565b6040516370a0823160e01b8152306004820152906020826024817f00000000000000000000000000000000000000000000000000000000000000006001600160a01b03165afa801561058857839061054f575b6103b5925061139e565b60405163095ea7b360e01b81527f00000000000000000000000000000000000000000000000000000000000000006001600160a01b031660048201819052602482018390529060208180604481010381877f00000000000000000000000000000000000000000000000000000000000000006001600160a01b03165af1908115610544578491610525575b50156104dd57908183923b156104d9576040516301c7cd5f60e41b81526001600160a01b0360c435811660048301527f0000000000000000000000000000000000000000000000000000000000000000166024820152604481019290925282908290818381606481015b03925af180156104ce576104bb5750f35b6104c4906112e2565b6104cb5780f35b80fd5b6040513d84823e3d90fd5b5050fd5b604051631fc7681560e11b81526001600160a01b037f000000000000000000000000000000000000000000000000000000000000000016600482015260248101839052604490fd5b61053e915060203d6020116103395761032b8183611326565b84610440565b6040513d86823e3d90fd5b506020823d602011610580575b8161056960209383611326565b8101031261057b576103b591516103ab565b600080fd5b3d915061055c565b6040513d85823e3d90fd5b919097506020823d6020116105c3575b816105b060209383611326565b8101031261057b579051966101ec6101d7565b3d91506105a3565b6040513d8c823e3d90fd5b6044904760405191636be8f03f60e01b835260048301526024820152fd5b906106008289896113c1565b35810180911161061c5790600019811461061c57600101610173565b634e487b7160e01b8b52601160045260248bfd5b604051631dc0052360e11b8152600490fd5b5061065260843560040180611273565b90508b141561016c565b5085841415610165565b8780fd5b8880fd5b8580fd5b8380fd5b5080fd5b5060603660031901126104cb576001600160401b036004358181116106eb576106a7903690600401611243565b906024358381116106e7576106c0903690600401611243565b9060443594851161066e576106dc6106e4953690600401611243565b949093611820565b80f35b8480fd5b8280fd5b50346104cb57806003193601126104cb576040517f00000000000000000000000000000000000000000000000000000000000000006001600160a01b03168152602090f35b50346104cb57806003193601126104cb576040517f00000000000000000000000000000000000000000000000000000000000000006001600160a01b03168152602090f35b506003199060c0368301126104cb576001600160a01b0391600435808416900361057b576001600160401b03602435818111610672576107bd903690600401611189565b9290916064359181831161066e576060908360040193360301126106e7576084359081116106e75761080e92916107fb610814923690600401611189565b94906108056111b6565b9586918461140f565b80611273565b15610b3b57610822906112ce565b6040516370a0823160e01b8152306004820152906020826024818a85165afa918215610ad2578692610b07575b5060405163095ea7b360e01b8152600480356001600160a01b031690820152602481018390526020816044818a8c87165af1908115610afc578791610add575b50156102e65750506040516370a0823160e01b81523060048201527f0000000000000000000000000000000000000000000000000000000000000000861693602082602481885afa918215610ad2579086918293610a9b575b50819293816040519283928337810183815203906044356004355af161090c61135f565b5015610a79576040516370a0823160e01b815230600482015290602082602481875afa8015610a3a578590610a45575b610946925061139e565b60405163095ea7b360e01b81527f0000000000000000000000000000000000000000000000000000000000000000959095166001600160a01b038116600487015260248601829052909460208160448188885af1908115610a3a578591610a1b575b50156109f357938484953b156106e7576040516301c7cd5f60e41b81526001600160a01b039384166004820152939092166024840152604483015282908290818381606481016104aa565b604051631fc7681560e11b81526001600160a01b038416600482015260248101869052604490fd5b610a34915060203d6020116103395761032b8183611326565b386109a8565b6040513d87823e3d90fd5b506020823d602011610a71575b81610a5f60209383611326565b8101031261057b57610946915161093c565b3d9150610a52565b60448585604051916302d4964f60e11b83526004351660048301526024820152fd5b915091506020813d602011610aca575b81610ab860209383611326565b8101031261057b5751908590816108e8565b3d9150610aab565b6040513d88823e3d90fd5b610af6915060203d6020116103395761032b8183611326565b3861088f565b6040513d89823e3d90fd5b9091506020813d602011610b33575b81610b2360209383611326565b8101031261057b5751903861084f565b3d9150610b16565b634e487b7160e01b85526032600452602485fd5b50346104cb57806003193601126104cb576040517f00000000000000000000000000000000000000000000000000000000000000006001600160a01b03168152602090f35b5060031960c036820112610676576001600160401b0360043581811161067257610bc2903690600401611243565b60249291923582811161066e57610bdd903690600401611243565b9160443584811161066657610bf6903690600401611243565b95909460643597818911610c4657606090893603011261066a5760843590811161066a576106e497610c2f610c41923690600401611189565b90610c386111b6565b9260040161140f565b611820565b8980fd5b5060803660031901126104cb576001600160401b036004358181116106eb57610c77903690600401611243565b6024929192358281116106e757610c92903690600401611243565b93909260443590811161066e57610cad903690600401611243565b606435956001600160a01b0395929391868816880361066a57867f00000000000000000000000000000000000000000000000000000000000000001694604051926370a0823160e01b9586855230600486015260209889866024818c5afa958615610ec4578d96610e8f575b50610d249596611820565b6040519182523060048301528382602481865afa8015610afc578790610e5c575b610d4f925061139e565b60405163095ea7b360e01b81527f0000000000000000000000000000000000000000000000000000000000000000949094166001600160a01b038116600486015260248501829052909390929081816044818a875af1918215610afc578792610e3f575b505015610e135790849291813b15610672576040516301c7cd5f60e41b81526001600160a01b0395861660048201529416602485015260448401919091528290606490829084905af180156104ce57610e0a575080f35b6106e4906112e2565b604051631fc7681560e11b81526001600160a01b03919091166004820152602481019290925250604490fd5b610e559250803d106103395761032b8183611326565b3880610db3565b508382813d8311610e88575b610e728183611326565b81010312610e8457610d4f9151610d45565b8680fd5b503d610e68565b95508986813d8311610ebd575b610ea68183611326565b81010312610eb957610d24955195610d19565b8c80fd5b503d610e9c565b6040513d8f823e3d90fd5b50346104cb57610ede366111e0565b6040516370a0823160e01b8082523060048301526001600160a01b037f000000000000000000000000000000000000000000000000000000000000000081169792966020969295919493929087896024818d5afa988915610340578b9961105a575b508460649389969593610f529361140f565b610f5b816118fe565b89856040519687958694632d182be560e21b865260048601521660248401523060448401527f0000000000000000000000000000000000000000000000000000000000000000165af1908115610ad2578391611031575b509060246040518096819382523060048301525afa908115610544578491611001575b50610fe0925061139e565b80610fe9575080f35b602490604051906377388e0b60e01b82526004820152fd5b905082813d831161102a575b6110178183611326565b810103126106eb57610fe0915138610fd5565b503d61100d565b813d8311611053575b6110448183611326565b810103126106e7578138610fb2565b503d61103a565b9493919098508785813d831161108e575b6110758183611326565b8101031261108a579351979293909284610f40565b8a80fd5b503d61106b565b50346104cb57806003193601126104cb576040517f00000000000000000000000000000000000000000000000000000000000000006001600160a01b03168152602090f35b50346104cb578060206110fb60446110f1366111e0565b959291869261140f565b611104816118fe565b604051636e553f6560e01b815260048101919091526001600160a01b0392831660248201529384928391907f0000000000000000000000000000000000000000000000000000000000000000165af180156104ce57611161575080f35b602090813d8111611182575b6111778183611326565b810103126104cb5780f35b503d61116d565b9181601f8401121561057b578235916001600160401b03831161057b576020838186019501011161057b57565b60a435906001600160a01b038216820361057b57565b35906001600160a01b038216820361057b57565b6003199160808284011261057b57600435926024356001600160401b039182821161057b57606090828603011261057b576004019260443591821161057b5761122b91600401611189565b90916064356001600160a01b038116810361057b5790565b9181601f8401121561057b578235916001600160401b03831161057b576020808501948460051b01011161057b57565b903590601e198136030182121561057b57018035906001600160401b03821161057b57602001918160071b3603831361057b57565b91908110156112b85760071b0190565b634e487b7160e01b600052603260045260246000fd5b356001600160a01b038116810361057b5790565b6001600160401b0381116112f557604052565b634e487b7160e01b600052604160045260246000fd5b608081019081106001600160401b038211176112f557604052565b90601f801991011681019081106001600160401b038211176112f557604052565b9081602091031261057b5751801515810361057b5790565b3d15611399573d906001600160401b0382116112f5576040519161138d601f8201601f191660200184611326565b82523d6000602084013e565b606090565b919082039182116113ab57565b634e487b7160e01b600052601160045260246000fd5b91908110156112b85760051b0190565b359065ffffffffffff8216820361057b57565b6001600160401b0381116112f55760051b60200190565b80518210156112b85760209160051b010190565b9092939160208201611420816112ce565b306001600160a01b039091160361180e577f00000000000000000000000000000000000000000000000000000000000000006001600160a01b03163b1561057b57604051632a2d80d160e01b81526001600160a01b038716600482015260606024820152600095909260c4840192909190853536879003601e190181121561066a57860160208101946001600160401b03823511610c4657813560071b36038613610c46579189959391879593606060648801528135905260e486019490875b8135811061178857505050918060209492869461150360018060a01b03916111cc565b16608486015260408a013560a4860152848403600319016044860152818452858401378181018401869052601f01601f191601030181837f00000000000000000000000000000000000000000000000000000000000000006001600160a01b03165af1801561054457611775575b5061157c8180611273565b929050611588836113e4565b926115966040519485611326565b8084526115a5601f19916113e4565b01845b818110611746575050835b6115bd8380611273565b905081101561163757806115dc60206102666001946102e08880611273565b6115ed610232836102e08880611273565b604051916115fa8361130b565b60a085901b8590038a81168452306020850152908116604084015216606082015261162582876113fb565b5261163081866113fb565b50016115b3565b509350507f00000000000000000000000000000000000000000000000000000000000000006001600160a01b03163b156106765760405190630d58b1db60e01b825282826024810192602060048301528051809452602060448301910193835b8181106116f5575092935090915081900381837f00000000000000000000000000000000000000000000000000000000000000006001600160a01b03165af180156104ce576116e4575050565b6116ee82916112e2565b6104cb5750565b855180516001600160a01b0390811685526020808301518216818701526040808401518316908701526060928301519091169185019190915290950194879450869350608090920191600101611697565b6020906040516117558161130b565b8781528783820152876040820152876060820152828288010152016115a8565b611781909391936112e2565b9138611571565b9197509395509193909291906001600160a01b036117a5886111cc565b16815260208701356001600160a01b0381169081900361180a57602082015260019065ffffffffffff806117db60408b016113d1565b1660408301526117ed60608a016113d1565b166060820152608080910197019101908a969492889694926114e0565b8b80fd5b604051635461585f60e01b8152600490fd5b949093929360005b8181106118385750505050505050565b61184661023282848a6113c1565b6118518285886113c1565b3590878310156112b8578260051b860135601e198736030181121561057b578601918235906001600160401b03821161057b57602080940192823603841361057b5760009283926040958287519384928337810185815203925af16118b461135f565b50156118c4575050600101611828565b60649250519062461bcd60e51b825260048201526014602482015273115e1d195c9b985b0818d85b1b0819985a5b195960621b6044820152fd5b60405163095ea7b360e01b81526001600160a01b037f000000000000000000000000000000000000000000000000000000000000000081166004830152602482018390527f000000000000000000000000000000000000000000000000000000000000000016906020816044816000865af19081156119a757600091611989575b50156102e6575050565b6119a1915060203d81116103395761032b8183611326565b3861197f565b6040513d6000823e3d90fdfea2646970667358221220c81ce2aebb6a1713a6ecd5e199dc737965ca251d53234abcfd6dd236ac40d61864736f6c63430008140033000000000000000000000000000000000022d473030f116ddee9f6b43ac78ba3000000000000000000000000bfd68d694fac3aeeeee8131a7229367172cee326000000000000000000000000663264f051919b0eff44f50dd247ad911b055630",
        "nonce": "0x71",
        "chainId": "0xa"
      },
      "additionalContracts": [],
      "isFixedGasLimit": false
    },
    {
      "hash": "0x539a80853ee187fcca1d13f60995af7d9fc9db64cf684cd8bbbe268dcb843177",
      "transactionType": "CALL",
      "contractName": "GeniusPool",
      "contractAddress": "0xbfd68d694fac3aeeeee8131a7229367172cee326",
      "function": "initialize(address)",
      "arguments": [
        "0x663264f051919B0eFF44F50Dd247Ad911b055630"
      ],
      "transaction": {
        "from": "0x5cc11ef1de86c5e00259a463ac3f3ae1a0fa2909",
        "to": "0xbfd68d694fac3aeeeee8131a7229367172cee326",
        "gas": "0x172e6",
        "value": "0x0",
        "input": "0xc4d66de8000000000000000000000000663264f051919b0eff44f50dd247ad911b055630",
        "nonce": "0x72",
        "chainId": "0xa"
      },
      "additionalContracts": [],
      "isFixedGasLimit": false
    },
    {
      "hash": "0x5b243257ef08c121fcd674db6ee36e0c77257b662dc024fcb1b0be453b51d979",
      "transactionType": "CALL",
      "contractName": "GeniusVault",
      "contractAddress": "0x663264f051919b0eff44f50dd247ad911b055630",
      "function": "initialize(address)",
      "arguments": [
        "0xBFD68d694FaC3aEeEeE8131A7229367172cee326"
      ],
      "transaction": {
        "from": "0x5cc11ef1de86c5e00259a463ac3f3ae1a0fa2909",
        "to": "0x663264f051919b0eff44f50dd247ad911b055630",
        "gas": "0x109e9",
        "value": "0x0",
        "input": "0xc4d66de8000000000000000000000000bfd68d694fac3aeeeee8131a7229367172cee326",
        "nonce": "0x73",
        "chainId": "0xa"
      },
      "additionalContracts": [],
      "isFixedGasLimit": false
    },
    {
      "hash": "0x24770cd61a363ad027afae01967e8900ad2b9f5b5644b9efa75179003bb4a20e",
      "transactionType": "CALL",
      "contractName": "GeniusPool",
      "contractAddress": "0xbfd68d694fac3aeeeee8131a7229367172cee326",
      "function": "addOrchestrator(address)",
      "arguments": [
        "0x17cC1e3AF40C88B235d9837990B8ad4D7C06F5cc"
      ],
      "transaction": {
        "from": "0x5cc11ef1de86c5e00259a463ac3f3ae1a0fa2909",
        "to": "0xbfd68d694fac3aeeeee8131a7229367172cee326",
        "gas": "0x11253",
        "value": "0x0",
        "input": "0xea535e8000000000000000000000000017cc1e3af40c88b235d9837990b8ad4d7c06f5cc",
        "nonce": "0x74",
        "chainId": "0xa"
      },
      "additionalContracts": [],
      "isFixedGasLimit": false
    },
    {
      "hash": "0x190a67cdb22a4b2edf1f490bf9a4301f591f226bca19653b160a9c73ca67a069",
      "transactionType": "CALL",
      "contractName": "GeniusPool",
      "contractAddress": "0xbfd68d694fac3aeeeee8131a7229367172cee326",
      "function": "addOrchestrator(address)",
      "arguments": [
        "0x4102b4144e9EFb8Cb0D7dc4A3fD8E65E4A8b8fD0"
      ],
      "transaction": {
        "from": "0x5cc11ef1de86c5e00259a463ac3f3ae1a0fa2909",
        "to": "0xbfd68d694fac3aeeeee8131a7229367172cee326",
        "gas": "0x11253",
        "value": "0x0",
        "input": "0xea535e800000000000000000000000004102b4144e9efb8cb0d7dc4a3fd8e65e4a8b8fd0",
        "nonce": "0x75",
        "chainId": "0xa"
      },
      "additionalContracts": [],
      "isFixedGasLimit": false
    },
    {
      "hash": "0x008a091e61aef12b4b16270d78fc92d778f0616cce02aaa8fa11bdccadd37a15",
      "transactionType": "CALL",
      "contractName": "GeniusPool",
      "contractAddress": "0xbfd68d694fac3aeeeee8131a7229367172cee326",
      "function": "addOrchestrator(address)",
      "arguments": [
        "0x90B29aF53D2bBb878cAe1952B773A307330393ef"
      ],
      "transaction": {
        "from": "0x5cc11ef1de86c5e00259a463ac3f3ae1a0fa2909",
        "to": "0xbfd68d694fac3aeeeee8131a7229367172cee326",
        "gas": "0x11253",
        "value": "0x0",
        "input": "0xea535e8000000000000000000000000090b29af53d2bbb878cae1952b773a307330393ef",
        "nonce": "0x76",
        "chainId": "0xa"
      },
      "additionalContracts": [],
      "isFixedGasLimit": false
    },
    {
      "hash": "0x14e69cf457d00cc54387b08a697e32736ec251f12e3886766d1e63f5e222897e",
      "transactionType": "CALL",
      "contractName": "GeniusPool",
      "contractAddress": "0xbfd68d694fac3aeeeee8131a7229367172cee326",
      "function": "addOrchestrator(address)",
      "arguments": [
        "0x7e5E0712c627746a918ae2015e5bfAB51c86dA26"
      ],
      "transaction": {
        "from": "0x5cc11ef1de86c5e00259a463ac3f3ae1a0fa2909",
        "to": "0xbfd68d694fac3aeeeee8131a7229367172cee326",
        "gas": "0x11253",
        "value": "0x0",
        "input": "0xea535e800000000000000000000000007e5e0712c627746a918ae2015e5bfab51c86da26",
        "nonce": "0x77",
        "chainId": "0xa"
      },
      "additionalContracts": [],
      "isFixedGasLimit": false
    },
    {
      "hash": "0x662d8fe0c83967e52b59c7ae55e3abdbc24c46c773773cb53f8970e381193e86",
      "transactionType": "CALL",
      "contractName": "GeniusPool",
      "contractAddress": "0xbfd68d694fac3aeeeee8131a7229367172cee326",
      "function": "addOrchestrator(address)",
      "arguments": [
        "0x5975fBa1186116168C479bb21Bb335f02D504CFB"
      ],
      "transaction": {
        "from": "0x5cc11ef1de86c5e00259a463ac3f3ae1a0fa2909",
        "to": "0xbfd68d694fac3aeeeee8131a7229367172cee326",
        "gas": "0x11253",
        "value": "0x0",
        "input": "0xea535e800000000000000000000000005975fba1186116168c479bb21bb335f02d504cfb",
        "nonce": "0x78",
        "chainId": "0xa"
      },
      "additionalContracts": [],
      "isFixedGasLimit": false
    },
    {
      "hash": "0xeb332ae64d984639f1142d1172185d4f523c8cde4c23e7d0ef74724a4036340d",
      "transactionType": "CALL",
      "contractName": null,
      "contractAddress": "0x7f5c764cbc14f9669b88837ca1490cca17c31607",
      "function": "approve(address,uint256)",
      "arguments": [
        "0xBFD68d694FaC3aEeEeE8131A7229367172cee326",
        "281768937"
      ],
      "transaction": {
        "from": "0x17cc1e3af40c88b235d9837990b8ad4d7c06f5cc",
        "to": "0x7f5c764cbc14f9669b88837ca1490cca17c31607",
        "gas": "0x12f2a",
        "value": "0x0",
        "input": "0x095ea7b3000000000000000000000000bfd68d694fac3aeeeee8131a7229367172cee3260000000000000000000000000000000000000000000000000000000010cb73e9",
        "nonce": "0x1",
        "chainId": "0xa"
      },
      "additionalContracts": [],
      "isFixedGasLimit": false
    },
    {
      "hash": "0xc76b7ed9d6bf6e4635e1f4a2efa6be5ce520e98c3ef261037cd7c31da475c411",
      "transactionType": "CALL",
      "contractName": "GeniusPool",
      "contractAddress": "0xbfd68d694fac3aeeeee8131a7229367172cee326",
      "function": "addLiquiditySwap(address,address,uint256)",
      "arguments": [
        "0x5CC11Ef1DE86c5E00259a463Ac3F3AE1A0fA2909",
        "0x7F5c764cBc14f9669B88837ca1490cCa17c31607",
        "281768937"
      ],
      "transaction": {
        "from": "0x17cc1e3af40c88b235d9837990b8ad4d7c06f5cc",
        "to": "0xbfd68d694fac3aeeeee8131a7229367172cee326",
        "gas": "0x27523",
        "value": "0x0",
        "input": "0x1c7cd5f00000000000000000000000005cc11ef1de86c5e00259a463ac3f3ae1a0fa29090000000000000000000000007f5c764cbc14f9669b88837ca1490cca17c316070000000000000000000000000000000000000000000000000000000010cb73e9",
        "nonce": "0x2",
        "chainId": "0xa"
      },
      "additionalContracts": [],
      "isFixedGasLimit": false
    }
  ],
  "receipts": [
    {
      "status": "0x1",
      "cumulativeGasUsed": "0x615d6d",
      "logs": [
        {
          "address": "0x7f5c764cbc14f9669b88837ca1490cca17c31607",
          "topics": [
            "0xddf252ad1be2c89b69c2b068fc378daa952ba7f163c4a11628f55a4df523b3ef",
            "0x0000000000000000000000003a12188cb2e96b41dfb1d48cf3fde6ceca7dcfc1",
            "0x00000000000000000000000092ca25e45a0dcb2c5df1ec17b687a0a009cb3e04"
          ],
          "data": "0x000000000000000000000000000000000000000000000000000000000bebc200",
          "blockHash": "0x28705bad5860dcab40f5fbc9613c5467220a4d5a51640deac5a0eeabc4c7ecca",
          "blockNumber": "0x775adb7",
          "transactionHash": "0xb076d737780bb9724f10183727546267b023eba366e55681def7fa03b43ae50c",
          "transactionIndex": "0xf",
          "logIndex": "0x47",
          "removed": false
        },
        {
          "address": "0x3a12188cb2e96b41dfb1d48cf3fde6ceca7dcfc1",
          "topics": [
            "0xf960dbf9e5d0682f7a298ed974e33a28b4464914b7a2bfac12ae419a9afeb280",
            "0x0000000000000000000000002cd60849380319b59e180bc2137352c6df838a33"
          ],
          "data": "0x000000000000000000000000000000000000000000000000000000000bebc200000000000000000000000000000000000000000000000000000000000bebc200",
          "blockHash": "0x28705bad5860dcab40f5fbc9613c5467220a4d5a51640deac5a0eeabc4c7ecca",
          "blockNumber": "0x775adb7",
          "transactionHash": "0xb076d737780bb9724f10183727546267b023eba366e55681def7fa03b43ae50c",
          "transactionIndex": "0xf",
          "logIndex": "0x48",
          "removed": false
        },
        {
          "address": "0x92ca25e45a0dcb2c5df1ec17b687a0a009cb3e04",
          "topics": [
            "0xddf252ad1be2c89b69c2b068fc378daa952ba7f163c4a11628f55a4df523b3ef",
            "0x0000000000000000000000002cd60849380319b59e180bc2137352c6df838a33",
            "0x0000000000000000000000000000000000000000000000000000000000000000"
          ],
          "data": "0x000000000000000000000000000000000000000000000000000000000bebc200",
          "blockHash": "0x28705bad5860dcab40f5fbc9613c5467220a4d5a51640deac5a0eeabc4c7ecca",
          "blockNumber": "0x775adb7",
          "transactionHash": "0xb076d737780bb9724f10183727546267b023eba366e55681def7fa03b43ae50c",
          "transactionIndex": "0xf",
          "logIndex": "0x49",
          "removed": false
        },
        {
          "address": "0x92ca25e45a0dcb2c5df1ec17b687a0a009cb3e04",
          "topics": [
            "0xfbde797d201c681b91056529119e0b02407c7bb96a4a2c75c01fc9667232c8db",
            "0x0000000000000000000000002cd60849380319b59e180bc2137352c6df838a33",
            "0x00000000000000000000000017cc1e3af40c88b235d9837990b8ad4d7c06f5cc",
            "0x0000000000000000000000002cd60849380319b59e180bc2137352c6df838a33"
          ],
          "data": "0x000000000000000000000000000000000000000000000000000000000bebc200000000000000000000000000000000000000000000000000000000000bebc200",
          "blockHash": "0x28705bad5860dcab40f5fbc9613c5467220a4d5a51640deac5a0eeabc4c7ecca",
          "blockNumber": "0x775adb7",
          "transactionHash": "0xb076d737780bb9724f10183727546267b023eba366e55681def7fa03b43ae50c",
          "transactionIndex": "0xf",
          "logIndex": "0x4a",
          "removed": false
        },
        {
          "address": "0x7f5c764cbc14f9669b88837ca1490cca17c31607",
          "topics": [
            "0xddf252ad1be2c89b69c2b068fc378daa952ba7f163c4a11628f55a4df523b3ef",
            "0x00000000000000000000000092ca25e45a0dcb2c5df1ec17b687a0a009cb3e04",
            "0x00000000000000000000000017cc1e3af40c88b235d9837990b8ad4d7c06f5cc"
          ],
          "data": "0x000000000000000000000000000000000000000000000000000000000bebc200",
          "blockHash": "0x28705bad5860dcab40f5fbc9613c5467220a4d5a51640deac5a0eeabc4c7ecca",
          "blockNumber": "0x775adb7",
          "transactionHash": "0xb076d737780bb9724f10183727546267b023eba366e55681def7fa03b43ae50c",
          "transactionIndex": "0xf",
          "logIndex": "0x4b",
          "removed": false
        }
      ],
      "logsBloom": "0x00000000800000400000008100400000000000000000000000001000000000000808000000000000000000000000000000000040000000000000000080000020000000000000080000000008000000000004000000000000000000000000000000030000020000000000000000000800000000000000000000000010000000000000000000040000000000000000000000000000000000100000800000000000000000000000000000000000040000020000000000000000000000000000000000000002000000000000000000000100000000000000000000000000000030000000000000002810000000000000000000000000000000000000000000010000",
      "type": "0x2",
      "transactionHash": "0xb076d737780bb9724f10183727546267b023eba366e55681def7fa03b43ae50c",
      "transactionIndex": "0xf",
      "blockHash": "0x28705bad5860dcab40f5fbc9613c5467220a4d5a51640deac5a0eeabc4c7ecca",
      "blockNumber": "0x775adb7",
      "gasUsed": "0x1b2c4",
      "effectiveGasPrice": "0x2b4e156",
      "from": "0x2cd60849380319b59e180bc2137352c6df838a33",
      "to": "0x92ca25e45a0dcb2c5df1ec17b687a0a009cb3e04",
      "contractAddress": null,
      "l1BaseFeeScalar": "0x146b",
      "l1BlobBaseFee": "0x1",
      "l1BlobBaseFeeScalar": "0xf79c5",
      "l1Fee": "0xf8d8b4237",
      "l1GasPrice": "0x1ce5e31ff",
      "l1GasUsed": "0x66f"
    },
    {
      "status": "0x1",
      "cumulativeGasUsed": "0x132124",
      "logs": [
        {
          "address": "0x7f5c764cbc14f9669b88837ca1490cca17c31607",
          "topics": [
            "0xddf252ad1be2c89b69c2b068fc378daa952ba7f163c4a11628f55a4df523b3ef",
            "0x0000000000000000000000003a12188cb2e96b41dfb1d48cf3fde6ceca7dcfc1",
            "0x00000000000000000000000017cc1e3af40c88b235d9837990b8ad4d7c06f5cc"
          ],
          "data": "0x0000000000000000000000000000000000000000000000000000000004dfb1e9",
          "blockHash": "0x5337b515dbc80c01c99f1a4d024e2fb08ed1ecb6b7a29dad769d883946be4335",
          "blockNumber": "0x775adba",
          "transactionHash": "0x164e35669afda23275960ce110be140d2e9be6a5892023a90a28fa26db4b6c49",
          "transactionIndex": "0x6",
          "logIndex": "0x4",
          "removed": false
        },
        {
          "address": "0x3a12188cb2e96b41dfb1d48cf3fde6ceca7dcfc1",
          "topics": [
            "0x4edc5bc81b65d619ba4824f99ea3b13fa11b0c28adaf5344af0e9ce1d4aab4bd",
            "0x0000000000000000000000005cc11ef1de86c5e00259a463ac3f3ae1a0fa2909"
          ],
          "data": "0x0000000000000000000000000000000000000000000000000000000004dfb1e9",
          "blockHash": "0x5337b515dbc80c01c99f1a4d024e2fb08ed1ecb6b7a29dad769d883946be4335",
          "blockNumber": "0x775adba",
          "transactionHash": "0x164e35669afda23275960ce110be140d2e9be6a5892023a90a28fa26db4b6c49",
          "transactionIndex": "0x6",
          "logIndex": "0x5",
          "removed": false
        }
      ],
      "logsBloom": "0x00000000800000000000008100000040000000000000000000001000000000000808000000000000000000000000000000000040000000000002000000000000000000000000000000000008000000000004000000000000000000000000000000000000000000000000000000000000002000000000000000000010000000000000000000000000000000000000000000000000000000000000000000000000000000000000000000000000100000000000000000000000000000000000000000000002000000000000000000000000000000000000000000000000000010000000000000002010000000208000000000000000000000000000000000010000",
      "type": "0x2",
      "transactionHash": "0x164e35669afda23275960ce110be140d2e9be6a5892023a90a28fa26db4b6c49",
      "transactionIndex": "0x6",
      "blockHash": "0x5337b515dbc80c01c99f1a4d024e2fb08ed1ecb6b7a29dad769d883946be4335",
      "blockNumber": "0x775adba",
      "gasUsed": "0xd400",
      "effectiveGasPrice": "0x2b6a251",
      "from": "0x17cc1e3af40c88b235d9837990b8ad4d7c06f5cc",
      "to": "0x3a12188cb2e96b41dfb1d48cf3fde6ceca7dcfc1",
      "contractAddress": null,
      "l1BaseFeeScalar": "0x146b",
      "l1BlobBaseFee": "0x1",
      "l1BlobBaseFeeScalar": "0xf79c5",
      "l1Fee": "0xfd82b8589",
      "l1GasPrice": "0x1e5008d0e",
      "l1GasUsed": "0x640"
    },
    {
      "status": "0x1",
      "cumulativeGasUsed": "0x248489",
      "logs": [
        {
          "address": "0x663264f051919b0eff44f50dd247ad911b055630",
          "topics": [
            "0x8be0079c531659141344cd1fd0a4f28419497f9722a3daafe3b4186f6b6457e0",
            "0x0000000000000000000000000000000000000000000000000000000000000000",
            "0x0000000000000000000000005cc11ef1de86c5e00259a463ac3f3ae1a0fa2909"
          ],
          "data": "0x",
          "blockHash": "0xefdef5e840dd2e5c00502d63788f64960769f08d8e4d1b57981043f409f2624b",
          "blockNumber": "0x775adbe",
          "transactionHash": "0xa97d8e148161fc574839d3410b52a7b165eb2484399e7f4f63328e68a846c9b6",
          "transactionIndex": "0x4",
          "logIndex": "0x0",
          "removed": false
        }
      ],
      "logsBloom": "0x00000000000000000000000000000000000000000000000000800000000000000000000000000000000000000000000000000000000000000000000000000000000000000000000000000000000000000001000000000000000000000000000000000000020000000000000000000800002000000000000000000000000000400000000000000000000000000000000000000000000000000000000000000000000000000000000000000000100000000000000000000000000000000000000000000000000000000000100000000000000000000000000000000000000020000000000000000000000000200000000100000001000000000000000000000000",
      "type": "0x2",
      "transactionHash": "0xa97d8e148161fc574839d3410b52a7b165eb2484399e7f4f63328e68a846c9b6",
      "transactionIndex": "0x4",
      "blockHash": "0xefdef5e840dd2e5c00502d63788f64960769f08d8e4d1b57981043f409f2624b",
      "blockNumber": "0x775adbe",
      "gasUsed": "0x160522",
      "effectiveGasPrice": "0x2b4a2e2",
      "from": "0x5cc11ef1de86c5e00259a463ac3f3ae1a0fa2909",
      "to": null,
      "contractAddress": "0x663264f051919b0eff44f50dd247ad911b055630",
      "l1BaseFeeScalar": "0x146b",
      "l1BlobBaseFee": "0x1",
      "l1BlobBaseFeeScalar": "0xf79c5",
      "l1Fee": "0x2c57da16693",
      "l1GasPrice": "0x1e5008d0e",
      "l1GasUsed": "0x117dd"
    },
    {
      "status": "0x1",
      "cumulativeGasUsed": "0x4767bc",
      "logs": [
        {
          "address": "0xbfd68d694fac3aeeeee8131a7229367172cee326",
          "topics": [
            "0x8be0079c531659141344cd1fd0a4f28419497f9722a3daafe3b4186f6b6457e0",
            "0x0000000000000000000000000000000000000000000000000000000000000000",
            "0x0000000000000000000000005cc11ef1de86c5e00259a463ac3f3ae1a0fa2909"
          ],
          "data": "0x",
          "blockHash": "0xd9a42c220f5df32ee629c2613220468c278bd59ea1d2c6aa89ff55f20a484179",
          "blockNumber": "0x775adc2",
          "transactionHash": "0xc2ab2f646e8b63caf8cf8ce149da8e64461d1efebff564842dd5f65ccc1ea804",
          "transactionIndex": "0xa",
          "logIndex": "0x1b",
          "removed": false
        }
      ],
      "logsBloom": "0x00000000000000000000000000000000000000000000000000800000000000000000000000000000000000000000000008800000000000000000000000000000000000000000000000000000000000000001000000000000000000010000000000000000020000000000000000000800002000000000000000000000000000400000000000000000000000000000000000000000000000000000000000000000000000000000000000000000100000000000000000000000000000000000000000000000000000000000000000000000000000000000000000000000000020000000000000000000000000200000000000000000000000000000000000000000",
      "type": "0x2",
      "transactionHash": "0xc2ab2f646e8b63caf8cf8ce149da8e64461d1efebff564842dd5f65ccc1ea804",
      "transactionIndex": "0xa",
      "blockHash": "0xd9a42c220f5df32ee629c2613220468c278bd59ea1d2c6aa89ff55f20a484179",
      "blockNumber": "0x775adc2",
      "gasUsed": "0x13146f",
      "effectiveGasPrice": "0x2b43e57",
      "from": "0x5cc11ef1de86c5e00259a463ac3f3ae1a0fa2909",
      "to": null,
      "contractAddress": "0xbfd68d694fac3aeeeee8131a7229367172cee326",
      "l1BaseFeeScalar": "0x146b",
      "l1BlobBaseFee": "0x1",
      "l1BlobBaseFeeScalar": "0xf79c5",
      "l1Fee": "0x21d7b397e9a",
      "l1GasPrice": "0x1e03a0617",
      "l1GasUsed": "0xd7b7"
    },
    {
      "status": "0x1",
      "cumulativeGasUsed": "0x426b23",
      "logs": [],
      "logsBloom": "0x00000000000000000000000000000000000000000000000000000000000000000000000000000000000000000000000000000000000000000000000000000000000000000000000000000000000000000000000000000000000000000000000000000000000000000000000000000000000000000000000000000000000000000000000000000000000000000000000000000000000000000000000000000000000000000000000000000000000000000000000000000000000000000000000000000000000000000000000000000000000000000000000000000000000000000000000000000000000000000000000000000000000000000000000000000000",
      "type": "0x2",
      "transactionHash": "0x384c38ee13163750f0042a225d51fd4af643de99afabd3b0f589ca6bdb78698e",
      "transactionIndex": "0xb",
      "blockHash": "0x6ddd5d9eac51a1b09b4f8f0a9bf801962cb32cc3b25439cb770b19e5628082d3",
      "blockNumber": "0x775adc6",
      "gasUsed": "0x16c21c",
      "effectiveGasPrice": "0x2b71b88",
      "from": "0x5cc11ef1de86c5e00259a463ac3f3ae1a0fa2909",
      "to": null,
      "contractAddress": "0x6bc29542be0647646dc6cfb96850150f4ce2d45e",
      "l1BaseFeeScalar": "0x146b",
      "l1BlobBaseFee": "0x1",
      "l1BlobBaseFeeScalar": "0xf79c5",
      "l1Fee": "0x265766e5349",
      "l1GasPrice": "0x1dccf3588",
      "l1GasUsed": "0xf625"
    },
    {
      "status": "0x1",
      "cumulativeGasUsed": "0x273156",
      "logs": [],
      "logsBloom": "0x00000000000000000000000000000000000000000000000000000000000000000000000000000000000000000000000000000000000000000000000000000000000000000000000000000000000000000000000000000000000000000000000000000000000000000000000000000000000000000000000000000000000000000000000000000000000000000000000000000000000000000000000000000000000000000000000000000000000000000000000000000000000000000000000000000000000000000000000000000000000000000000000000000000000000000000000000000000000000000000000000000000000000000000000000000000",
      "type": "0x2",
      "transactionHash": "0x539a80853ee187fcca1d13f60995af7d9fc9db64cf684cd8bbbe268dcb843177",
      "transactionIndex": "0x8",
      "blockHash": "0xb2663bc35b7c326d6972e80b21b420356dbd30d13ba6b85df943bbf1840772ad",
      "blockNumber": "0x775adc9",
      "gasUsed": "0x10c87",
      "effectiveGasPrice": "0x2b6ffa3",
      "from": "0x5cc11ef1de86c5e00259a463ac3f3ae1a0fa2909",
      "to": "0xbfd68d694fac3aeeeee8131a7229367172cee326",
      "contractAddress": null,
      "l1BaseFeeScalar": "0x146b",
      "l1BlobBaseFee": "0x1",
      "l1BlobBaseFeeScalar": "0xf79c5",
      "l1Fee": "0xf93a7082d",
      "l1GasPrice": "0x1dccf3588",
      "l1GasUsed": "0x640"
    },
    {
      "status": "0x1",
      "cumulativeGasUsed": "0x10cab5",
      "logs": [],
      "logsBloom": "0x00000000000000000000000000000000000000000000000000000000000000000000000000000000000000000000000000000000000000000000000000000000000000000000000000000000000000000000000000000000000000000000000000000000000000000000000000000000000000000000000000000000000000000000000000000000000000000000000000000000000000000000000000000000000000000000000000000000000000000000000000000000000000000000000000000000000000000000000000000000000000000000000000000000000000000000000000000000000000000000000000000000000000000000000000000000",
      "type": "0x2",
      "transactionHash": "0x5b243257ef08c121fcd674db6ee36e0c77257b662dc024fcb1b0be453b51d979",
      "transactionIndex": "0x5",
      "blockHash": "0x488edbed163e66b1c8b544cd534d84718af77bf235beac443b92efecb2fd5b58",
      "blockNumber": "0x775adcc",
      "gasUsed": "0xb5d2",
      "effectiveGasPrice": "0x2ba1bc9",
      "from": "0x5cc11ef1de86c5e00259a463ac3f3ae1a0fa2909",
      "to": "0x663264f051919b0eff44f50dd247ad911b055630",
      "contractAddress": null,
      "l1BaseFeeScalar": "0x146b",
      "l1BlobBaseFee": "0x1",
      "l1BlobBaseFeeScalar": "0xf79c5",
      "l1Fee": "0xfd5e721e7",
      "l1GasPrice": "0x1e4bb272c",
      "l1GasUsed": "0x640"
    },
    {
      "status": "0x1",
      "cumulativeGasUsed": "0xdf508",
      "logs": [
        {
          "address": "0xbfd68d694fac3aeeeee8131a7229367172cee326",
          "topics": [
            "0xe8634ee4705b838130ef5f5704acc336c6fd18a8bfe0430e9102ff6bcf9184d3",
            "0x00000000000000000000000017cc1e3af40c88b235d9837990b8ad4d7c06f5cc"
          ],
          "data": "0x",
          "blockHash": "0x905992de01dc83cc0af49f426bbb83a6f578c8cb89363b8db9d2565976582b60",
          "blockNumber": "0x775add0",
          "transactionHash": "0x24770cd61a363ad027afae01967e8900ad2b9f5b5644b9efa75179003bb4a20e",
          "transactionIndex": "0x7",
          "logIndex": "0x13",
          "removed": false
        }
      ],
      "logsBloom": "0x00000000000000000000000000000000000000000000000000000000000000000800000020000000000000000000000008800000000000000000000000000000000000000000000000000000000000000004000000000000000000010000000000000000000000000000000000000000000000000000000000000000000000000000000000000000000000000000000000000000000000000000000000000000000000000000000000000000000000000000000000000400000000000000000000000000000000000000000000000000000000000000000000000000000000000000000000000010000000000000000000000000000000000000000400000000",
      "type": "0x2",
      "transactionHash": "0x24770cd61a363ad027afae01967e8900ad2b9f5b5644b9efa75179003bb4a20e",
      "transactionIndex": "0x7",
      "blockHash": "0x905992de01dc83cc0af49f426bbb83a6f578c8cb89363b8db9d2565976582b60",
      "blockNumber": "0x775add0",
      "gasUsed": "0xbb93",
      "effectiveGasPrice": "0x2b70432",
      "from": "0x5cc11ef1de86c5e00259a463ac3f3ae1a0fa2909",
      "to": "0xbfd68d694fac3aeeeee8131a7229367172cee326",
      "contractAddress": null,
      "l1BaseFeeScalar": "0x146b",
      "l1BlobBaseFee": "0x1",
      "l1BlobBaseFeeScalar": "0xf79c5",
      "l1Fee": "0xfd5e721e7",
      "l1GasPrice": "0x1e4bb272c",
      "l1GasUsed": "0x640"
    },
    {
      "status": "0x1",
      "cumulativeGasUsed": "0x639d79",
      "logs": [
        {
          "address": "0xbfd68d694fac3aeeeee8131a7229367172cee326",
          "topics": [
            "0xe8634ee4705b838130ef5f5704acc336c6fd18a8bfe0430e9102ff6bcf9184d3",
            "0x0000000000000000000000004102b4144e9efb8cb0d7dc4a3fd8e65e4a8b8fd0"
          ],
          "data": "0x",
          "blockHash": "0x09e65f430fc4d0670a12bcc62d74da0011a0c42a8037f5b0aad6fad3be917f2a",
          "blockNumber": "0x775add4",
          "transactionHash": "0x190a67cdb22a4b2edf1f490bf9a4301f591f226bca19653b160a9c73ca67a069",
          "transactionIndex": "0x11",
          "logIndex": "0x53",
          "removed": false
        }
      ],
      "logsBloom": "0x00000000000000000000000000000080000000000000000000000000000000000000000020000000000000000000000008800000000000000000000000000000000000000000000000000000000000000000000000000000000000010000000000000000200000000000000000000000000000000000000000000000000000000000000000000000000000000000000000000000000000000000000000002000000000000000000000000000000000000000000000000400000000000000000000000000000000000000000000000000000000000000000000000000000000000000000000000000000000000000000000000000000000000000000400000000",
      "type": "0x2",
      "transactionHash": "0x190a67cdb22a4b2edf1f490bf9a4301f591f226bca19653b160a9c73ca67a069",
      "transactionIndex": "0x11",
      "blockHash": "0x09e65f430fc4d0670a12bcc62d74da0011a0c42a8037f5b0aad6fad3be917f2a",
      "blockNumber": "0x775add4",
      "gasUsed": "0xbb93",
      "effectiveGasPrice": "0x2b7961d",
      "from": "0x5cc11ef1de86c5e00259a463ac3f3ae1a0fa2909",
      "to": "0xbfd68d694fac3aeeeee8131a7229367172cee326",
      "contractAddress": null,
      "l1BaseFeeScalar": "0x146b",
      "l1BlobBaseFee": "0x1",
      "l1BlobBaseFeeScalar": "0xf79c5",
      "l1Fee": "0x1033aec5ee",
      "l1GasPrice": "0x1eff1c815",
      "l1GasUsed": "0x640"
    },
    {
      "status": "0x1",
      "cumulativeGasUsed": "0x23f3ca",
      "logs": [
        {
          "address": "0xbfd68d694fac3aeeeee8131a7229367172cee326",
          "topics": [
            "0xe8634ee4705b838130ef5f5704acc336c6fd18a8bfe0430e9102ff6bcf9184d3",
            "0x00000000000000000000000090b29af53d2bbb878cae1952b773a307330393ef"
          ],
          "data": "0x",
          "blockHash": "0x323ce606336ed3ca2f33b20fa5dee2606e9a0acea052047301e81cfebc0ade5b",
          "blockNumber": "0x775add7",
          "transactionHash": "0x008a091e61aef12b4b16270d78fc92d778f0616cce02aaa8fa11bdccadd37a15",
          "transactionIndex": "0x9",
          "logIndex": "0xf",
          "removed": false
        }
      ],
      "logsBloom": "0x00000000000000000000000000000000000000000000000000000000000000000000000020000000000000000000000008800000000000000000000000000000000000000000000000000000000000000000000000000000000000010000000000000000000000000000000000000000000000002080000000000000000000000000000000000000000000000000000000000000000000000000000000000000000000000000000000000000000000000000000000000400000000000000000000000000000000000000000000000000000000000000000000000000000000000000000008000000000000000000000000000000000000000000000400000000",
      "type": "0x2",
      "transactionHash": "0x008a091e61aef12b4b16270d78fc92d778f0616cce02aaa8fa11bdccadd37a15",
      "transactionIndex": "0x9",
      "blockHash": "0x323ce606336ed3ca2f33b20fa5dee2606e9a0acea052047301e81cfebc0ade5b",
      "blockNumber": "0x775add7",
      "gasUsed": "0xbb93",
      "effectiveGasPrice": "0x2b7e47a",
      "from": "0x5cc11ef1de86c5e00259a463ac3f3ae1a0fa2909",
      "to": "0xbfd68d694fac3aeeeee8131a7229367172cee326",
      "contractAddress": null,
      "l1BaseFeeScalar": "0x146b",
      "l1BlobBaseFee": "0x1",
      "l1BlobBaseFeeScalar": "0xf79c5",
      "l1Fee": "0xfbbd79c11",
      "l1GasPrice": "0x1e19d6de8",
      "l1GasUsed": "0x640"
    },
    {
      "status": "0x1",
      "cumulativeGasUsed": "0xf3cfa",
      "logs": [
        {
          "address": "0xbfd68d694fac3aeeeee8131a7229367172cee326",
          "topics": [
            "0xe8634ee4705b838130ef5f5704acc336c6fd18a8bfe0430e9102ff6bcf9184d3",
            "0x0000000000000000000000007e5e0712c627746a918ae2015e5bfab51c86da26"
          ],
          "data": "0x",
          "blockHash": "0xfad7256aa4c24b2aca1095c90602d95c2a170681433a4f5bbc13716c996fbd3e",
          "blockNumber": "0x775addb",
          "transactionHash": "0x14e69cf457d00cc54387b08a697e32736ec251f12e3886766d1e63f5e222897e",
          "transactionIndex": "0x4",
          "logIndex": "0x0",
          "removed": false
        }
      ],
      "logsBloom": "0x00000000000000000000000000000000000000000000000000000000000000000000000020000000000000000000000008800000000000000000000000000000000000000000000000000000000000000000000000000000000000010000000000000000000000000000000000000000000000000000000010000000001000000000000000000000000000000000000000000000000000000000000000000000000000000000000000000000000000000000000000000400100000000000000000000000000000000000000000000000000000000000000000000000000000000000000000000000000000000000000000000000000000000000000400000000",
      "type": "0x2",
      "transactionHash": "0x14e69cf457d00cc54387b08a697e32736ec251f12e3886766d1e63f5e222897e",
      "transactionIndex": "0x4",
      "blockHash": "0xfad7256aa4c24b2aca1095c90602d95c2a170681433a4f5bbc13716c996fbd3e",
      "blockNumber": "0x775addb",
      "gasUsed": "0xbb93",
      "effectiveGasPrice": "0x2b536e7",
      "from": "0x5cc11ef1de86c5e00259a463ac3f3ae1a0fa2909",
      "to": "0xbfd68d694fac3aeeeee8131a7229367172cee326",
      "contractAddress": null,
      "l1BaseFeeScalar": "0x146b",
      "l1BlobBaseFee": "0x1",
      "l1BlobBaseFeeScalar": "0xf79c5",
      "l1Fee": "0xfbbd79c11",
      "l1GasPrice": "0x1e19d6de8",
      "l1GasUsed": "0x640"
    },
    {
      "status": "0x1",
      "cumulativeGasUsed": "0x1e56d7",
      "logs": [
        {
          "address": "0xbfd68d694fac3aeeeee8131a7229367172cee326",
          "topics": [
            "0xe8634ee4705b838130ef5f5704acc336c6fd18a8bfe0430e9102ff6bcf9184d3",
            "0x0000000000000000000000005975fba1186116168c479bb21bb335f02d504cfb"
          ],
          "data": "0x",
          "blockHash": "0xe699d349d54be44358f6ca8b031886db004b68457553124ea59fed58b910056b",
          "blockNumber": "0x775addf",
          "transactionHash": "0x662d8fe0c83967e52b59c7ae55e3abdbc24c46c773773cb53f8970e381193e86",
          "transactionIndex": "0xd",
          "logIndex": "0x38",
          "removed": false
        }
      ],
      "logsBloom": "0x00000000000000000000000000000000000000000000000000000000000000000000000020000000000000000000000028800000000000000000000000000000000000000000000000000000000000000000000000000000000000010000000000000000000000000000000000000000000000000000000000000000000000000000000000000000000000000000000000000000000000000000000000000000000000000000000000000000000000000000000000000400000000000000000000000000000000001000000000000000000000000000000000002000000000000000000000000000000000000000000000000000000000000000000400000000",
      "type": "0x2",
      "transactionHash": "0x662d8fe0c83967e52b59c7ae55e3abdbc24c46c773773cb53f8970e381193e86",
      "transactionIndex": "0xd",
      "blockHash": "0xe699d349d54be44358f6ca8b031886db004b68457553124ea59fed58b910056b",
      "blockNumber": "0x775addf",
      "gasUsed": "0xbb93",
      "effectiveGasPrice": "0x2b52fce",
      "from": "0x5cc11ef1de86c5e00259a463ac3f3ae1a0fa2909",
      "to": "0xbfd68d694fac3aeeeee8131a7229367172cee326",
      "contractAddress": null,
      "l1BaseFeeScalar": "0x146b",
      "l1BlobBaseFee": "0x1",
      "l1BlobBaseFeeScalar": "0xf79c5",
      "l1Fee": "0x105b9743c5",
      "l1GasPrice": "0x1f4b761e1",
      "l1GasUsed": "0x640"
    },
    {
      "status": "0x1",
      "cumulativeGasUsed": "0x2d0f73",
      "logs": [
        {
          "address": "0x7f5c764cbc14f9669b88837ca1490cca17c31607",
          "topics": [
            "0x8c5be1e5ebec7d5bd14f71427d1e84f3dd0314c0f7b2291e5b200ac8c7c3b925",
            "0x00000000000000000000000017cc1e3af40c88b235d9837990b8ad4d7c06f5cc",
            "0x000000000000000000000000bfd68d694fac3aeeeee8131a7229367172cee326"
          ],
          "data": "0x0000000000000000000000000000000000000000000000000000000010cb73e9",
          "blockHash": "0xa4b8f8bee2067181aadb4fb9bf5ee04c4d3d0af54a983575e322ae6a44ac2a89",
          "blockNumber": "0x775ade2",
          "transactionHash": "0xeb332ae64d984639f1142d1172185d4f523c8cde4c23e7d0ef74724a4036340d",
          "transactionIndex": "0x9",
          "logIndex": "0x1d",
          "removed": false
        }
      ],
      "logsBloom": "0x00000000000800000000008000000000000000000000000000000000000000000800000000000000000000000000000000000040000000000000000000200000000000000000000000000000000000000004000000000000020000000000000000000000000000000000000000000000000000000000000000000000000000000000000000000000004000000000000000000000000000000000000000000000020000000000000000000000000000000000000000000000000000000000000000000000000000000000000000000000000000000000000000000000000000000010000000000010000000000000000000000000000000000000000000010000",
      "type": "0x2",
      "transactionHash": "0xeb332ae64d984639f1142d1172185d4f523c8cde4c23e7d0ef74724a4036340d",
      "transactionIndex": "0x9",
      "blockHash": "0xa4b8f8bee2067181aadb4fb9bf5ee04c4d3d0af54a983575e322ae6a44ac2a89",
      "blockNumber": "0x775ade2",
      "gasUsed": "0xcf4b",
      "effectiveGasPrice": "0x2b5f406",
      "from": "0x17cc1e3af40c88b235d9837990b8ad4d7c06f5cc",
      "to": "0x7f5c764cbc14f9669b88837ca1490cca17c31607",
      "contractAddress": null,
      "l1BaseFeeScalar": "0x146b",
      "l1BlobBaseFee": "0x1",
      "l1BlobBaseFeeScalar": "0xf79c5",
      "l1Fee": "0x105b9743c5",
      "l1GasPrice": "0x1f4b761e1",
      "l1GasUsed": "0x640"
    },
    {
      "status": "0x1",
      "cumulativeGasUsed": "0x1f54bc",
      "logs": [
        {
          "address": "0x7f5c764cbc14f9669b88837ca1490cca17c31607",
          "topics": [
            "0xddf252ad1be2c89b69c2b068fc378daa952ba7f163c4a11628f55a4df523b3ef",
            "0x00000000000000000000000017cc1e3af40c88b235d9837990b8ad4d7c06f5cc",
            "0x000000000000000000000000bfd68d694fac3aeeeee8131a7229367172cee326"
          ],
          "data": "0x0000000000000000000000000000000000000000000000000000000010cb73e9",
          "blockHash": "0x88df884a272a1bffd273fba8e78e366d969035e789f56be3895bb6cc20bf6a7a",
          "blockNumber": "0x775ade6",
          "transactionHash": "0xc76b7ed9d6bf6e4635e1f4a2efa6be5ce520e98c3ef261037cd7c31da475c411",
          "transactionIndex": "0x6",
          "logIndex": "0x2",
          "removed": false
        },
        {
          "address": "0x7f5c764cbc14f9669b88837ca1490cca17c31607",
          "topics": [
            "0x8c5be1e5ebec7d5bd14f71427d1e84f3dd0314c0f7b2291e5b200ac8c7c3b925",
            "0x00000000000000000000000017cc1e3af40c88b235d9837990b8ad4d7c06f5cc",
            "0x000000000000000000000000bfd68d694fac3aeeeee8131a7229367172cee326"
          ],
          "data": "0x0000000000000000000000000000000000000000000000000000000000000000",
          "blockHash": "0x88df884a272a1bffd273fba8e78e366d969035e789f56be3895bb6cc20bf6a7a",
          "blockNumber": "0x775ade6",
          "transactionHash": "0xc76b7ed9d6bf6e4635e1f4a2efa6be5ce520e98c3ef261037cd7c31da475c411",
          "transactionIndex": "0x6",
          "logIndex": "0x3",
          "removed": false
        },
        {
          "address": "0xbfd68d694fac3aeeeee8131a7229367172cee326",
          "topics": [
            "0x2eb220dd1845c208359466327811890cd9b7d73b101431c49fdc6f6dde480593",
            "0x0000000000000000000000005cc11ef1de86c5e00259a463ac3f3ae1a0fa2909"
          ],
          "data": "0x0000000000000000000000007f5c764cbc14f9669b88837ca1490cca17c316070000000000000000000000000000000000000000000000000000000010cb73e9",
          "blockHash": "0x88df884a272a1bffd273fba8e78e366d969035e789f56be3895bb6cc20bf6a7a",
          "blockNumber": "0x775ade6",
          "transactionHash": "0xc76b7ed9d6bf6e4635e1f4a2efa6be5ce520e98c3ef261037cd7c31da475c411",
          "transactionIndex": "0x6",
          "logIndex": "0x4",
          "removed": false
        }
      ],
      "logsBloom": "0x00000000000800000000008000000000000000000000000000000000000000000800000000000000000000000000000008800040000000000000000000200000000000000000000000000008000000000004000000000000020000010000000000000000000000000000000000000000002000000000000000000010000000000000000000000000004000000000000000000000000000000000000000000000028000000000000000000000100000000000000000000000000000000000000000000002000000000000000000000000000000000000000000000000000000000010000000400010000000200000000000000000040000000000000000010000",
      "type": "0x2",
      "transactionHash": "0xc76b7ed9d6bf6e4635e1f4a2efa6be5ce520e98c3ef261037cd7c31da475c411",
      "transactionIndex": "0x6",
      "blockHash": "0x88df884a272a1bffd273fba8e78e366d969035e789f56be3895bb6cc20bf6a7a",
      "blockNumber": "0x775ade6",
      "gasUsed": "0x1c77d",
      "effectiveGasPrice": "0x2b1b873",
      "from": "0x17cc1e3af40c88b235d9837990b8ad4d7c06f5cc",
      "to": "0xbfd68d694fac3aeeeee8131a7229367172cee326",
      "contractAddress": null,
      "l1BaseFeeScalar": "0x146b",
      "l1BlobBaseFee": "0x1",
      "l1BlobBaseFeeScalar": "0xf79c5",
      "l1Fee": "0x1105878d15",
      "l1GasPrice": "0x1ea1a8e92",
      "l1GasUsed": "0x6a4"
    }
  ],
  "libraries": [],
  "pending": [],
  "returns": {},
  "timestamp": 1725904266,
  "chain": 10,
  "commit": "fa3195c"
}